{
  "_format": "hh-sol-artifact-1",
  "contractName": "AlphaVaultSwap",
  "sourceName": "contracts/AlphaVault.sol",
  "abi": [
    {
      "inputs": [],
      "stateMutability": "nonpayable",
      "type": "constructor"
    },
    {
      "anonymous": false,
      "inputs": [
        {
          "indexed": false,
          "internalType": "uint256",
          "name": "wethBal_",
          "type": "uint256"
        },
        {
          "indexed": false,
          "internalType": "uint256",
          "name": "reqAmount_",
          "type": "uint256"
        }
      ],
      "name": "BadRequest",
      "type": "event"
    },
    {
      "anonymous": false,
      "inputs": [
        {
          "indexed": false,
          "internalType": "uint256",
          "name": "wethBal_",
          "type": "uint256"
        }
      ],
      "name": "EtherBalanceChange",
      "type": "event"
    },
    {
      "anonymous": false,
      "inputs": [
        {
          "indexed": true,
          "internalType": "address",
          "name": "previousOwner",
          "type": "address"
        },
        {
          "indexed": true,
          "internalType": "address",
          "name": "newOwner",
          "type": "address"
        }
      ],
      "name": "OwnershipTransferred",
      "type": "event"
    },
    {
      "anonymous": false,
      "inputs": [
        {
          "indexed": true,
          "internalType": "address",
          "name": "from_",
          "type": "address"
        },
        {
          "indexed": true,
          "internalType": "address",
          "name": "to_",
          "type": "address"
        },
        {
          "indexed": false,
          "internalType": "uint256",
          "name": "amount_",
          "type": "uint256"
        }
      ],
      "name": "TransferSuccessful",
      "type": "event"
    },
    {
      "anonymous": false,
      "inputs": [
        {
          "indexed": false,
          "internalType": "contract IERC20",
          "name": "buyToken",
          "type": "address"
        },
        {
          "indexed": false,
          "internalType": "uint256",
          "name": "boughtAmount_",
          "type": "uint256"
        }
      ],
      "name": "WithdrawTokens",
      "type": "event"
    },
    {
      "anonymous": false,
      "inputs": [
        {
          "indexed": false,
          "internalType": "bool",
          "name": "status",
          "type": "bool"
        },
        {
          "indexed": false,
          "internalType": "uint256",
          "name": "initialBuyTokenBalance",
          "type": "uint256"
        }
      ],
      "name": "ZeroXCallSuccess",
      "type": "event"
    },
    {
      "anonymous": false,
      "inputs": [
        {
          "indexed": false,
          "internalType": "uint256",
          "name": "buTokenAmount",
          "type": "uint256"
        }
      ],
      "name": "buyTokenBought",
      "type": "event"
    },
    {
      "anonymous": false,
      "inputs": [
        {
          "indexed": false,
          "internalType": "uint256",
          "name": "feePercentage",
          "type": "uint256"
        }
      ],
      "name": "feePercentageChange",
      "type": "event"
    },
    {
      "anonymous": false,
      "inputs": [
        {
          "indexed": false,
          "internalType": "uint256",
          "name": "maxTransactions",
          "type": "uint256"
        }
      ],
      "name": "maxTransactionsChange",
      "type": "event"
    },
    {
      "stateMutability": "payable",
      "type": "fallback"
    },
    {
      "inputs": [],
      "name": "WETH",
      "outputs": [
        {
          "internalType": "contract IWETH",
          "name": "",
          "type": "address"
        }
      ],
      "stateMutability": "view",
      "type": "function"
    },
    {
      "inputs": [],
      "name": "feePercentage",
      "outputs": [
        {
          "internalType": "uint256",
          "name": "",
          "type": "uint256"
        }
      ],
      "stateMutability": "view",
      "type": "function"
    },
    {
      "inputs": [
        {
          "internalType": "contract IERC20",
          "name": "buyToken",
          "type": "address"
        },
        {
          "internalType": "contract IERC20",
          "name": "sellToken",
          "type": "address"
        },
        {
          "internalType": "address",
          "name": "spender",
          "type": "address"
        },
        {
          "internalType": "address payable",
          "name": "swapTarget",
          "type": "address"
        },
        {
          "internalType": "bytes",
          "name": "swapCallData",
          "type": "bytes"
        }
      ],
      "name": "fillQuote",
      "outputs": [
        {
          "internalType": "uint256",
          "name": "",
          "type": "uint256"
        }
      ],
      "stateMutability": "nonpayable",
      "type": "function"
    },
    {
      "inputs": [],
      "name": "maxTransactions",
      "outputs": [
        {
          "internalType": "uint256",
          "name": "",
          "type": "uint256"
        }
      ],
      "stateMutability": "view",
      "type": "function"
    },
    {
      "inputs": [
        {
          "internalType": "contract IERC20[]",
          "name": "sellToken",
          "type": "address[]"
        },
        {
          "internalType": "contract IERC20[]",
          "name": "buyToken",
          "type": "address[]"
        },
        {
          "internalType": "address[]",
          "name": "spender",
          "type": "address[]"
        },
        {
          "internalType": "address payable[]",
          "name": "swapTarget",
          "type": "address[]"
        },
        {
          "internalType": "bytes[]",
          "name": "swapCallData",
          "type": "bytes[]"
        },
        {
          "internalType": "uint256[]",
          "name": "amount",
          "type": "uint256[]"
        }
      ],
      "name": "multiSwap",
      "outputs": [],
      "stateMutability": "payable",
      "type": "function"
    },
    {
      "inputs": [],
      "name": "owner",
      "outputs": [
        {
          "internalType": "address",
          "name": "",
          "type": "address"
        }
      ],
      "stateMutability": "view",
      "type": "function"
    },
    {
      "inputs": [],
      "name": "renounceOwnership",
      "outputs": [],
      "stateMutability": "nonpayable",
      "type": "function"
    },
    {
      "inputs": [
        {
          "internalType": "uint256",
          "name": "num",
          "type": "uint256"
        }
      ],
      "name": "setMaxTransactionLimit",
      "outputs": [],
      "stateMutability": "nonpayable",
      "type": "function"
    },
    {
      "inputs": [
        {
          "internalType": "uint256",
          "name": "num",
          "type": "uint256"
        }
      ],
      "name": "setfeePercentage",
      "outputs": [],
      "stateMutability": "nonpayable",
      "type": "function"
    },
    {
      "inputs": [
        {
          "internalType": "address",
          "name": "newOwner",
          "type": "address"
        }
      ],
      "name": "transferOwnership",
      "outputs": [],
      "stateMutability": "nonpayable",
      "type": "function"
    },
    {
      "inputs": [
        {
          "internalType": "uint256",
          "name": "amount",
          "type": "uint256"
        }
      ],
      "name": "withdrawETH",
      "outputs": [],
      "stateMutability": "nonpayable",
      "type": "function"
    },
    {
      "inputs": [
        {
          "internalType": "contract IERC20",
          "name": "token",
          "type": "address"
        },
        {
          "internalType": "uint256",
          "name": "amount",
          "type": "uint256"
        }
      ],
      "name": "withdrawFee",
      "outputs": [],
      "stateMutability": "nonpayable",
      "type": "function"
    },
    {
      "stateMutability": "payable",
      "type": "receive"
    }
  ],
  "bytecode": "0x60a06040523480156200001157600080fd5b5062000032620000266200009360201b60201c565b6200009b60201b60201c565b730d500b1d8e8ef31e21c99d1db9a6444d3adf127073ffffffffffffffffffffffffffffffffffffffff1660808173ffffffffffffffffffffffffffffffffffffffff1660601b81525050601960028190555060056003819055506200015f565b600033905090565b60008060009054906101000a900473ffffffffffffffffffffffffffffffffffffffff169050816000806101000a81548173ffffffffffffffffffffffffffffffffffffffff021916908373ffffffffffffffffffffffffffffffffffffffff1602179055508173ffffffffffffffffffffffffffffffffffffffff168173ffffffffffffffffffffffffffffffffffffffff167f8be0079c531659141344cd1fd0a4f28419497f9722a3daafe3b4186f6b6457e060405160405180910390a35050565b60805160601c612553620001a86000396000818161037501528181610566015281816106990152818161071c0152818161075a01528181610ace015261107701526125536000f3fe6080604052600436106100ab5760003560e01c8063a001ecdd11610064578063a001ecdd1461018f578063ab971612146101ba578063ad5c4648146101f7578063f14210a614610222578063f2fde38b1461024b578063fd9be52214610274576100b2565b806324e1c18d146100b457806339ab835a146100df5780636ca591a714610108578063715018a6146101245780637a9d7c141461013b5780638da5cb5b14610164576100b2565b366100b257005b005b3480156100c057600080fd5b506100c961029d565b6040516100d69190611598565b60405180910390f35b3480156100eb57600080fd5b50610106600480360381019061010191906115f3565b6102a3565b005b610122600480360381019061011d91906118d6565b6102ee565b005b34801561013057600080fd5b50610139610c47565b005b34801561014757600080fd5b50610162600480360381019061015d91906115f3565b610c5b565b005b34801561017057600080fd5b50610179610ca6565b6040516101869190611a64565b60405180910390f35b34801561019b57600080fd5b506101a4610ccf565b6040516101b19190611598565b60405180910390f35b3480156101c657600080fd5b506101e160048036038101906101dc9190611b7d565b610cd5565b6040516101ee9190611598565b60405180910390f35b34801561020357600080fd5b5061020c611075565b6040516102199190611c76565b60405180910390f35b34801561022e57600080fd5b50610249600480360381019061024491906115f3565b611099565b005b34801561025757600080fd5b50610272600480360381019061026d9190611c91565b6110eb565b005b34801561028057600080fd5b5061029b60048036038101906102969190611cbe565b61116f565b005b60025481565b6102ab611211565b806003819055507f15ac3285479f3f0bc4fb97f40770e5596d6bd3a4c27bb4bf29a7ab8f841652786003546040516102e39190611598565b60405180910390a150565b6002548b8b9050111580156103085750888890508b8b9050145b801561031957508888905087879050145b801561032a57508686905085859050145b610369576040517f08c379a000000000000000000000000000000000000000000000000000000000815260040161036090611d5b565b60405180910390fd5b600080341115610454577f000000000000000000000000000000000000000000000000000000000000000073ffffffffffffffffffffffffffffffffffffffff1663d0e30db0346040518263ffffffff1660e01b81526004016000604051808303818588803b1580156103db57600080fd5b505af11580156103ef573d6000803e3d6000fd5b505050505060035460646104039190611daa565b6064346104109190611e00565b61041a9190611e89565b90507f59e3c56b3739d587caa0270fae7c28e1b6a1af555395ad122400ff97d48fed168160405161044b9190611598565b60405180910390a15b60005b88889050811015610c3857600073ffffffffffffffffffffffffffffffffffffffff1689898381811061048d5761048c611eba565b5b90506020020160208101906104a29190611c91565b73ffffffffffffffffffffffffffffffffffffffff161415610758576000821115610753578281815181106104da576104d9611eba565b5b6020026020010151821015610541577f0b74b0798ec89f7cf91b1446e01c1bb75b7d55c45b104edfb364a46a074e2f568284838151811061051e5761051d611eba565b5b6020026020010151604051610534929190611ee9565b60405180910390a1610c38565b600083828151811061055657610555611eba565b5b60200260200101511115610694577f000000000000000000000000000000000000000000000000000000000000000073ffffffffffffffffffffffffffffffffffffffff16632e1a7d4d8483815181106105b3576105b2611eba565b5b60200260200101516040518263ffffffff1660e01b81526004016105d79190611598565b600060405180830381600087803b1580156105f157600080fd5b505af1158015610605573d6000803e3d6000fd5b5050505082818151811061061c5761061b611eba565b5b60200260200101518261062f9190611f12565b915061065c83828151811061064757610646611eba565b5b602002602001015161065761128f565b611297565b7f59e3c56b3739d587caa0270fae7c28e1b6a1af555395ad122400ff97d48fed168260405161068b9190611598565b60405180910390a15b6106be7f0000000000000000000000000000000000000000000000000000000000000000836112e2565b600091507f59e3c56b3739d587caa0270fae7c28e1b6a1af555395ad122400ff97d48fed16826040516106f19190611598565b60405180910390a17f680f2e4f4032ebf1774e8cdbaddcb1b617a5a606411c8ca96257ada338d3833c7f00000000000000000000000000000000000000000000000000000000000000008360405161074a929190611f46565b60405180910390a15b610c25565b7f000000000000000000000000000000000000000000000000000000000000000073ffffffffffffffffffffffffffffffffffffffff168d8d838181106107a2576107a1611eba565b5b90506020020160208101906107b79190611f6f565b73ffffffffffffffffffffffffffffffffffffffff1614156109af578a8a828181106107e6576107e5611eba565b5b90506020020160208101906107fb9190611f6f565b73ffffffffffffffffffffffffffffffffffffffff168d8d8381811061082457610823611eba565b5b90506020020160208101906108399190611f6f565b73ffffffffffffffffffffffffffffffffffffffff161415610929576108a08d8d8381811061086b5761086a611eba565b5b90506020020160208101906108809190611f6f565b84838151811061089357610892611eba565b5b602002602001015161137c565b60035460646108af9190611daa565b60648483815181106108c4576108c3611eba565b5b60200260200101516108d69190611e00565b6108e09190611e89565b826108eb9190611daa565b91507f59e3c56b3739d587caa0270fae7c28e1b6a1af555395ad122400ff97d48fed168260405161091c9190611598565b60405180910390a1610c25565b82818151811061093c5761093b611eba565b5b602002602001015182106109735782818151811061095d5761095c611eba565b5b6020026020010151826109709190611f12565b91505b7f59e3c56b3739d587caa0270fae7c28e1b6a1af555395ad122400ff97d48fed16826040516109a29190611598565b60405180910390a16109fb565b6109fa8d8d838181106109c5576109c4611eba565b5b90506020020160208101906109da9190611f6f565b8483815181106109ed576109ec611eba565b5b602002602001015161137c565b5b6000610aca8c8c84818110610a1357610a12611eba565b5b9050602002016020810190610a289190611f6f565b8f8f85818110610a3b57610a3a611eba565b5b9050602002016020810190610a509190611f6f565b8c8c86818110610a6357610a62611eba565b5b9050602002016020810190610a789190611c91565b8b8b87818110610a8b57610a8a611eba565b5b9050602002016020810190610aa09190611f9c565b8a8a88818110610ab357610ab2611eba565b5b9050602002810190610ac59190611fd8565b610cd5565b90507f000000000000000000000000000000000000000000000000000000000000000073ffffffffffffffffffffffffffffffffffffffff168c8c84818110610b1657610b15611eba565b5b9050602002016020810190610b2b9190611f6f565b73ffffffffffffffffffffffffffffffffffffffff161415610b91578083610b539190611daa565b92507f59e3c56b3739d587caa0270fae7c28e1b6a1af555395ad122400ff97d48fed1683604051610b849190611598565b60405180910390a1610c23565b610bc28c8c84818110610ba757610ba6611eba565b5b9050602002016020810190610bbc9190611f6f565b826112e2565b7f680f2e4f4032ebf1774e8cdbaddcb1b617a5a606411c8ca96257ada338d3833c8c8c84818110610bf657610bf5611eba565b5b9050602002016020810190610c0b9190611f6f565b82604051610c1a92919061205c565b60405180910390a15b505b8080610c3090612085565b915050610457565b50505050505050505050505050565b610c4f611211565b610c5960006114b3565b565b610c63611211565b806002819055507f5091ccfe22ca8f99d8f1f07c6ae3a61daf990d74ef229d46898624ff3977238c600254604051610c9b9190611598565b60405180910390a150565b60008060009054906101000a900473ffffffffffffffffffffffffffffffffffffffff16905090565b60035481565b60008073ffffffffffffffffffffffffffffffffffffffff168573ffffffffffffffffffffffffffffffffffffffff161415610d46576040517f08c379a0000000000000000000000000000000000000000000000000000000008152600401610d3d9061211a565b60405180910390fd5b60008773ffffffffffffffffffffffffffffffffffffffff166370a08231306040518263ffffffff1660e01b8152600401610d819190611a64565b60206040518083038186803b158015610d9957600080fd5b505afa158015610dad573d6000803e3d6000fd5b505050506040513d601f19601f82011682018060405250810190610dd1919061214f565b90508673ffffffffffffffffffffffffffffffffffffffff1663095ea7b3876fffffffffffffffffffffffffffffffff6040518363ffffffff1660e01b8152600401610e1e9291906121c9565b602060405180830381600087803b158015610e3857600080fd5b505af1158015610e4c573d6000803e3d6000fd5b505050506040513d601f19601f82011682018060405250810190610e70919061222a565b610eaf576040517f08c379a0000000000000000000000000000000000000000000000000000000008152600401610ea6906122a3565b60405180910390fd5b60008573ffffffffffffffffffffffffffffffffffffffff1660008686604051610eda929190612302565b60006040518083038185875af1925050503d8060008114610f17576040519150601f19603f3d011682016040523d82523d6000602084013e610f1c565b606091505b505090507fb1bbdf0cbdd013d8d322184c42c16dafe4b2b3b66c3d60f46874b6c78b9a87f68183604051610f5192919061232a565b60405180910390a180610f99576040517f08c379a0000000000000000000000000000000000000000000000000000000008152600401610f909061239f565b60405180910390fd5b818973ffffffffffffffffffffffffffffffffffffffff166370a08231306040518263ffffffff1660e01b8152600401610fd39190611a64565b60206040518083038186803b158015610feb57600080fd5b505afa158015610fff573d6000803e3d6000fd5b505050506040513d601f19601f82011682018060405250810190611023919061214f565b61102d9190611f12565b91507f74496fce2cdc392d99808924e4161c005195a64fee4c166b02c2b716db28abb08260405161105e9190611598565b60405180910390a181925050509695505050505050565b7f000000000000000000000000000000000000000000000000000000000000000081565b6110a1611211565b3373ffffffffffffffffffffffffffffffffffffffff166108fc829081150290604051600060405180830381858888f193505050501580156110e7573d6000803e3d6000fd5b5050565b6110f3611211565b600073ffffffffffffffffffffffffffffffffffffffff168173ffffffffffffffffffffffffffffffffffffffff161415611163576040517f08c379a000000000000000000000000000000000000000000000000000000000815260040161115a90612431565b60405180910390fd5b61116c816114b3565b50565b611177611211565b8173ffffffffffffffffffffffffffffffffffffffff1663a9059cbb33836040518363ffffffff1660e01b81526004016111b2929190612451565b602060405180830381600087803b1580156111cc57600080fd5b505af11580156111e0573d6000803e3d6000fd5b505050506040513d601f19601f82011682018060405250810190611204919061222a565b61120d57600080fd5b5050565b611219611577565b73ffffffffffffffffffffffffffffffffffffffff16611237610ca6565b73ffffffffffffffffffffffffffffffffffffffff161461128d576040517f08c379a0000000000000000000000000000000000000000000000000000000008152600401611284906124c6565b60405180910390fd5b565b600033905090565b8073ffffffffffffffffffffffffffffffffffffffff166108fc839081150290604051600060405180830381858888f193505050501580156112dd573d6000803e3d6000fd5b505050565b8173ffffffffffffffffffffffffffffffffffffffff1663a9059cbb33836040518363ffffffff1660e01b815260040161131d929190612451565b602060405180830381600087803b15801561133757600080fd5b505af115801561134b573d6000803e3d6000fd5b505050506040513d601f19601f8201168201806040525081019061136f919061222a565b61137857600080fd5b5050565b8173ffffffffffffffffffffffffffffffffffffffff166323b872dd3330846040518463ffffffff1660e01b81526004016113b9939291906124e6565b602060405180830381600087803b1580156113d357600080fd5b505af11580156113e7573d6000803e3d6000fd5b505050506040513d601f19601f8201168201806040525081019061140b919061222a565b61144a576040517f08c379a00000000000000000000000000000000000000000000000000000000081526004016114419061239f565b60405180910390fd5b3073ffffffffffffffffffffffffffffffffffffffff163373ffffffffffffffffffffffffffffffffffffffff167fd6d3eb25a413c05d8107fc49deb2789bef7f612582b2482804c0b0423b6638ee836040516114a79190611598565b60405180910390a35050565b60008060009054906101000a900473ffffffffffffffffffffffffffffffffffffffff169050816000806101000a81548173ffffffffffffffffffffffffffffffffffffffff021916908373ffffffffffffffffffffffffffffffffffffffff1602179055508173ffffffffffffffffffffffffffffffffffffffff168173ffffffffffffffffffffffffffffffffffffffff167f8be0079c531659141344cd1fd0a4f28419497f9722a3daafe3b4186f6b6457e060405160405180910390a35050565b600033905090565b6000819050919050565b6115928161157f565b82525050565b60006020820190506115ad6000830184611589565b92915050565b6000604051905090565b600080fd5b600080fd5b6115d08161157f565b81146115db57600080fd5b50565b6000813590506115ed816115c7565b92915050565b600060208284031215611609576116086115bd565b5b6000611617848285016115de565b91505092915050565b600080fd5b600080fd5b600080fd5b60008083601f84011261164557611644611620565b5b8235905067ffffffffffffffff81111561166257611661611625565b5b60208301915083602082028301111561167e5761167d61162a565b5b9250929050565b60008083601f84011261169b5761169a611620565b5b8235905067ffffffffffffffff8111156116b8576116b7611625565b5b6020830191508360208202830111156116d4576116d361162a565b5b9250929050565b60008083601f8401126116f1576116f0611620565b5b8235905067ffffffffffffffff81111561170e5761170d611625565b5b60208301915083602082028301111561172a5761172961162a565b5b9250929050565b60008083601f84011261174757611746611620565b5b8235905067ffffffffffffffff81111561176457611763611625565b5b6020830191508360208202830111156117805761177f61162a565b5b9250929050565b6000601f19601f8301169050919050565b7f4e487b7100000000000000000000000000000000000000000000000000000000600052604160045260246000fd5b6117d082611787565b810181811067ffffffffffffffff821117156117ef576117ee611798565b5b80604052505050565b60006118026115b3565b905061180e82826117c7565b919050565b600067ffffffffffffffff82111561182e5761182d611798565b5b602082029050602081019050919050565b600061185261184d84611813565b6117f8565b905080838252602082019050602084028301858111156118755761187461162a565b5b835b8181101561189e578061188a88826115de565b845260208401935050602081019050611877565b5050509392505050565b600082601f8301126118bd576118bc611620565b5b81356118cd84826020860161183f565b91505092915050565b600080600080600080600080600080600060c08c8e0312156118fb576118fa6115bd565b5b60008c013567ffffffffffffffff811115611919576119186115c2565b5b6119258e828f0161162f565b9b509b505060208c013567ffffffffffffffff811115611948576119476115c2565b5b6119548e828f0161162f565b995099505060408c013567ffffffffffffffff811115611977576119766115c2565b5b6119838e828f01611685565b975097505060608c013567ffffffffffffffff8111156119a6576119a56115c2565b5b6119b28e828f016116db565b955095505060808c013567ffffffffffffffff8111156119d5576119d46115c2565b5b6119e18e828f01611731565b935093505060a08c013567ffffffffffffffff811115611a0457611a036115c2565b5b611a108e828f016118a8565b9150509295989b509295989b9093969950565b600073ffffffffffffffffffffffffffffffffffffffff82169050919050565b6000611a4e82611a23565b9050919050565b611a5e81611a43565b82525050565b6000602082019050611a796000830184611a55565b92915050565b6000611a8a82611a43565b9050919050565b611a9a81611a7f565b8114611aa557600080fd5b50565b600081359050611ab781611a91565b92915050565b611ac681611a43565b8114611ad157600080fd5b50565b600081359050611ae381611abd565b92915050565b6000611af482611a23565b9050919050565b611b0481611ae9565b8114611b0f57600080fd5b50565b600081359050611b2181611afb565b92915050565b60008083601f840112611b3d57611b3c611620565b5b8235905067ffffffffffffffff811115611b5a57611b59611625565b5b602083019150836001820283011115611b7657611b7561162a565b5b9250929050565b60008060008060008060a08789031215611b9a57611b996115bd565b5b6000611ba889828a01611aa8565b9650506020611bb989828a01611aa8565b9550506040611bca89828a01611ad4565b9450506060611bdb89828a01611b12565b935050608087013567ffffffffffffffff811115611bfc57611bfb6115c2565b5b611c0889828a01611b27565b92509250509295509295509295565b6000819050919050565b6000611c3c611c37611c3284611a23565b611c17565b611a23565b9050919050565b6000611c4e82611c21565b9050919050565b6000611c6082611c43565b9050919050565b611c7081611c55565b82525050565b6000602082019050611c8b6000830184611c67565b92915050565b600060208284031215611ca757611ca66115bd565b5b6000611cb584828501611ad4565b91505092915050565b60008060408385031215611cd557611cd46115bd565b5b6000611ce385828601611aa8565b9250506020611cf4858286016115de565b9150509250929050565b600082825260208201905092915050565b7f506c656173652070726f766964652076616c6964206461746100000000000000600082015250565b6000611d45601983611cfe565b9150611d5082611d0f565b602082019050919050565b60006020820190508181036000830152611d7481611d38565b9050919050565b7f4e487b7100000000000000000000000000000000000000000000000000000000600052601160045260246000fd5b6000611db58261157f565b9150611dc08361157f565b9250827fffffffffffffffffffffffffffffffffffffffffffffffffffffffffffffffff03821115611df557611df4611d7b565b5b828201905092915050565b6000611e0b8261157f565b9150611e168361157f565b9250817fffffffffffffffffffffffffffffffffffffffffffffffffffffffffffffffff0483118215151615611e4f57611e4e611d7b565b5b828202905092915050565b7f4e487b7100000000000000000000000000000000000000000000000000000000600052601260045260246000fd5b6000611e948261157f565b9150611e9f8361157f565b925082611eaf57611eae611e5a565b5b828204905092915050565b7f4e487b7100000000000000000000000000000000000000000000000000000000600052603260045260246000fd5b6000604082019050611efe6000830185611589565b611f0b6020830184611589565b9392505050565b6000611f1d8261157f565b9150611f288361157f565b925082821015611f3b57611f3a611d7b565b5b828203905092915050565b6000604082019050611f5b6000830185611c67565b611f686020830184611589565b9392505050565b600060208284031215611f8557611f846115bd565b5b6000611f9384828501611aa8565b91505092915050565b600060208284031215611fb257611fb16115bd565b5b6000611fc084828501611b12565b91505092915050565b600080fd5b600080fd5b600080fd5b60008083356001602003843603038112611ff557611ff4611fc9565b5b80840192508235915067ffffffffffffffff82111561201757612016611fce565b5b60208301925060018202360383131561203357612032611fd3565b5b509250929050565b600061204682611c43565b9050919050565b6120568161203b565b82525050565b6000604082019050612071600083018561204d565b61207e6020830184611589565b9392505050565b60006120908261157f565b91507fffffffffffffffffffffffffffffffffffffffffffffffffffffffffffffffff8214156120c3576120c2611d7b565b5b600182019050919050565b7f506c656173652070726f7669646520612076616c696420616464726573730000600082015250565b6000612104601e83611cfe565b915061210f826120ce565b602082019050919050565b60006020820190508181036000830152612133816120f7565b9050919050565b600081519050612149816115c7565b92915050565b600060208284031215612165576121646115bd565b5b60006121738482850161213a565b91505092915050565b60006fffffffffffffffffffffffffffffffff82169050919050565b60006121b36121ae6121a98461217c565b611c17565b61157f565b9050919050565b6121c381612198565b82525050565b60006040820190506121de6000830185611a55565b6121eb60208301846121ba565b9392505050565b60008115159050919050565b612207816121f2565b811461221257600080fd5b50565b600081519050612224816121fe565b92915050565b6000602082840312156122405761223f6115bd565b5b600061224e84828501612215565b91505092915050565b7f313332204552524f520000000000000000000000000000000000000000000000600082015250565b600061228d600983611cfe565b915061229882612257565b602082019050919050565b600060208201905081810360008301526122bc81612280565b9050919050565b600081905092915050565b82818337600083830152505050565b60006122e983856122c3565b93506122f68385846122ce565b82840190509392505050565b600061230f8284866122dd565b91508190509392505050565b612324816121f2565b82525050565b600060408201905061233f600083018561231b565b61234c6020830184611589565b9392505050565b7f535741505f43414c4c5f4641494c454400000000000000000000000000000000600082015250565b6000612389601083611cfe565b915061239482612353565b602082019050919050565b600060208201905081810360008301526123b88161237c565b9050919050565b7f4f776e61626c653a206e6577206f776e657220697320746865207a65726f206160008201527f6464726573730000000000000000000000000000000000000000000000000000602082015250565b600061241b602683611cfe565b9150612426826123bf565b604082019050919050565b6000602082019050818103600083015261244a8161240e565b9050919050565b60006040820190506124666000830185611a55565b6124736020830184611589565b9392505050565b7f4f776e61626c653a2063616c6c6572206973206e6f7420746865206f776e6572600082015250565b60006124b0602083611cfe565b91506124bb8261247a565b602082019050919050565b600060208201905081810360008301526124df816124a3565b9050919050565b60006060820190506124fb6000830186611a55565b6125086020830185611a55565b6125156040830184611589565b94935050505056fea2646970667358221220142cab93c24ead8f1ef2c6c962e98130466b502710d8479059b7fea6d1744d5c64736f6c63430008080033",
  "linkReferences": {},
  "deployedLinkReferences": {}
}