{
  "_format": "hh-sol-artifact-1",
  "contractName": "AlphaVaultSwap",
  "sourceName": "contracts/AlphaVault.sol",
  "abi": [
    {
      "inputs": [],
      "stateMutability": "nonpayable",
      "type": "constructor"
    },
    {
      "anonymous": false,
      "inputs": [
        {
          "indexed": false,
          "internalType": "uint256",
          "name": "wethBal_",
          "type": "uint256"
        },
        {
          "indexed": false,
          "internalType": "uint256",
          "name": "reqAmount_",
          "type": "uint256"
        }
      ],
      "name": "BadRequest",
      "type": "event"
    },
    {
      "anonymous": false,
      "inputs": [
        {
          "indexed": false,
          "internalType": "uint256",
          "name": "wethBal_",
          "type": "uint256"
        }
      ],
      "name": "EtherBalanceChange",
      "type": "event"
    },
    {
      "anonymous": false,
      "inputs": [
        {
          "indexed": true,
          "internalType": "address",
          "name": "previousOwner",
          "type": "address"
        },
        {
          "indexed": true,
          "internalType": "address",
          "name": "newOwner",
          "type": "address"
        }
      ],
      "name": "OwnershipTransferred",
      "type": "event"
    },
    {
      "anonymous": false,
      "inputs": [
        {
          "indexed": true,
          "internalType": "address",
          "name": "from_",
          "type": "address"
        },
        {
          "indexed": true,
          "internalType": "address",
          "name": "to_",
          "type": "address"
        },
        {
          "indexed": false,
          "internalType": "uint256",
          "name": "amount_",
          "type": "uint256"
        }
      ],
      "name": "TransferSuccessful",
      "type": "event"
    },
    {
      "anonymous": false,
      "inputs": [
        {
          "indexed": false,
          "internalType": "contract IERC20",
          "name": "buyToken",
          "type": "address"
        },
        {
          "indexed": false,
          "internalType": "uint256",
          "name": "boughtAmount_",
          "type": "uint256"
        }
      ],
      "name": "WithdrawTokens",
      "type": "event"
    },
    {
      "anonymous": false,
      "inputs": [
        {
          "indexed": false,
          "internalType": "bool",
          "name": "status",
          "type": "bool"
        },
        {
          "indexed": false,
          "internalType": "uint256",
          "name": "initialBuyTokenBalance",
          "type": "uint256"
        }
      ],
      "name": "ZeroXCallSuccess",
      "type": "event"
    },
    {
      "anonymous": false,
      "inputs": [
        {
          "indexed": false,
          "internalType": "uint256",
          "name": "buTokenAmount",
          "type": "uint256"
        }
      ],
      "name": "buyTokenBought",
      "type": "event"
    },
    {
      "anonymous": false,
      "inputs": [
        {
          "indexed": false,
          "internalType": "uint256",
          "name": "feePercentage",
          "type": "uint256"
        }
      ],
      "name": "feePercentageChange",
      "type": "event"
    },
    {
      "anonymous": false,
      "inputs": [
        {
          "indexed": false,
          "internalType": "uint256",
          "name": "maxTransactions",
          "type": "uint256"
        }
      ],
      "name": "maxTransactionsChange",
      "type": "event"
    },
    {
      "stateMutability": "payable",
      "type": "fallback"
    },
    {
      "inputs": [],
      "name": "WETH",
      "outputs": [
        {
          "internalType": "contract IWETH",
          "name": "",
          "type": "address"
        }
      ],
      "stateMutability": "view",
      "type": "function"
    },
    {
      "inputs": [],
      "name": "feePercentage",
      "outputs": [
        {
          "internalType": "uint256",
          "name": "",
          "type": "uint256"
        }
      ],
      "stateMutability": "view",
      "type": "function"
    },
    {
      "inputs": [
        {
          "internalType": "contract IERC20",
          "name": "buyToken",
          "type": "address"
        },
        {
          "internalType": "contract IERC20",
          "name": "sellToken",
          "type": "address"
        },
        {
          "internalType": "address",
          "name": "spender",
          "type": "address"
        },
        {
          "internalType": "address payable",
          "name": "swapTarget",
          "type": "address"
        },
        {
          "internalType": "bytes",
          "name": "swapCallData",
          "type": "bytes"
        }
      ],
      "name": "fillQuote",
      "outputs": [
        {
          "internalType": "uint256",
          "name": "",
          "type": "uint256"
        }
      ],
      "stateMutability": "payable",
      "type": "function"
    },
    {
      "inputs": [],
      "name": "maxTransactions",
      "outputs": [
        {
          "internalType": "uint256",
          "name": "",
          "type": "uint256"
        }
      ],
      "stateMutability": "view",
      "type": "function"
    },
    {
      "inputs": [
        {
          "internalType": "contract IERC20[]",
          "name": "sellToken",
          "type": "address[]"
        },
        {
          "internalType": "contract IERC20[]",
          "name": "buyToken",
          "type": "address[]"
        },
        {
          "internalType": "address[]",
          "name": "spender",
          "type": "address[]"
        },
        {
          "internalType": "address payable[]",
          "name": "swapTarget",
          "type": "address[]"
        },
        {
          "internalType": "bytes[]",
          "name": "swapCallData",
          "type": "bytes[]"
        },
        {
          "internalType": "uint256[]",
          "name": "amount",
          "type": "uint256[]"
        }
      ],
      "name": "multiSwap",
      "outputs": [],
      "stateMutability": "payable",
      "type": "function"
    },
    {
      "inputs": [],
      "name": "owner",
      "outputs": [
        {
          "internalType": "address",
          "name": "",
          "type": "address"
        }
      ],
      "stateMutability": "view",
      "type": "function"
    },
    {
      "inputs": [],
      "name": "renounceOwnership",
      "outputs": [],
      "stateMutability": "nonpayable",
      "type": "function"
    },
    {
      "inputs": [
        {
          "internalType": "uint256",
          "name": "num",
          "type": "uint256"
        }
      ],
      "name": "setMaxTransactionLimit",
      "outputs": [],
      "stateMutability": "nonpayable",
      "type": "function"
    },
    {
      "inputs": [
        {
          "internalType": "uint256",
          "name": "num",
          "type": "uint256"
        }
      ],
      "name": "setfeePercentage",
      "outputs": [],
      "stateMutability": "nonpayable",
      "type": "function"
    },
    {
      "inputs": [
        {
          "internalType": "address",
          "name": "newOwner",
          "type": "address"
        }
      ],
      "name": "transferOwnership",
      "outputs": [],
      "stateMutability": "nonpayable",
      "type": "function"
    },
    {
      "inputs": [
        {
          "internalType": "uint256",
          "name": "amount",
          "type": "uint256"
        }
      ],
      "name": "withdrawETH",
      "outputs": [],
      "stateMutability": "nonpayable",
      "type": "function"
    },
    {
      "inputs": [
        {
          "internalType": "contract IERC20",
          "name": "token",
          "type": "address"
        },
        {
          "internalType": "uint256",
          "name": "amount",
          "type": "uint256"
        }
      ],
      "name": "withdrawFee",
      "outputs": [],
      "stateMutability": "nonpayable",
      "type": "function"
    },
    {
      "stateMutability": "payable",
      "type": "receive"
    }
  ],
  "bytecode": "0x60a06040523480156200001157600080fd5b5062000032620000266200009360201b60201c565b6200009b60201b60201c565b73bb4cdb9cbd36b01bd1cbaebf2de08d9173bc095c73ffffffffffffffffffffffffffffffffffffffff1660808173ffffffffffffffffffffffffffffffffffffffff1660601b81525050601960028190555060056003819055506200015f565b600033905090565b60008060009054906101000a900473ffffffffffffffffffffffffffffffffffffffff169050816000806101000a81548173ffffffffffffffffffffffffffffffffffffffff021916908373ffffffffffffffffffffffffffffffffffffffff1602179055508173ffffffffffffffffffffffffffffffffffffffff168173ffffffffffffffffffffffffffffffffffffffff167f8be0079c531659141344cd1fd0a4f28419497f9722a3daafe3b4186f6b6457e060405160405180910390a35050565b60805160601c6127b2620001a860003960008181610368015281816105590152818161068c0152818161070f0152818161074d01528181610bb0015261115901526127b26000f3fe6080604052600436106100ab5760003560e01c8063a001ecdd11610064578063a001ecdd1461018f578063ab971612146101ba578063ad5c4648146101ea578063f14210a614610215578063f2fde38b1461023e578063fd9be52214610267576100b2565b806324e1c18d146100b457806339ab835a146100df5780636ca591a714610108578063715018a6146101245780637a9d7c141461013b5780638da5cb5b14610164576100b2565b366100b257005b005b3480156100c057600080fd5b506100c9610290565b6040516100d69190611742565b60405180910390f35b3480156100eb57600080fd5b506101066004803603810190610101919061179d565b610296565b005b610122600480360381019061011d9190611a80565b6102e1565b005b34801561013057600080fd5b50610139610d29565b005b34801561014757600080fd5b50610162600480360381019061015d919061179d565b610d3d565b005b34801561017057600080fd5b50610179610d88565b6040516101869190611c0e565b60405180910390f35b34801561019b57600080fd5b506101a4610db1565b6040516101b19190611742565b60405180910390f35b6101d460048036038101906101cf9190611d27565b610db7565b6040516101e19190611742565b60405180910390f35b3480156101f657600080fd5b506101ff611157565b60405161020c9190611e20565b60405180910390f35b34801561022157600080fd5b5061023c6004803603810190610237919061179d565b61117b565b005b34801561024a57600080fd5b5061026560048036038101906102609190611e3b565b6111cd565b005b34801561027357600080fd5b5061028e60048036038101906102899190611e68565b611251565b005b60025481565b61029e6112f3565b806003819055507f15ac3285479f3f0bc4fb97f40770e5596d6bd3a4c27bb4bf29a7ab8f841652786003546040516102d69190611742565b60405180910390a150565b6002548b8b9050111580156102fb5750888890508b8b9050145b801561030c57508888905087879050145b801561031d57508686905085859050145b61035c576040517f08c379a000000000000000000000000000000000000000000000000000000000815260040161035390611f05565b60405180910390fd5b600080341115610447577f000000000000000000000000000000000000000000000000000000000000000073ffffffffffffffffffffffffffffffffffffffff1663d0e30db0346040518263ffffffff1660e01b81526004016000604051808303818588803b1580156103ce57600080fd5b505af11580156103e2573d6000803e3d6000fd5b505050505060035460646103f69190611f54565b6064346104039190611faa565b61040d9190612033565b90507f59e3c56b3739d587caa0270fae7c28e1b6a1af555395ad122400ff97d48fed168160405161043e9190611742565b60405180910390a15b60005b88889050811015610d1a57600073ffffffffffffffffffffffffffffffffffffffff168989838181106104805761047f612064565b5b90506020020160208101906104959190611e3b565b73ffffffffffffffffffffffffffffffffffffffff16141561074b576000821115610746578281815181106104cd576104cc612064565b5b6020026020010151821015610534577f0b74b0798ec89f7cf91b1446e01c1bb75b7d55c45b104edfb364a46a074e2f568284838151811061051157610510612064565b5b6020026020010151604051610527929190612093565b60405180910390a1610d1a565b600083828151811061054957610548612064565b5b60200260200101511115610687577f000000000000000000000000000000000000000000000000000000000000000073ffffffffffffffffffffffffffffffffffffffff16632e1a7d4d8483815181106105a6576105a5612064565b5b60200260200101516040518263ffffffff1660e01b81526004016105ca9190611742565b600060405180830381600087803b1580156105e457600080fd5b505af11580156105f8573d6000803e3d6000fd5b5050505082818151811061060f5761060e612064565b5b60200260200101518261062291906120bc565b915061064f83828151811061063a57610639612064565b5b602002602001015161064a611371565b611379565b7f59e3c56b3739d587caa0270fae7c28e1b6a1af555395ad122400ff97d48fed168260405161067e9190611742565b60405180910390a15b6106b17f0000000000000000000000000000000000000000000000000000000000000000836113c4565b600091507f59e3c56b3739d587caa0270fae7c28e1b6a1af555395ad122400ff97d48fed16826040516106e49190611742565b60405180910390a17f680f2e4f4032ebf1774e8cdbaddcb1b617a5a606411c8ca96257ada338d3833c7f00000000000000000000000000000000000000000000000000000000000000008360405161073d9291906120f0565b60405180910390a15b610d1a565b7f000000000000000000000000000000000000000000000000000000000000000073ffffffffffffffffffffffffffffffffffffffff168d8d8381811061079557610794612064565b5b90506020020160208101906107aa9190612119565b73ffffffffffffffffffffffffffffffffffffffff1614156109a2578a8a828181106107d9576107d8612064565b5b90506020020160208101906107ee9190612119565b73ffffffffffffffffffffffffffffffffffffffff168d8d8381811061081757610816612064565b5b905060200201602081019061082c9190612119565b73ffffffffffffffffffffffffffffffffffffffff16141561091c576108938d8d8381811061085e5761085d612064565b5b90506020020160208101906108739190612119565b84838151811061088657610885612064565b5b602002602001015161145e565b60035460646108a29190611f54565b60648483815181106108b7576108b6612064565b5b60200260200101516108c99190611faa565b6108d39190612033565b826108de9190611f54565b91507f59e3c56b3739d587caa0270fae7c28e1b6a1af555395ad122400ff97d48fed168260405161090f9190611742565b60405180910390a1610d07565b82818151811061092f5761092e612064565b5b60200260200101518210610966578281815181106109505761094f612064565b5b60200260200101518261096391906120bc565b91505b7f59e3c56b3739d587caa0270fae7c28e1b6a1af555395ad122400ff97d48fed16826040516109959190611742565b60405180910390a16109ee565b6109ed8d8d838181106109b8576109b7612064565b5b90506020020160208101906109cd9190612119565b8483815181106109e0576109df612064565b5b602002602001015161145e565b5b6000610abd8c8c84818110610a0657610a05612064565b5b9050602002016020810190610a1b9190612119565b8f8f85818110610a2e57610a2d612064565b5b9050602002016020810190610a439190612119565b8c8c86818110610a5657610a55612064565b5b9050602002016020810190610a6b9190611e3b565b8b8b87818110610a7e57610a7d612064565b5b9050602002016020810190610a939190612146565b8a8a88818110610aa657610aa5612064565b5b9050602002810190610ab89190612182565b610db7565b9050610bae6040518060400160405280601581526020017f626f7567687420616d6f756e742d2d2d2d2d2d2d3e0000000000000000000000815250828e8e86818110610b0c57610b0b612064565b5b9050602002016020810190610b219190612119565b73ffffffffffffffffffffffffffffffffffffffff166370a08231306040518263ffffffff1660e01b8152600401610b599190611c0e565b60206040518083038186803b158015610b7157600080fd5b505afa158015610b85573d6000803e3d6000fd5b505050506040513d601f19601f82011682018060405250810190610ba991906121fa565b611595565b7f000000000000000000000000000000000000000000000000000000000000000073ffffffffffffffffffffffffffffffffffffffff168c8c84818110610bf857610bf7612064565b5b9050602002016020810190610c0d9190612119565b73ffffffffffffffffffffffffffffffffffffffff161415610c73578083610c359190611f54565b92507f59e3c56b3739d587caa0270fae7c28e1b6a1af555395ad122400ff97d48fed1683604051610c669190611742565b60405180910390a1610d05565b610ca48c8c84818110610c8957610c88612064565b5b9050602002016020810190610c9e9190612119565b826113c4565b7f680f2e4f4032ebf1774e8cdbaddcb1b617a5a606411c8ca96257ada338d3833c8c8c84818110610cd857610cd7612064565b5b9050602002016020810190610ced9190612119565b82604051610cfc929190612248565b60405180910390a15b505b8080610d1290612271565b91505061044a565b50505050505050505050505050565b610d316112f3565b610d3b6000611634565b565b610d456112f3565b806002819055507f5091ccfe22ca8f99d8f1f07c6ae3a61daf990d74ef229d46898624ff3977238c600254604051610d7d9190611742565b60405180910390a150565b60008060009054906101000a900473ffffffffffffffffffffffffffffffffffffffff16905090565b60035481565b60008073ffffffffffffffffffffffffffffffffffffffff168573ffffffffffffffffffffffffffffffffffffffff161415610e28576040517f08c379a0000000000000000000000000000000000000000000000000000000008152600401610e1f90612306565b60405180910390fd5b60008773ffffffffffffffffffffffffffffffffffffffff166370a08231306040518263ffffffff1660e01b8152600401610e639190611c0e565b60206040518083038186803b158015610e7b57600080fd5b505afa158015610e8f573d6000803e3d6000fd5b505050506040513d601f19601f82011682018060405250810190610eb391906121fa565b90508673ffffffffffffffffffffffffffffffffffffffff1663095ea7b3876fffffffffffffffffffffffffffffffff6040518363ffffffff1660e01b8152600401610f00929190612373565b602060405180830381600087803b158015610f1a57600080fd5b505af1158015610f2e573d6000803e3d6000fd5b505050506040513d601f19601f82011682018060405250810190610f5291906123d4565b610f91576040517f08c379a0000000000000000000000000000000000000000000000000000000008152600401610f889061244d565b60405180910390fd5b60008573ffffffffffffffffffffffffffffffffffffffff1660008686604051610fbc9291906124ac565b60006040518083038185875af1925050503d8060008114610ff9576040519150601f19603f3d011682016040523d82523d6000602084013e610ffe565b606091505b505090507fb1bbdf0cbdd013d8d322184c42c16dafe4b2b3b66c3d60f46874b6c78b9a87f681836040516110339291906124d4565b60405180910390a18061107b576040517f08c379a000000000000000000000000000000000000000000000000000000000815260040161107290612549565b60405180910390fd5b818973ffffffffffffffffffffffffffffffffffffffff166370a08231306040518263ffffffff1660e01b81526004016110b59190611c0e565b60206040518083038186803b1580156110cd57600080fd5b505afa1580156110e1573d6000803e3d6000fd5b505050506040513d601f19601f8201168201806040525081019061110591906121fa565b61110f91906120bc565b91507f74496fce2cdc392d99808924e4161c005195a64fee4c166b02c2b716db28abb0826040516111409190611742565b60405180910390a181925050509695505050505050565b7f000000000000000000000000000000000000000000000000000000000000000081565b6111836112f3565b3373ffffffffffffffffffffffffffffffffffffffff166108fc829081150290604051600060405180830381858888f193505050501580156111c9573d6000803e3d6000fd5b5050565b6111d56112f3565b600073ffffffffffffffffffffffffffffffffffffffff168173ffffffffffffffffffffffffffffffffffffffff161415611245576040517f08c379a000000000000000000000000000000000000000000000000000000000815260040161123c906125db565b60405180910390fd5b61124e81611634565b50565b6112596112f3565b8173ffffffffffffffffffffffffffffffffffffffff1663a9059cbb33836040518363ffffffff1660e01b81526004016112949291906125fb565b602060405180830381600087803b1580156112ae57600080fd5b505af11580156112c2573d6000803e3d6000fd5b505050506040513d601f19601f820116820180604052508101906112e691906123d4565b6112ef57600080fd5b5050565b6112fb6116f8565b73ffffffffffffffffffffffffffffffffffffffff16611319610d88565b73ffffffffffffffffffffffffffffffffffffffff161461136f576040517f08c379a000000000000000000000000000000000000000000000000000000000815260040161136690612670565b60405180910390fd5b565b600033905090565b8073ffffffffffffffffffffffffffffffffffffffff166108fc839081150290604051600060405180830381858888f193505050501580156113bf573d6000803e3d6000fd5b505050565b8173ffffffffffffffffffffffffffffffffffffffff1663a9059cbb33836040518363ffffffff1660e01b81526004016113ff9291906125fb565b602060405180830381600087803b15801561141957600080fd5b505af115801561142d573d6000803e3d6000fd5b505050506040513d601f19601f8201168201806040525081019061145191906123d4565b61145a57600080fd5b5050565b8173ffffffffffffffffffffffffffffffffffffffff166323b872dd3330846040518463ffffffff1660e01b815260040161149b93929190612690565b602060405180830381600087803b1580156114b557600080fd5b505af11580156114c9573d6000803e3d6000fd5b505050506040513d601f19601f820116820180604052508101906114ed91906123d4565b61152c576040517f08c379a000000000000000000000000000000000000000000000000000000000815260040161152390612549565b60405180910390fd5b3073ffffffffffffffffffffffffffffffffffffffff163373ffffffffffffffffffffffffffffffffffffffff167fd6d3eb25a413c05d8107fc49deb2789bef7f612582b2482804c0b0423b6638ee836040516115899190611742565b60405180910390a35050565b61162f8383836040516024016115ad9392919061273e565b6040516020818303038152906040527fca47c4eb000000000000000000000000000000000000000000000000000000007bffffffffffffffffffffffffffffffffffffffffffffffffffffffff19166020820180517bffffffffffffffffffffffffffffffffffffffffffffffffffffffff8381831617835250505050611700565b505050565b60008060009054906101000a900473ffffffffffffffffffffffffffffffffffffffff169050816000806101000a81548173ffffffffffffffffffffffffffffffffffffffff021916908373ffffffffffffffffffffffffffffffffffffffff1602179055508173ffffffffffffffffffffffffffffffffffffffff168173ffffffffffffffffffffffffffffffffffffffff167f8be0079c531659141344cd1fd0a4f28419497f9722a3daafe3b4186f6b6457e060405160405180910390a35050565b600033905090565b60008151905060006a636f6e736f6c652e6c6f679050602083016000808483855afa5050505050565b6000819050919050565b61173c81611729565b82525050565b60006020820190506117576000830184611733565b92915050565b6000604051905090565b600080fd5b600080fd5b61177a81611729565b811461178557600080fd5b50565b60008135905061179781611771565b92915050565b6000602082840312156117b3576117b2611767565b5b60006117c184828501611788565b91505092915050565b600080fd5b600080fd5b600080fd5b60008083601f8401126117ef576117ee6117ca565b5b8235905067ffffffffffffffff81111561180c5761180b6117cf565b5b602083019150836020820283011115611828576118276117d4565b5b9250929050565b60008083601f840112611845576118446117ca565b5b8235905067ffffffffffffffff811115611862576118616117cf565b5b60208301915083602082028301111561187e5761187d6117d4565b5b9250929050565b60008083601f84011261189b5761189a6117ca565b5b8235905067ffffffffffffffff8111156118b8576118b76117cf565b5b6020830191508360208202830111156118d4576118d36117d4565b5b9250929050565b60008083601f8401126118f1576118f06117ca565b5b8235905067ffffffffffffffff81111561190e5761190d6117cf565b5b60208301915083602082028301111561192a576119296117d4565b5b9250929050565b6000601f19601f8301169050919050565b7f4e487b7100000000000000000000000000000000000000000000000000000000600052604160045260246000fd5b61197a82611931565b810181811067ffffffffffffffff8211171561199957611998611942565b5b80604052505050565b60006119ac61175d565b90506119b88282611971565b919050565b600067ffffffffffffffff8211156119d8576119d7611942565b5b602082029050602081019050919050565b60006119fc6119f7846119bd565b6119a2565b90508083825260208201905060208402830185811115611a1f57611a1e6117d4565b5b835b81811015611a485780611a348882611788565b845260208401935050602081019050611a21565b5050509392505050565b600082601f830112611a6757611a666117ca565b5b8135611a778482602086016119e9565b91505092915050565b600080600080600080600080600080600060c08c8e031215611aa557611aa4611767565b5b60008c013567ffffffffffffffff811115611ac357611ac261176c565b5b611acf8e828f016117d9565b9b509b505060208c013567ffffffffffffffff811115611af257611af161176c565b5b611afe8e828f016117d9565b995099505060408c013567ffffffffffffffff811115611b2157611b2061176c565b5b611b2d8e828f0161182f565b975097505060608c013567ffffffffffffffff811115611b5057611b4f61176c565b5b611b5c8e828f01611885565b955095505060808c013567ffffffffffffffff811115611b7f57611b7e61176c565b5b611b8b8e828f016118db565b935093505060a08c013567ffffffffffffffff811115611bae57611bad61176c565b5b611bba8e828f01611a52565b9150509295989b509295989b9093969950565b600073ffffffffffffffffffffffffffffffffffffffff82169050919050565b6000611bf882611bcd565b9050919050565b611c0881611bed565b82525050565b6000602082019050611c236000830184611bff565b92915050565b6000611c3482611bed565b9050919050565b611c4481611c29565b8114611c4f57600080fd5b50565b600081359050611c6181611c3b565b92915050565b611c7081611bed565b8114611c7b57600080fd5b50565b600081359050611c8d81611c67565b92915050565b6000611c9e82611bcd565b9050919050565b611cae81611c93565b8114611cb957600080fd5b50565b600081359050611ccb81611ca5565b92915050565b60008083601f840112611ce757611ce66117ca565b5b8235905067ffffffffffffffff811115611d0457611d036117cf565b5b602083019150836001820283011115611d2057611d1f6117d4565b5b9250929050565b60008060008060008060a08789031215611d4457611d43611767565b5b6000611d5289828a01611c52565b9650506020611d6389828a01611c52565b9550506040611d7489828a01611c7e565b9450506060611d8589828a01611cbc565b935050608087013567ffffffffffffffff811115611da657611da561176c565b5b611db289828a01611cd1565b92509250509295509295509295565b6000819050919050565b6000611de6611de1611ddc84611bcd565b611dc1565b611bcd565b9050919050565b6000611df882611dcb565b9050919050565b6000611e0a82611ded565b9050919050565b611e1a81611dff565b82525050565b6000602082019050611e356000830184611e11565b92915050565b600060208284031215611e5157611e50611767565b5b6000611e5f84828501611c7e565b91505092915050565b60008060408385031215611e7f57611e7e611767565b5b6000611e8d85828601611c52565b9250506020611e9e85828601611788565b9150509250929050565b600082825260208201905092915050565b7f506c656173652070726f766964652076616c6964206461746100000000000000600082015250565b6000611eef601983611ea8565b9150611efa82611eb9565b602082019050919050565b60006020820190508181036000830152611f1e81611ee2565b9050919050565b7f4e487b7100000000000000000000000000000000000000000000000000000000600052601160045260246000fd5b6000611f5f82611729565b9150611f6a83611729565b9250827fffffffffffffffffffffffffffffffffffffffffffffffffffffffffffffffff03821115611f9f57611f9e611f25565b5b828201905092915050565b6000611fb582611729565b9150611fc083611729565b9250817fffffffffffffffffffffffffffffffffffffffffffffffffffffffffffffffff0483118215151615611ff957611ff8611f25565b5b828202905092915050565b7f4e487b7100000000000000000000000000000000000000000000000000000000600052601260045260246000fd5b600061203e82611729565b915061204983611729565b92508261205957612058612004565b5b828204905092915050565b7f4e487b7100000000000000000000000000000000000000000000000000000000600052603260045260246000fd5b60006040820190506120a86000830185611733565b6120b56020830184611733565b9392505050565b60006120c782611729565b91506120d283611729565b9250828210156120e5576120e4611f25565b5b828203905092915050565b60006040820190506121056000830185611e11565b6121126020830184611733565b9392505050565b60006020828403121561212f5761212e611767565b5b600061213d84828501611c52565b91505092915050565b60006020828403121561215c5761215b611767565b5b600061216a84828501611cbc565b91505092915050565b600080fd5b600080fd5b600080fd5b6000808335600160200384360303811261219f5761219e612173565b5b80840192508235915067ffffffffffffffff8211156121c1576121c0612178565b5b6020830192506001820236038313156121dd576121dc61217d565b5b509250929050565b6000815190506121f481611771565b92915050565b6000602082840312156122105761220f611767565b5b600061221e848285016121e5565b91505092915050565b600061223282611ded565b9050919050565b61224281612227565b82525050565b600060408201905061225d6000830185612239565b61226a6020830184611733565b9392505050565b600061227c82611729565b91507fffffffffffffffffffffffffffffffffffffffffffffffffffffffffffffffff8214156122af576122ae611f25565b5b600182019050919050565b7f506c656173652070726f7669646520612076616c696420616464726573730000600082015250565b60006122f0601e83611ea8565b91506122fb826122ba565b602082019050919050565b6000602082019050818103600083015261231f816122e3565b9050919050565b60006fffffffffffffffffffffffffffffffff82169050919050565b600061235d61235861235384612326565b611dc1565b611729565b9050919050565b61236d81612342565b82525050565b60006040820190506123886000830185611bff565b6123956020830184612364565b9392505050565b60008115159050919050565b6123b18161239c565b81146123bc57600080fd5b50565b6000815190506123ce816123a8565b92915050565b6000602082840312156123ea576123e9611767565b5b60006123f8848285016123bf565b91505092915050565b7f313434204552524f520000000000000000000000000000000000000000000000600082015250565b6000612437600983611ea8565b915061244282612401565b602082019050919050565b600060208201905081810360008301526124668161242a565b9050919050565b600081905092915050565b82818337600083830152505050565b6000612493838561246d565b93506124a0838584612478565b82840190509392505050565b60006124b9828486612487565b91508190509392505050565b6124ce8161239c565b82525050565b60006040820190506124e960008301856124c5565b6124f66020830184611733565b9392505050565b7f535741505f43414c4c5f4641494c454400000000000000000000000000000000600082015250565b6000612533601083611ea8565b915061253e826124fd565b602082019050919050565b6000602082019050818103600083015261256281612526565b9050919050565b7f4f776e61626c653a206e6577206f776e657220697320746865207a65726f206160008201527f6464726573730000000000000000000000000000000000000000000000000000602082015250565b60006125c5602683611ea8565b91506125d082612569565b604082019050919050565b600060208201905081810360008301526125f4816125b8565b9050919050565b60006040820190506126106000830185611bff565b61261d6020830184611733565b9392505050565b7f4f776e61626c653a2063616c6c6572206973206e6f7420746865206f776e6572600082015250565b600061265a602083611ea8565b915061266582612624565b602082019050919050565b600060208201905081810360008301526126898161264d565b9050919050565b60006060820190506126a56000830186611bff565b6126b26020830185611bff565b6126bf6040830184611733565b949350505050565b600081519050919050565b60005b838110156126f05780820151818401526020810190506126d5565b838111156126ff576000848401525b50505050565b6000612710826126c7565b61271a8185611ea8565b935061272a8185602086016126d2565b61273381611931565b840191505092915050565b600060608201905081810360008301526127588186612705565b90506127676020830185611733565b6127746040830184611733565b94935050505056fea264697066735822122043219061ea61ecd6994f638594665895b8d42db5536b226c6f4c5f5e059386cb64736f6c63430008080033",
  "linkReferences": {},
  "deployedLinkReferences": {}
}