{
  "_format": "hh-sol-artifact-1",
  "contractName": "AlphaVaultSwap",
  "sourceName": "contracts/AlphaVault.sol",
  "abi": [
    {
      "inputs": [],
      "stateMutability": "nonpayable",
      "type": "constructor"
    },
    {
      "anonymous": false,
      "inputs": [
        {
          "indexed": false,
          "internalType": "uint256",
          "name": "wethBal_",
          "type": "uint256"
        },
        {
          "indexed": false,
          "internalType": "uint256",
          "name": "reqAmount_",
          "type": "uint256"
        }
      ],
      "name": "BadRequest",
      "type": "event"
    },
    {
      "anonymous": false,
      "inputs": [
        {
          "indexed": false,
          "internalType": "uint256",
          "name": "wethBal_",
          "type": "uint256"
        }
      ],
      "name": "EtherBalanceChange",
      "type": "event"
    },
    {
      "anonymous": false,
      "inputs": [
        {
          "indexed": true,
          "internalType": "address",
          "name": "previousOwner",
          "type": "address"
        },
        {
          "indexed": true,
          "internalType": "address",
          "name": "newOwner",
          "type": "address"
        }
      ],
      "name": "OwnershipTransferred",
      "type": "event"
    },
    {
      "anonymous": false,
      "inputs": [
        {
          "indexed": true,
          "internalType": "address",
          "name": "from_",
          "type": "address"
        },
        {
          "indexed": true,
          "internalType": "address",
          "name": "to_",
          "type": "address"
        },
        {
          "indexed": false,
          "internalType": "uint256",
          "name": "amount_",
          "type": "uint256"
        }
      ],
      "name": "TransferSuccessful",
      "type": "event"
    },
    {
      "anonymous": false,
      "inputs": [
        {
          "indexed": false,
          "internalType": "contract IERC20",
          "name": "buyToken",
          "type": "address"
        },
        {
          "indexed": false,
          "internalType": "uint256",
          "name": "boughtAmount_",
          "type": "uint256"
        }
      ],
      "name": "WithdrawTokens",
      "type": "event"
    },
    {
      "anonymous": false,
      "inputs": [
        {
          "indexed": false,
          "internalType": "bool",
          "name": "status",
          "type": "bool"
        },
        {
          "indexed": false,
          "internalType": "uint256",
          "name": "initialBuyTokenBalance",
          "type": "uint256"
        }
      ],
      "name": "ZeroXCallSuccess",
      "type": "event"
    },
    {
      "anonymous": false,
      "inputs": [
        {
          "indexed": false,
          "internalType": "uint256",
          "name": "buTokenAmount",
          "type": "uint256"
        }
      ],
      "name": "buyTokenBought",
      "type": "event"
    },
    {
      "anonymous": false,
      "inputs": [
        {
          "indexed": false,
          "internalType": "uint256",
          "name": "maxTransactions",
          "type": "uint256"
        }
      ],
      "name": "maxTransactionsChange",
      "type": "event"
    },
    {
      "stateMutability": "payable",
      "type": "fallback"
    },
    {
      "inputs": [],
      "name": "WETH",
      "outputs": [
        {
          "internalType": "contract IWETH",
          "name": "",
          "type": "address"
        }
      ],
      "stateMutability": "view",
      "type": "function"
    },
    {
      "inputs": [
        {
          "internalType": "contract IERC20",
          "name": "buyToken",
          "type": "address"
        },
        {
          "internalType": "contract IERC20",
          "name": "sellToken",
          "type": "address"
        },
        {
          "internalType": "address",
          "name": "spender",
          "type": "address"
        },
        {
          "internalType": "address payable",
          "name": "swapTarget",
          "type": "address"
        },
        {
          "internalType": "bytes",
          "name": "swapCallData",
          "type": "bytes"
        }
      ],
      "name": "fillQuote",
      "outputs": [
        {
          "internalType": "uint256",
          "name": "",
          "type": "uint256"
        }
      ],
      "stateMutability": "nonpayable",
      "type": "function"
    },
    {
      "inputs": [],
      "name": "maxTransactions",
      "outputs": [
        {
          "internalType": "uint256",
          "name": "",
          "type": "uint256"
        }
      ],
      "stateMutability": "view",
      "type": "function"
    },
    {
      "inputs": [
        {
          "internalType": "contract IERC20[]",
          "name": "sellToken",
          "type": "address[]"
        },
        {
          "internalType": "contract IERC20[]",
          "name": "buyToken",
          "type": "address[]"
        },
        {
          "internalType": "address[]",
          "name": "spender",
          "type": "address[]"
        },
        {
          "internalType": "address payable[]",
          "name": "swapTarget",
          "type": "address[]"
        },
        {
          "internalType": "bytes[]",
          "name": "swapCallData",
          "type": "bytes[]"
        },
        {
          "internalType": "uint256[]",
          "name": "amount",
          "type": "uint256[]"
        }
      ],
      "name": "multiSwap",
      "outputs": [],
      "stateMutability": "payable",
      "type": "function"
    },
    {
      "inputs": [],
      "name": "owner",
      "outputs": [
        {
          "internalType": "address",
          "name": "",
          "type": "address"
        }
      ],
      "stateMutability": "view",
      "type": "function"
    },
    {
      "inputs": [],
      "name": "renounceOwnership",
      "outputs": [],
      "stateMutability": "nonpayable",
      "type": "function"
    },
    {
      "inputs": [
        {
          "internalType": "uint256",
          "name": "num",
          "type": "uint256"
        }
      ],
      "name": "setMaxTransactionLimit",
      "outputs": [],
      "stateMutability": "nonpayable",
      "type": "function"
    },
    {
      "inputs": [
        {
          "internalType": "address",
          "name": "newOwner",
          "type": "address"
        }
      ],
      "name": "transferOwnership",
      "outputs": [],
      "stateMutability": "nonpayable",
      "type": "function"
    },
    {
      "inputs": [
        {
          "internalType": "uint256",
          "name": "amount",
          "type": "uint256"
        }
      ],
      "name": "withdrawETH",
      "outputs": [],
      "stateMutability": "nonpayable",
      "type": "function"
    },
    {
      "stateMutability": "payable",
      "type": "receive"
    }
  ],
  "bytecode": "0x60a060405234801561001057600080fd5b5061002d61002261008560201b60201c565b61008d60201b60201c565b73c02aaa39b223fe8d0a0e5c4f27ead9083c756cc273ffffffffffffffffffffffffffffffffffffffff1660808173ffffffffffffffffffffffffffffffffffffffff1660601b815250506019600181905550610151565b600033905090565b60008060009054906101000a900473ffffffffffffffffffffffffffffffffffffffff169050816000806101000a81548173ffffffffffffffffffffffffffffffffffffffff021916908373ffffffffffffffffffffffffffffffffffffffff1602179055508173ffffffffffffffffffffffffffffffffffffffff168173ffffffffffffffffffffffffffffffffffffffff167f8be0079c531659141344cd1fd0a4f28419497f9722a3daafe3b4186f6b6457e060405160405180910390a35050565b60805160601c61213d620001936000396000818161028c0152818161047701528181610584015281816108b101528181610a2a0152610e82015261213d6000f3fe60806040526004361061008a5760003560e01c80638da5cb5b116100595780638da5cb5b1461011a578063ab97161214610145578063ad5c464814610182578063f14210a6146101ad578063f2fde38b146101d657610091565b806324e1c18d146100935780636ca591a7146100be578063715018a6146100da5780637a9d7c14146100f157610091565b3661009157005b005b34801561009f57600080fd5b506100a86101ff565b6040516100b591906112bb565b60405180910390f35b6100d860048036038101906100d391906115cc565b610205565b005b3480156100e657600080fd5b506100ef610a96565b005b3480156100fd57600080fd5b5061011860048036038101906101139190611719565b610aaa565b005b34801561012657600080fd5b5061012f610af5565b60405161013c9190611787565b60405180910390f35b34801561015157600080fd5b5061016c600480360381019061016791906118a0565b610b1e565b60405161017991906112bb565b60405180910390f35b34801561018e57600080fd5b50610197610e80565b6040516101a49190611999565b60405180910390f35b3480156101b957600080fd5b506101d460048036038101906101cf9190611719565b610ea4565b005b3480156101e257600080fd5b506101fd60048036038101906101f891906119b4565b610ef6565b005b60015481565b6001548b8b90501115801561021f5750888890508b8b9050145b801561023057508888905087879050145b801561024157508686905085859050145b610280576040517f08c379a000000000000000000000000000000000000000000000000000000000815260040161027790611a3e565b60405180910390fd5b600080341115610346577f000000000000000000000000000000000000000000000000000000000000000073ffffffffffffffffffffffffffffffffffffffff1663d0e30db0346040518263ffffffff1660e01b81526004016000604051808303818588803b1580156102f257600080fd5b505af1158015610306573d6000803e3d6000fd5b50505050503490507f59e3c56b3739d587caa0270fae7c28e1b6a1af555395ad122400ff97d48fed168160405161033d91906112bb565b60405180910390a15b60005b88889050811015610a1b57600073ffffffffffffffffffffffffffffffffffffffff1689898381811061037f5761037e611a5e565b5b905060200201602081019061039491906119b4565b73ffffffffffffffffffffffffffffffffffffffff161415610582578281815181106103c3576103c2611a5e565b5b602002602001015182101561042a577f0b74b0798ec89f7cf91b1446e01c1bb75b7d55c45b104edfb364a46a074e2f568284838151811061040757610406611a5e565b5b602002602001015160405161041d929190611a8d565b60405180910390a1610a1b565b600083828151811061043f5761043e611a5e565b5b6020026020010151111561057d578281815181106104605761045f611a5e565b5b6020026020010151826104739190611ae5565b91507f000000000000000000000000000000000000000000000000000000000000000073ffffffffffffffffffffffffffffffffffffffff16632e1a7d4d8483815181106104c4576104c3611a5e565b5b60200260200101516040518263ffffffff1660e01b81526004016104e891906112bb565b600060405180830381600087803b15801561050257600080fd5b505af1158015610516573d6000803e3d6000fd5b505050506105458382815181106105305761052f611a5e565b5b6020026020010151610540610f7a565b610f82565b7f59e3c56b3739d587caa0270fae7c28e1b6a1af555395ad122400ff97d48fed168260405161057491906112bb565b60405180910390a15b610a08565b7f000000000000000000000000000000000000000000000000000000000000000073ffffffffffffffffffffffffffffffffffffffff168d8d838181106105cc576105cb611a5e565b5b90506020020160208101906105e19190611b19565b73ffffffffffffffffffffffffffffffffffffffff161415610792578a8a828181106106105761060f611a5e565b5b90506020020160208101906106259190611b19565b73ffffffffffffffffffffffffffffffffffffffff168d8d8381811061064e5761064d611a5e565b5b90506020020160208101906106639190611b19565b73ffffffffffffffffffffffffffffffffffffffff16141561072e576106ca8d8d8381811061069557610694611a5e565b5b90506020020160208101906106aa9190611b19565b8483815181106106bd576106bc611a5e565b5b6020026020010151610fcd565b8281815181106106dd576106dc611a5e565b5b6020026020010151826106f09190611b46565b91507f59e3c56b3739d587caa0270fae7c28e1b6a1af555395ad122400ff97d48fed168260405161072191906112bb565b60405180910390a1610a08565b82818151811061074157610740611a5e565b5b6020026020010151826107549190611ae5565b91507f59e3c56b3739d587caa0270fae7c28e1b6a1af555395ad122400ff97d48fed168260405161078591906112bb565b60405180910390a16107de565b6107dd8d8d838181106107a8576107a7611a5e565b5b90506020020160208101906107bd9190611b19565b8483815181106107d0576107cf611a5e565b5b6020026020010151610fcd565b5b60006108ad8c8c848181106107f6576107f5611a5e565b5b905060200201602081019061080b9190611b19565b8f8f8581811061081e5761081d611a5e565b5b90506020020160208101906108339190611b19565b8c8c8681811061084657610845611a5e565b5b905060200201602081019061085b91906119b4565b8b8b8781811061086e5761086d611a5e565b5b90506020020160208101906108839190611b9c565b8a8a8881811061089657610895611a5e565b5b90506020028101906108a89190611bd8565b610b1e565b90507f000000000000000000000000000000000000000000000000000000000000000073ffffffffffffffffffffffffffffffffffffffff168c8c848181106108f9576108f8611a5e565b5b905060200201602081019061090e9190611b19565b73ffffffffffffffffffffffffffffffffffffffff1614156109745780836109369190611b46565b92507f59e3c56b3739d587caa0270fae7c28e1b6a1af555395ad122400ff97d48fed168360405161096791906112bb565b60405180910390a1610a06565b6109a58c8c8481811061098a57610989611a5e565b5b905060200201602081019061099f9190611b19565b826110c6565b7f680f2e4f4032ebf1774e8cdbaddcb1b617a5a606411c8ca96257ada338d3833c8c8c848181106109d9576109d8611a5e565b5b90506020020160208101906109ee9190611b19565b826040516109fd929190611c5c565b60405180910390a15b505b8080610a1390611c85565b915050610349565b506000811115610a8857610a4f7f0000000000000000000000000000000000000000000000000000000000000000826110c6565b7f59e3c56b3739d587caa0270fae7c28e1b6a1af555395ad122400ff97d48fed166000604051610a7f9190611d09565b60405180910390a15b505050505050505050505050565b610a9e611158565b610aa860006111d6565b565b610ab2611158565b806001819055507f5091ccfe22ca8f99d8f1f07c6ae3a61daf990d74ef229d46898624ff3977238c600154604051610aea91906112bb565b60405180910390a150565b60008060009054906101000a900473ffffffffffffffffffffffffffffffffffffffff16905090565b60008073ffffffffffffffffffffffffffffffffffffffff168573ffffffffffffffffffffffffffffffffffffffff161415610b8f576040517f08c379a0000000000000000000000000000000000000000000000000000000008152600401610b8690611d70565b60405180910390fd5b60008773ffffffffffffffffffffffffffffffffffffffff166370a08231306040518263ffffffff1660e01b8152600401610bca9190611787565b60206040518083038186803b158015610be257600080fd5b505afa158015610bf6573d6000803e3d6000fd5b505050506040513d601f19601f82011682018060405250810190610c1a9190611da5565b90508673ffffffffffffffffffffffffffffffffffffffff1663095ea7b3876fffffffffffffffffffffffffffffffff6040518363ffffffff1660e01b8152600401610c67929190611e1f565b602060405180830381600087803b158015610c8157600080fd5b505af1158015610c95573d6000803e3d6000fd5b505050506040513d601f19601f82011682018060405250810190610cb99190611e80565b5060008573ffffffffffffffffffffffffffffffffffffffff1660008686604051610ce5929190611eec565b60006040518083038185875af1925050503d8060008114610d22576040519150601f19603f3d011682016040523d82523d6000602084013e610d27565b606091505b505090507fb1bbdf0cbdd013d8d322184c42c16dafe4b2b3b66c3d60f46874b6c78b9a87f68183604051610d5c929190611f14565b60405180910390a180610da4576040517f08c379a0000000000000000000000000000000000000000000000000000000008152600401610d9b90611f89565b60405180910390fd5b818973ffffffffffffffffffffffffffffffffffffffff166370a08231306040518263ffffffff1660e01b8152600401610dde9190611787565b60206040518083038186803b158015610df657600080fd5b505afa158015610e0a573d6000803e3d6000fd5b505050506040513d601f19601f82011682018060405250810190610e2e9190611da5565b610e389190611ae5565b91507f74496fce2cdc392d99808924e4161c005195a64fee4c166b02c2b716db28abb082604051610e6991906112bb565b60405180910390a181925050509695505050505050565b7f000000000000000000000000000000000000000000000000000000000000000081565b610eac611158565b3373ffffffffffffffffffffffffffffffffffffffff166108fc829081150290604051600060405180830381858888f19350505050158015610ef2573d6000803e3d6000fd5b5050565b610efe611158565b600073ffffffffffffffffffffffffffffffffffffffff168173ffffffffffffffffffffffffffffffffffffffff161415610f6e576040517f08c379a0000000000000000000000000000000000000000000000000000000008152600401610f659061201b565b60405180910390fd5b610f77816111d6565b50565b600033905090565b8073ffffffffffffffffffffffffffffffffffffffff166108fc839081150290604051600060405180830381858888f19350505050158015610fc8573d6000803e3d6000fd5b505050565b8173ffffffffffffffffffffffffffffffffffffffff166323b872dd3330846040518463ffffffff1660e01b815260040161100a9392919061203b565b602060405180830381600087803b15801561102457600080fd5b505af1158015611038573d6000803e3d6000fd5b505050506040513d601f19601f8201168201806040525081019061105c9190611e80565b503073ffffffffffffffffffffffffffffffffffffffff163373ffffffffffffffffffffffffffffffffffffffff167fd6d3eb25a413c05d8107fc49deb2789bef7f612582b2482804c0b0423b6638ee836040516110ba91906112bb565b60405180910390a35050565b8173ffffffffffffffffffffffffffffffffffffffff1663a9059cbb33836040518363ffffffff1660e01b8152600401611101929190612072565b602060405180830381600087803b15801561111b57600080fd5b505af115801561112f573d6000803e3d6000fd5b505050506040513d601f19601f820116820180604052508101906111539190611e80565b505050565b61116061129a565b73ffffffffffffffffffffffffffffffffffffffff1661117e610af5565b73ffffffffffffffffffffffffffffffffffffffff16146111d4576040517f08c379a00000000000000000000000000000000000000000000000000000000081526004016111cb906120e7565b60405180910390fd5b565b60008060009054906101000a900473ffffffffffffffffffffffffffffffffffffffff169050816000806101000a81548173ffffffffffffffffffffffffffffffffffffffff021916908373ffffffffffffffffffffffffffffffffffffffff1602179055508173ffffffffffffffffffffffffffffffffffffffff168173ffffffffffffffffffffffffffffffffffffffff167f8be0079c531659141344cd1fd0a4f28419497f9722a3daafe3b4186f6b6457e060405160405180910390a35050565b600033905090565b6000819050919050565b6112b5816112a2565b82525050565b60006020820190506112d060008301846112ac565b92915050565b6000604051905090565b600080fd5b600080fd5b600080fd5b600080fd5b600080fd5b60008083601f84011261130f5761130e6112ea565b5b8235905067ffffffffffffffff81111561132c5761132b6112ef565b5b602083019150836020820283011115611348576113476112f4565b5b9250929050565b60008083601f840112611365576113646112ea565b5b8235905067ffffffffffffffff811115611382576113816112ef565b5b60208301915083602082028301111561139e5761139d6112f4565b5b9250929050565b60008083601f8401126113bb576113ba6112ea565b5b8235905067ffffffffffffffff8111156113d8576113d76112ef565b5b6020830191508360208202830111156113f4576113f36112f4565b5b9250929050565b60008083601f840112611411576114106112ea565b5b8235905067ffffffffffffffff81111561142e5761142d6112ef565b5b60208301915083602082028301111561144a576114496112f4565b5b9250929050565b6000601f19601f8301169050919050565b7f4e487b7100000000000000000000000000000000000000000000000000000000600052604160045260246000fd5b61149a82611451565b810181811067ffffffffffffffff821117156114b9576114b8611462565b5b80604052505050565b60006114cc6112d6565b90506114d88282611491565b919050565b600067ffffffffffffffff8211156114f8576114f7611462565b5b602082029050602081019050919050565b611512816112a2565b811461151d57600080fd5b50565b60008135905061152f81611509565b92915050565b6000611548611543846114dd565b6114c2565b9050808382526020820190506020840283018581111561156b5761156a6112f4565b5b835b8181101561159457806115808882611520565b84526020840193505060208101905061156d565b5050509392505050565b600082601f8301126115b3576115b26112ea565b5b81356115c3848260208601611535565b91505092915050565b600080600080600080600080600080600060c08c8e0312156115f1576115f06112e0565b5b60008c013567ffffffffffffffff81111561160f5761160e6112e5565b5b61161b8e828f016112f9565b9b509b505060208c013567ffffffffffffffff81111561163e5761163d6112e5565b5b61164a8e828f016112f9565b995099505060408c013567ffffffffffffffff81111561166d5761166c6112e5565b5b6116798e828f0161134f565b975097505060608c013567ffffffffffffffff81111561169c5761169b6112e5565b5b6116a88e828f016113a5565b955095505060808c013567ffffffffffffffff8111156116cb576116ca6112e5565b5b6116d78e828f016113fb565b935093505060a08c013567ffffffffffffffff8111156116fa576116f96112e5565b5b6117068e828f0161159e565b9150509295989b509295989b9093969950565b60006020828403121561172f5761172e6112e0565b5b600061173d84828501611520565b91505092915050565b600073ffffffffffffffffffffffffffffffffffffffff82169050919050565b600061177182611746565b9050919050565b61178181611766565b82525050565b600060208201905061179c6000830184611778565b92915050565b60006117ad82611766565b9050919050565b6117bd816117a2565b81146117c857600080fd5b50565b6000813590506117da816117b4565b92915050565b6117e981611766565b81146117f457600080fd5b50565b600081359050611806816117e0565b92915050565b600061181782611746565b9050919050565b6118278161180c565b811461183257600080fd5b50565b6000813590506118448161181e565b92915050565b60008083601f8401126118605761185f6112ea565b5b8235905067ffffffffffffffff81111561187d5761187c6112ef565b5b602083019150836001820283011115611899576118986112f4565b5b9250929050565b60008060008060008060a087890312156118bd576118bc6112e0565b5b60006118cb89828a016117cb565b96505060206118dc89828a016117cb565b95505060406118ed89828a016117f7565b94505060606118fe89828a01611835565b935050608087013567ffffffffffffffff81111561191f5761191e6112e5565b5b61192b89828a0161184a565b92509250509295509295509295565b6000819050919050565b600061195f61195a61195584611746565b61193a565b611746565b9050919050565b600061197182611944565b9050919050565b600061198382611966565b9050919050565b61199381611978565b82525050565b60006020820190506119ae600083018461198a565b92915050565b6000602082840312156119ca576119c96112e0565b5b60006119d8848285016117f7565b91505092915050565b600082825260208201905092915050565b7f506c656173652070726f766964652076616c6964206461746100000000000000600082015250565b6000611a286019836119e1565b9150611a33826119f2565b602082019050919050565b60006020820190508181036000830152611a5781611a1b565b9050919050565b7f4e487b7100000000000000000000000000000000000000000000000000000000600052603260045260246000fd5b6000604082019050611aa260008301856112ac565b611aaf60208301846112ac565b9392505050565b7f4e487b7100000000000000000000000000000000000000000000000000000000600052601160045260246000fd5b6000611af0826112a2565b9150611afb836112a2565b925082821015611b0e57611b0d611ab6565b5b828203905092915050565b600060208284031215611b2f57611b2e6112e0565b5b6000611b3d848285016117cb565b91505092915050565b6000611b51826112a2565b9150611b5c836112a2565b9250827fffffffffffffffffffffffffffffffffffffffffffffffffffffffffffffffff03821115611b9157611b90611ab6565b5b828201905092915050565b600060208284031215611bb257611bb16112e0565b5b6000611bc084828501611835565b91505092915050565b600080fd5b600080fd5b600080fd5b60008083356001602003843603038112611bf557611bf4611bc9565b5b80840192508235915067ffffffffffffffff821115611c1757611c16611bce565b5b602083019250600182023603831315611c3357611c32611bd3565b5b509250929050565b6000611c4682611966565b9050919050565b611c5681611c3b565b82525050565b6000604082019050611c716000830185611c4d565b611c7e60208301846112ac565b9392505050565b6000611c90826112a2565b91507fffffffffffffffffffffffffffffffffffffffffffffffffffffffffffffffff821415611cc357611cc2611ab6565b5b600182019050919050565b6000819050919050565b6000611cf3611cee611ce984611cce565b61193a565b6112a2565b9050919050565b611d0381611cd8565b82525050565b6000602082019050611d1e6000830184611cfa565b92915050565b7f506c656173652070726f7669646520612076616c696420616464726573730000600082015250565b6000611d5a601e836119e1565b9150611d6582611d24565b602082019050919050565b60006020820190508181036000830152611d8981611d4d565b9050919050565b600081519050611d9f81611509565b92915050565b600060208284031215611dbb57611dba6112e0565b5b6000611dc984828501611d90565b91505092915050565b60006fffffffffffffffffffffffffffffffff82169050919050565b6000611e09611e04611dff84611dd2565b61193a565b6112a2565b9050919050565b611e1981611dee565b82525050565b6000604082019050611e346000830185611778565b611e416020830184611e10565b9392505050565b60008115159050919050565b611e5d81611e48565b8114611e6857600080fd5b50565b600081519050611e7a81611e54565b92915050565b600060208284031215611e9657611e956112e0565b5b6000611ea484828501611e6b565b91505092915050565b600081905092915050565b82818337600083830152505050565b6000611ed38385611ead565b9350611ee0838584611eb8565b82840190509392505050565b6000611ef9828486611ec7565b91508190509392505050565b611f0e81611e48565b82525050565b6000604082019050611f296000830185611f05565b611f3660208301846112ac565b9392505050565b7f535741505f43414c4c5f4641494c454400000000000000000000000000000000600082015250565b6000611f736010836119e1565b9150611f7e82611f3d565b602082019050919050565b60006020820190508181036000830152611fa281611f66565b9050919050565b7f4f776e61626c653a206e6577206f776e657220697320746865207a65726f206160008201527f6464726573730000000000000000000000000000000000000000000000000000602082015250565b60006120056026836119e1565b915061201082611fa9565b604082019050919050565b6000602082019050818103600083015261203481611ff8565b9050919050565b60006060820190506120506000830186611778565b61205d6020830185611778565b61206a60408301846112ac565b949350505050565b60006040820190506120876000830185611778565b61209460208301846112ac565b9392505050565b7f4f776e61626c653a2063616c6c6572206973206e6f7420746865206f776e6572600082015250565b60006120d16020836119e1565b91506120dc8261209b565b602082019050919050565b60006020820190508181036000830152612100816120c4565b905091905056fea264697066735822122058e2741bf59cfd2c390025239a1eaedf1e73838d95082e6b51ebb7b2ecd0041a64736f6c63430008080033",
  "linkReferences": {},
  "deployedLinkReferences": {}
}