{
  "_format": "hh-sol-artifact-1",
  "contractName": "AlphaVaultSwap",
  "sourceName": "contracts/AlphaVault.sol",
  "abi": [
    {
      "inputs": [],
      "stateMutability": "nonpayable",
      "type": "constructor"
    },
    {
      "inputs": [
        {
          "internalType": "contract IERC20",
          "name": "buyToken",
          "type": "address"
        },
        {
          "internalType": "contract IERC20",
          "name": "sellToken",
          "type": "address"
        }
      ],
      "name": "FillQuote_Swap_Failed",
      "type": "error"
    },
    {
      "inputs": [],
      "name": "InvalidAddress",
      "type": "error"
    },
    {
      "inputs": [],
      "name": "Invalid_Multiswap_Data",
      "type": "error"
    },
    {
      "anonymous": false,
      "inputs": [
        {
          "indexed": false,
          "internalType": "uint256",
          "name": "wethBal_",
          "type": "uint256"
        },
        {
          "indexed": false,
          "internalType": "uint256",
          "name": "reqAmount_",
          "type": "uint256"
        }
      ],
      "name": "BadRequest",
      "type": "event"
    },
    {
      "anonymous": false,
      "inputs": [
        {
          "indexed": false,
          "internalType": "uint256",
          "name": "wethBal_",
          "type": "uint256"
        }
      ],
      "name": "EtherBalanceChange",
      "type": "event"
    },
    {
      "anonymous": false,
      "inputs": [
        {
          "indexed": true,
          "internalType": "address",
          "name": "previousOwner",
          "type": "address"
        },
        {
          "indexed": true,
          "internalType": "address",
          "name": "newOwner",
          "type": "address"
        }
      ],
      "name": "OwnershipTransferred",
      "type": "event"
    },
    {
      "anonymous": false,
      "inputs": [
        {
          "indexed": true,
          "internalType": "address",
          "name": "from_",
          "type": "address"
        },
        {
          "indexed": true,
          "internalType": "address",
          "name": "to_",
          "type": "address"
        },
        {
          "indexed": false,
          "internalType": "uint256",
          "name": "amount_",
          "type": "uint256"
        }
      ],
      "name": "TransferSuccessful",
      "type": "event"
    },
    {
      "anonymous": false,
      "inputs": [
        {
          "indexed": false,
          "internalType": "contract IERC20",
          "name": "buyToken",
          "type": "address"
        },
        {
          "indexed": false,
          "internalType": "uint256",
          "name": "boughtAmount_",
          "type": "uint256"
        }
      ],
      "name": "WithdrawTokens",
      "type": "event"
    },
    {
      "anonymous": false,
      "inputs": [
        {
          "indexed": false,
          "internalType": "bool",
          "name": "status",
          "type": "bool"
        },
        {
          "indexed": false,
          "internalType": "uint256",
          "name": "initialBuyTokenBalance",
          "type": "uint256"
        }
      ],
      "name": "ZeroXCallSuccess",
      "type": "event"
    },
    {
      "anonymous": false,
      "inputs": [
        {
          "indexed": false,
          "internalType": "uint256",
          "name": "buTokenAmount",
          "type": "uint256"
        }
      ],
      "name": "buyTokenBought",
      "type": "event"
    },
    {
      "anonymous": false,
      "inputs": [
        {
          "indexed": false,
          "internalType": "uint256",
          "name": "maxTransactions",
          "type": "uint256"
        }
      ],
      "name": "maxTransactionsChange",
      "type": "event"
    },
    {
      "stateMutability": "payable",
      "type": "fallback"
    },
    {
      "inputs": [],
      "name": "WETH",
      "outputs": [
        {
          "internalType": "contract IWETH",
          "name": "",
          "type": "address"
        }
      ],
      "stateMutability": "view",
      "type": "function"
    },
    {
      "inputs": [],
      "name": "fee",
      "outputs": [
        {
          "internalType": "uint256",
          "name": "",
          "type": "uint256"
        }
      ],
      "stateMutability": "view",
      "type": "function"
    },
    {
      "inputs": [],
      "name": "maxTransactions",
      "outputs": [
        {
          "internalType": "uint256",
          "name": "",
          "type": "uint256"
        }
      ],
      "stateMutability": "view",
      "type": "function"
    },
    {
      "inputs": [
        {
          "internalType": "contract IERC20[]",
          "name": "sellToken",
          "type": "address[]"
        },
        {
          "internalType": "contract IERC20[]",
          "name": "buyToken",
          "type": "address[]"
        },
        {
          "internalType": "address[]",
          "name": "spender",
          "type": "address[]"
        },
        {
          "internalType": "address payable[]",
          "name": "swapTarget",
          "type": "address[]"
        },
        {
          "internalType": "bytes[]",
          "name": "swapCallData",
          "type": "bytes[]"
        },
        {
          "internalType": "uint256[]",
          "name": "amount",
          "type": "uint256[]"
        }
      ],
      "name": "multiSwap",
      "outputs": [],
      "stateMutability": "payable",
      "type": "function"
    },
    {
      "inputs": [],
      "name": "owner",
      "outputs": [
        {
          "internalType": "address",
          "name": "",
          "type": "address"
        }
      ],
      "stateMutability": "view",
      "type": "function"
    },
    {
      "inputs": [],
      "name": "renounceOwnership",
      "outputs": [],
      "stateMutability": "nonpayable",
      "type": "function"
    },
    {
      "inputs": [
        {
          "internalType": "uint256",
          "name": "num",
          "type": "uint256"
        }
      ],
      "name": "setMaxTransactionLimit",
      "outputs": [],
      "stateMutability": "nonpayable",
      "type": "function"
    },
    {
      "inputs": [
        {
          "internalType": "uint256",
          "name": "num",
          "type": "uint256"
        }
      ],
      "name": "setfee",
      "outputs": [],
      "stateMutability": "nonpayable",
      "type": "function"
    },
    {
      "inputs": [
        {
          "internalType": "address",
          "name": "newOwner",
          "type": "address"
        }
      ],
      "name": "transferOwnership",
      "outputs": [],
      "stateMutability": "nonpayable",
      "type": "function"
    },
    {
      "inputs": [
        {
          "internalType": "uint256",
          "name": "amount",
          "type": "uint256"
        }
      ],
      "name": "withdrawETH",
      "outputs": [],
      "stateMutability": "nonpayable",
      "type": "function"
    },
    {
      "stateMutability": "payable",
      "type": "receive"
    }
  ],
  "bytecode": "0x60a060405234801561001057600080fd5b5061002d61002261008d60201b60201c565b61009560201b60201c565b73bb4cdb9cbd36b01bd1cbaebf2de08d9173bc095c73ffffffffffffffffffffffffffffffffffffffff1660808173ffffffffffffffffffffffffffffffffffffffff1660601b8152505060196001819055506005600281905550610159565b600033905090565b60008060009054906101000a900473ffffffffffffffffffffffffffffffffffffffff169050816000806101000a81548173ffffffffffffffffffffffffffffffffffffffff021916908373ffffffffffffffffffffffffffffffffffffffff1602179055508173ffffffffffffffffffffffffffffffffffffffff168173ffffffffffffffffffffffffffffffffffffffff167f8be0079c531659141344cd1fd0a4f28419497f9722a3daafe3b4186f6b6457e060405160405180910390a35050565b60805160601c6120206200017f600039600081816102af0152610c0d01526120206000f3fe6080604052600436106100955760003560e01c80638da5cb5b116100595780638da5cb5b1461014e578063ad5c464814610179578063ddca3f43146101a4578063f14210a6146101cf578063f2fde38b146101f85761009c565b806324e1c18d1461009e5780636ca591a7146100c9578063715018a6146100e557806373fee090146100fc5780637a9d7c14146101255761009c565b3661009c57005b005b3480156100aa57600080fd5b506100b3610221565b6040516100c091906113a9565b60405180910390f35b6100e360048036038101906100de91906116ba565b610227565b005b3480156100f157600080fd5b506100fa610b71565b005b34801561010857600080fd5b50610123600480360381019061011e9190611807565b610b85565b005b34801561013157600080fd5b5061014c60048036038101906101479190611807565b610b97565b005b34801561015a57600080fd5b50610163610be2565b6040516101709190611875565b60405180910390f35b34801561018557600080fd5b5061018e610c0b565b60405161019b91906118ef565b60405180910390f35b3480156101b057600080fd5b506101b9610c2f565b6040516101c691906113a9565b60405180910390f35b3480156101db57600080fd5b506101f660048036038101906101f19190611807565b610c35565b005b34801561020457600080fd5b5061021f600480360381019061021a9190611936565b610c87565b005b60015481565b6001548b8b9050111580156102415750888890508b8b9050145b801561025257508888905087879050145b801561026357508686905085859050145b610299576040517f90b42d6500000000000000000000000000000000000000000000000000000000815260040160405180910390fd5b60006040518060400160405280600081526020017f000000000000000000000000000000000000000000000000000000000000000073ffffffffffffffffffffffffffffffffffffffff168152509050600034111561044557806020015173ffffffffffffffffffffffffffffffffffffffff1663d0e30db0346040518263ffffffff1660e01b81526004016000604051808303818588803b15801561033e57600080fd5b505af1158015610352573d6000803e3d6000fd5b5050505050600254346103659190611992565b816000018181525050806020015173ffffffffffffffffffffffffffffffffffffffff1663a9059cbb610396610be2565b6002546040518363ffffffff1660e01b81526004016103b69291906119c6565b602060405180830381600087803b1580156103d057600080fd5b505af11580156103e4573d6000803e3d6000fd5b505050506040513d601f19601f820116820180604052508101906104089190611a27565b507f59e3c56b3739d587caa0270fae7c28e1b6a1af555395ad122400ff97d48fed16816000015160405161043c91906113a9565b60405180910390a15b60005b88889050811015610b0a57600073ffffffffffffffffffffffffffffffffffffffff1689898381811061047e5761047d611a54565b5b90506020020160208101906104939190611936565b73ffffffffffffffffffffffffffffffffffffffff16141561067c578281815181106104c2576104c1611a54565b5b602002602001015182600001511015610531577f0b74b0798ec89f7cf91b1446e01c1bb75b7d55c45b104edfb364a46a074e2f56826000015184838151811061050e5761050d611a54565b5b6020026020010151604051610524929190611a83565b60405180910390a1610b0a565b600083828151811061054657610545611a54565b5b602002602001015111156106775782818151811061056757610566611a54565b5b6020026020010151826000018181516105809190611992565b91508181525050816020015173ffffffffffffffffffffffffffffffffffffffff16632e1a7d4d8483815181106105ba576105b9611a54565b5b60200260200101516040518263ffffffff1660e01b81526004016105de91906113a9565b600060405180830381600087803b1580156105f857600080fd5b505af115801561060c573d6000803e3d6000fd5b5050505061063b83828151811061062657610625611a54565b5b6020026020010151610636610d0b565b610d13565b7f59e3c56b3739d587caa0270fae7c28e1b6a1af555395ad122400ff97d48fed16826000015160405161066e91906113a9565b60405180910390a15b610af7565b816020015173ffffffffffffffffffffffffffffffffffffffff168d8d838181106106aa576106a9611a54565b5b90506020020160208101906106bf9190611aea565b73ffffffffffffffffffffffffffffffffffffffff16141561088e578a8a828181106106ee576106ed611a54565b5b90506020020160208101906107039190611aea565b73ffffffffffffffffffffffffffffffffffffffff168d8d8381811061072c5761072b611a54565b5b90506020020160208101906107419190611aea565b73ffffffffffffffffffffffffffffffffffffffff16141561081b576107a88d8d8381811061077357610772611a54565b5b90506020020160208101906107889190611aea565b84838151811061079b5761079a611a54565b5b6020026020010151610d5e565b8281815181106107bb576107ba611a54565b5b6020026020010151826000018181516107d49190611b17565b915081815250507f59e3c56b3739d587caa0270fae7c28e1b6a1af555395ad122400ff97d48fed16826000015160405161080e91906113a9565b60405180910390a1610af7565b82818151811061082e5761082d611a54565b5b6020026020010151826000018181516108479190611992565b915081815250507f59e3c56b3739d587caa0270fae7c28e1b6a1af555395ad122400ff97d48fed16826000015160405161088191906113a9565b60405180910390a16108da565b6108d98d8d838181106108a4576108a3611a54565b5b90506020020160208101906108b99190611aea565b8483815181106108cc576108cb611a54565b5b6020026020010151610d5e565b5b60006109a98c8c848181106108f2576108f1611a54565b5b90506020020160208101906109079190611aea565b8f8f8581811061091a57610919611a54565b5b905060200201602081019061092f9190611aea565b8c8c8681811061094257610941611a54565b5b90506020020160208101906109579190611936565b8b8b8781811061096a57610969611a54565b5b905060200201602081019061097f9190611bab565b8a8a8881811061099257610991611a54565b5b90506020028101906109a49190611be7565b610e57565b9050826020015173ffffffffffffffffffffffffffffffffffffffff168c8c848181106109d9576109d8611a54565b5b90506020020160208101906109ee9190611aea565b73ffffffffffffffffffffffffffffffffffffffff161415610a63578083600001818151610a1c9190611b17565b915081815250507f59e3c56b3739d587caa0270fae7c28e1b6a1af555395ad122400ff97d48fed168360000151604051610a5691906113a9565b60405180910390a1610af5565b610a948c8c84818110610a7957610a78611a54565b5b9050602002016020810190610a8e9190611aea565b826111b4565b7f680f2e4f4032ebf1774e8cdbaddcb1b617a5a606411c8ca96257ada338d3833c8c8c84818110610ac857610ac7611a54565b5b9050602002016020810190610add9190611aea565b82604051610aec929190611c6b565b60405180910390a15b505b8080610b0290611c94565b915050610448565b50600081600001511115610b6357610b2a816020015182600001516111b4565b7f59e3c56b3739d587caa0270fae7c28e1b6a1af555395ad122400ff97d48fed166000604051610b5a9190611d18565b60405180910390a15b505050505050505050505050565b610b79611246565b610b8360006112c4565b565b610b8d611246565b8060028190555050565b610b9f611246565b806001819055507f5091ccfe22ca8f99d8f1f07c6ae3a61daf990d74ef229d46898624ff3977238c600154604051610bd791906113a9565b60405180910390a150565b60008060009054906101000a900473ffffffffffffffffffffffffffffffffffffffff16905090565b7f000000000000000000000000000000000000000000000000000000000000000081565b60025481565b610c3d611246565b3373ffffffffffffffffffffffffffffffffffffffff166108fc829081150290604051600060405180830381858888f19350505050158015610c83573d6000803e3d6000fd5b5050565b610c8f611246565b600073ffffffffffffffffffffffffffffffffffffffff168173ffffffffffffffffffffffffffffffffffffffff161415610cff576040517f08c379a0000000000000000000000000000000000000000000000000000000008152600401610cf690611db6565b60405180910390fd5b610d08816112c4565b50565b600033905090565b8073ffffffffffffffffffffffffffffffffffffffff166108fc839081150290604051600060405180830381858888f19350505050158015610d59573d6000803e3d6000fd5b505050565b8173ffffffffffffffffffffffffffffffffffffffff166323b872dd3330846040518463ffffffff1660e01b8152600401610d9b93929190611dd6565b602060405180830381600087803b158015610db557600080fd5b505af1158015610dc9573d6000803e3d6000fd5b505050506040513d601f19601f82011682018060405250810190610ded9190611a27565b503073ffffffffffffffffffffffffffffffffffffffff163373ffffffffffffffffffffffffffffffffffffffff167fd6d3eb25a413c05d8107fc49deb2789bef7f612582b2482804c0b0423b6638ee83604051610e4b91906113a9565b60405180910390a35050565b60008073ffffffffffffffffffffffffffffffffffffffff168573ffffffffffffffffffffffffffffffffffffffff161415610ebf576040517fe6c4247b00000000000000000000000000000000000000000000000000000000815260040160405180910390fd5b60008773ffffffffffffffffffffffffffffffffffffffff166370a08231306040518263ffffffff1660e01b8152600401610efa9190611875565b60206040518083038186803b158015610f1257600080fd5b505afa158015610f26573d6000803e3d6000fd5b505050506040513d601f19601f82011682018060405250810190610f4a9190611e22565b90508673ffffffffffffffffffffffffffffffffffffffff1663095ea7b3876fffffffffffffffffffffffffffffffff6040518363ffffffff1660e01b8152600401610f97929190611e9c565b602060405180830381600087803b158015610fb157600080fd5b505af1158015610fc5573d6000803e3d6000fd5b505050506040513d601f19601f82011682018060405250810190610fe99190611a27565b5060008573ffffffffffffffffffffffffffffffffffffffff1660008686604051611015929190611f04565b60006040518083038185875af1925050503d8060008114611052576040519150601f19603f3d011682016040523d82523d6000602084013e611057565b606091505b505090507fb1bbdf0cbdd013d8d322184c42c16dafe4b2b3b66c3d60f46874b6c78b9a87f6818360405161108c929190611f2c565b60405180910390a1806110d85788886040517f7155081c0000000000000000000000000000000000000000000000000000000081526004016110cf929190611f55565b60405180910390fd5b818973ffffffffffffffffffffffffffffffffffffffff166370a08231306040518263ffffffff1660e01b81526004016111129190611875565b60206040518083038186803b15801561112a57600080fd5b505afa15801561113e573d6000803e3d6000fd5b505050506040513d601f19601f820116820180604052508101906111629190611e22565b61116c9190611992565b91507f74496fce2cdc392d99808924e4161c005195a64fee4c166b02c2b716db28abb08260405161119d91906113a9565b60405180910390a181925050509695505050505050565b8173ffffffffffffffffffffffffffffffffffffffff1663a9059cbb33836040518363ffffffff1660e01b81526004016111ef9291906119c6565b602060405180830381600087803b15801561120957600080fd5b505af115801561121d573d6000803e3d6000fd5b505050506040513d601f19601f820116820180604052508101906112419190611a27565b505050565b61124e611388565b73ffffffffffffffffffffffffffffffffffffffff1661126c610be2565b73ffffffffffffffffffffffffffffffffffffffff16146112c2576040517f08c379a00000000000000000000000000000000000000000000000000000000081526004016112b990611fca565b60405180910390fd5b565b60008060009054906101000a900473ffffffffffffffffffffffffffffffffffffffff169050816000806101000a81548173ffffffffffffffffffffffffffffffffffffffff021916908373ffffffffffffffffffffffffffffffffffffffff1602179055508173ffffffffffffffffffffffffffffffffffffffff168173ffffffffffffffffffffffffffffffffffffffff167f8be0079c531659141344cd1fd0a4f28419497f9722a3daafe3b4186f6b6457e060405160405180910390a35050565b600033905090565b6000819050919050565b6113a381611390565b82525050565b60006020820190506113be600083018461139a565b92915050565b6000604051905090565b600080fd5b600080fd5b600080fd5b600080fd5b600080fd5b60008083601f8401126113fd576113fc6113d8565b5b8235905067ffffffffffffffff81111561141a576114196113dd565b5b602083019150836020820283011115611436576114356113e2565b5b9250929050565b60008083601f840112611453576114526113d8565b5b8235905067ffffffffffffffff8111156114705761146f6113dd565b5b60208301915083602082028301111561148c5761148b6113e2565b5b9250929050565b60008083601f8401126114a9576114a86113d8565b5b8235905067ffffffffffffffff8111156114c6576114c56113dd565b5b6020830191508360208202830111156114e2576114e16113e2565b5b9250929050565b60008083601f8401126114ff576114fe6113d8565b5b8235905067ffffffffffffffff81111561151c5761151b6113dd565b5b602083019150836020820283011115611538576115376113e2565b5b9250929050565b6000601f19601f8301169050919050565b7f4e487b7100000000000000000000000000000000000000000000000000000000600052604160045260246000fd5b6115888261153f565b810181811067ffffffffffffffff821117156115a7576115a6611550565b5b80604052505050565b60006115ba6113c4565b90506115c6828261157f565b919050565b600067ffffffffffffffff8211156115e6576115e5611550565b5b602082029050602081019050919050565b61160081611390565b811461160b57600080fd5b50565b60008135905061161d816115f7565b92915050565b6000611636611631846115cb565b6115b0565b90508083825260208201905060208402830185811115611659576116586113e2565b5b835b81811015611682578061166e888261160e565b84526020840193505060208101905061165b565b5050509392505050565b600082601f8301126116a1576116a06113d8565b5b81356116b1848260208601611623565b91505092915050565b600080600080600080600080600080600060c08c8e0312156116df576116de6113ce565b5b60008c013567ffffffffffffffff8111156116fd576116fc6113d3565b5b6117098e828f016113e7565b9b509b505060208c013567ffffffffffffffff81111561172c5761172b6113d3565b5b6117388e828f016113e7565b995099505060408c013567ffffffffffffffff81111561175b5761175a6113d3565b5b6117678e828f0161143d565b975097505060608c013567ffffffffffffffff81111561178a576117896113d3565b5b6117968e828f01611493565b955095505060808c013567ffffffffffffffff8111156117b9576117b86113d3565b5b6117c58e828f016114e9565b935093505060a08c013567ffffffffffffffff8111156117e8576117e76113d3565b5b6117f48e828f0161168c565b9150509295989b509295989b9093969950565b60006020828403121561181d5761181c6113ce565b5b600061182b8482850161160e565b91505092915050565b600073ffffffffffffffffffffffffffffffffffffffff82169050919050565b600061185f82611834565b9050919050565b61186f81611854565b82525050565b600060208201905061188a6000830184611866565b92915050565b6000819050919050565b60006118b56118b06118ab84611834565b611890565b611834565b9050919050565b60006118c78261189a565b9050919050565b60006118d9826118bc565b9050919050565b6118e9816118ce565b82525050565b600060208201905061190460008301846118e0565b92915050565b61191381611854565b811461191e57600080fd5b50565b6000813590506119308161190a565b92915050565b60006020828403121561194c5761194b6113ce565b5b600061195a84828501611921565b91505092915050565b7f4e487b7100000000000000000000000000000000000000000000000000000000600052601160045260246000fd5b600061199d82611390565b91506119a883611390565b9250828210156119bb576119ba611963565b5b828203905092915050565b60006040820190506119db6000830185611866565b6119e8602083018461139a565b9392505050565b60008115159050919050565b611a04816119ef565b8114611a0f57600080fd5b50565b600081519050611a21816119fb565b92915050565b600060208284031215611a3d57611a3c6113ce565b5b6000611a4b84828501611a12565b91505092915050565b7f4e487b7100000000000000000000000000000000000000000000000000000000600052603260045260246000fd5b6000604082019050611a98600083018561139a565b611aa5602083018461139a565b9392505050565b6000611ab782611854565b9050919050565b611ac781611aac565b8114611ad257600080fd5b50565b600081359050611ae481611abe565b92915050565b600060208284031215611b0057611aff6113ce565b5b6000611b0e84828501611ad5565b91505092915050565b6000611b2282611390565b9150611b2d83611390565b9250827fffffffffffffffffffffffffffffffffffffffffffffffffffffffffffffffff03821115611b6257611b61611963565b5b828201905092915050565b6000611b7882611834565b9050919050565b611b8881611b6d565b8114611b9357600080fd5b50565b600081359050611ba581611b7f565b92915050565b600060208284031215611bc157611bc06113ce565b5b6000611bcf84828501611b96565b91505092915050565b600080fd5b600080fd5b600080fd5b60008083356001602003843603038112611c0457611c03611bd8565b5b80840192508235915067ffffffffffffffff821115611c2657611c25611bdd565b5b602083019250600182023603831315611c4257611c41611be2565b5b509250929050565b6000611c55826118bc565b9050919050565b611c6581611c4a565b82525050565b6000604082019050611c806000830185611c5c565b611c8d602083018461139a565b9392505050565b6000611c9f82611390565b91507fffffffffffffffffffffffffffffffffffffffffffffffffffffffffffffffff821415611cd257611cd1611963565b5b600182019050919050565b6000819050919050565b6000611d02611cfd611cf884611cdd565b611890565b611390565b9050919050565b611d1281611ce7565b82525050565b6000602082019050611d2d6000830184611d09565b92915050565b600082825260208201905092915050565b7f4f776e61626c653a206e6577206f776e657220697320746865207a65726f206160008201527f6464726573730000000000000000000000000000000000000000000000000000602082015250565b6000611da0602683611d33565b9150611dab82611d44565b604082019050919050565b60006020820190508181036000830152611dcf81611d93565b9050919050565b6000606082019050611deb6000830186611866565b611df86020830185611866565b611e05604083018461139a565b949350505050565b600081519050611e1c816115f7565b92915050565b600060208284031215611e3857611e376113ce565b5b6000611e4684828501611e0d565b91505092915050565b60006fffffffffffffffffffffffffffffffff82169050919050565b6000611e86611e81611e7c84611e4f565b611890565b611390565b9050919050565b611e9681611e6b565b82525050565b6000604082019050611eb16000830185611866565b611ebe6020830184611e8d565b9392505050565b600081905092915050565b82818337600083830152505050565b6000611eeb8385611ec5565b9350611ef8838584611ed0565b82840190509392505050565b6000611f11828486611edf565b91508190509392505050565b611f26816119ef565b82525050565b6000604082019050611f416000830185611f1d565b611f4e602083018461139a565b9392505050565b6000604082019050611f6a6000830185611c5c565b611f776020830184611c5c565b9392505050565b7f4f776e61626c653a2063616c6c6572206973206e6f7420746865206f776e6572600082015250565b6000611fb4602083611d33565b9150611fbf82611f7e565b602082019050919050565b60006020820190508181036000830152611fe381611fa7565b905091905056fea2646970667358221220f26e16c31c3ae05e78630c1471a72a73bfe7d703126b969d8b640ceddae270a864736f6c63430008080033",
  "linkReferences": {},
  "deployedLinkReferences": {}
}