{
  "_format": "hh-sol-artifact-1",
  "contractName": "AlphaVaultSwap",
  "sourceName": "contracts/AlphaVault.sol",
  "abi": [
    {
      "inputs": [],
      "stateMutability": "nonpayable",
      "type": "constructor"
    },
    {
      "anonymous": false,
      "inputs": [
        {
          "indexed": false,
          "internalType": "uint256",
          "name": "wethBal_",
          "type": "uint256"
        },
        {
          "indexed": false,
          "internalType": "uint256",
          "name": "reqAmount_",
          "type": "uint256"
        }
      ],
      "name": "BadRequest",
      "type": "event"
    },
    {
      "anonymous": false,
      "inputs": [
        {
          "indexed": false,
          "internalType": "uint256",
          "name": "wethBal_",
          "type": "uint256"
        }
      ],
      "name": "EtherBalanceChange",
      "type": "event"
    },
    {
      "anonymous": false,
      "inputs": [
        {
          "indexed": true,
          "internalType": "address",
          "name": "previousOwner",
          "type": "address"
        },
        {
          "indexed": true,
          "internalType": "address",
          "name": "newOwner",
          "type": "address"
        }
      ],
      "name": "OwnershipTransferred",
      "type": "event"
    },
    {
      "anonymous": false,
      "inputs": [
        {
          "indexed": true,
          "internalType": "address",
          "name": "from_",
          "type": "address"
        },
        {
          "indexed": true,
          "internalType": "address",
          "name": "to_",
          "type": "address"
        },
        {
          "indexed": false,
          "internalType": "uint256",
          "name": "amount_",
          "type": "uint256"
        }
      ],
      "name": "TransferSuccessful",
      "type": "event"
    },
    {
      "anonymous": false,
      "inputs": [
        {
          "indexed": false,
          "internalType": "contract IERC20",
          "name": "buyToken",
          "type": "address"
        },
        {
          "indexed": false,
          "internalType": "uint256",
          "name": "boughtAmount_",
          "type": "uint256"
        }
      ],
      "name": "WithdrawTokens",
      "type": "event"
    },
    {
      "anonymous": false,
      "inputs": [
        {
          "indexed": false,
          "internalType": "bool",
          "name": "status",
          "type": "bool"
        },
        {
          "indexed": false,
          "internalType": "uint256",
          "name": "initialBuyTokenBalance",
          "type": "uint256"
        }
      ],
      "name": "ZeroXCallSuccess",
      "type": "event"
    },
    {
      "anonymous": false,
      "inputs": [
        {
          "indexed": false,
          "internalType": "uint256",
          "name": "buTokenAmount",
          "type": "uint256"
        }
      ],
      "name": "buyTokenBought",
      "type": "event"
    },
    {
      "anonymous": false,
      "inputs": [
        {
          "indexed": false,
          "internalType": "uint256",
          "name": "maxTransactions",
          "type": "uint256"
        }
      ],
      "name": "maxTransactionsChange",
      "type": "event"
    },
    {
      "stateMutability": "payable",
      "type": "fallback"
    },
    {
      "inputs": [],
      "name": "WETH",
      "outputs": [
        {
          "internalType": "contract IWETH",
          "name": "",
          "type": "address"
        }
      ],
      "stateMutability": "view",
      "type": "function"
    },
    {
      "inputs": [
        {
          "internalType": "contract IERC20",
          "name": "buyToken",
          "type": "address"
        },
        {
          "internalType": "contract IERC20",
          "name": "sellToken",
          "type": "address"
        },
        {
          "internalType": "address",
          "name": "spender",
          "type": "address"
        },
        {
          "internalType": "address payable",
          "name": "swapTarget",
          "type": "address"
        },
        {
          "internalType": "bytes",
          "name": "swapCallData",
          "type": "bytes"
        }
      ],
      "name": "fillQuote",
      "outputs": [
        {
          "internalType": "uint256",
          "name": "",
          "type": "uint256"
        }
      ],
      "stateMutability": "nonpayable",
      "type": "function"
    },
    {
      "inputs": [],
      "name": "maxTransactions",
      "outputs": [
        {
          "internalType": "uint256",
          "name": "",
          "type": "uint256"
        }
      ],
      "stateMutability": "view",
      "type": "function"
    },
    {
      "inputs": [
        {
          "internalType": "contract IERC20[]",
          "name": "sellToken",
          "type": "address[]"
        },
        {
          "internalType": "contract IERC20[]",
          "name": "buyToken",
          "type": "address[]"
        },
        {
          "internalType": "address[]",
          "name": "spender",
          "type": "address[]"
        },
        {
          "internalType": "address payable[]",
          "name": "swapTarget",
          "type": "address[]"
        },
        {
          "internalType": "bytes[]",
          "name": "swapCallData",
          "type": "bytes[]"
        },
        {
          "internalType": "uint256[]",
          "name": "amount",
          "type": "uint256[]"
        }
      ],
      "name": "multiSwap",
      "outputs": [],
      "stateMutability": "payable",
      "type": "function"
    },
    {
      "inputs": [],
      "name": "owner",
      "outputs": [
        {
          "internalType": "address",
          "name": "",
          "type": "address"
        }
      ],
      "stateMutability": "view",
      "type": "function"
    },
    {
      "inputs": [],
      "name": "renounceOwnership",
      "outputs": [],
      "stateMutability": "nonpayable",
      "type": "function"
    },
    {
      "inputs": [
        {
          "internalType": "uint256",
          "name": "num",
          "type": "uint256"
        }
      ],
      "name": "setMaxTransactionLimit",
      "outputs": [],
      "stateMutability": "nonpayable",
      "type": "function"
    },
    {
      "inputs": [
        {
          "internalType": "address",
          "name": "newOwner",
          "type": "address"
        }
      ],
      "name": "transferOwnership",
      "outputs": [],
      "stateMutability": "nonpayable",
      "type": "function"
    },
    {
      "inputs": [
        {
          "internalType": "uint256",
          "name": "amount",
          "type": "uint256"
        }
      ],
      "name": "withdrawETH",
      "outputs": [],
      "stateMutability": "nonpayable",
      "type": "function"
    },
    {
      "stateMutability": "payable",
      "type": "receive"
    }
  ],
  "bytecode": "0x60a060405234801561001057600080fd5b5061002d61002261008560201b60201c565b61008d60201b60201c565b73c02aaa39b223fe8d0a0e5c4f27ead9083c756cc273ffffffffffffffffffffffffffffffffffffffff1660808173ffffffffffffffffffffffffffffffffffffffff1660601b815250506019600181905550610151565b600033905090565b60008060009054906101000a900473ffffffffffffffffffffffffffffffffffffffff169050816000806101000a81548173ffffffffffffffffffffffffffffffffffffffff021916908373ffffffffffffffffffffffffffffffffffffffff1602179055508173ffffffffffffffffffffffffffffffffffffffff168173ffffffffffffffffffffffffffffffffffffffff167f8be0079c531659141344cd1fd0a4f28419497f9722a3daafe3b4186f6b6457e060405160405180910390a35050565b60805160601c611f926101926000396000818161028c015281816104580152818161058b0152818161060e0152818161064c0152610d5a0152611f926000f3fe60806040526004361061008a5760003560e01c80638da5cb5b116100595780638da5cb5b1461011a578063ab97161214610145578063ad5c464814610182578063f14210a6146101ad578063f2fde38b146101d657610091565b806324e1c18d146100935780636ca591a7146100be578063715018a6146100da5780637a9d7c14146100f157610091565b3661009157005b005b34801561009f57600080fd5b506100a86101ff565b6040516100b59190611193565b60405180910390f35b6100d860048036038101906100d391906114a4565b610205565b005b3480156100e657600080fd5b506100ef61096e565b005b3480156100fd57600080fd5b50610118600480360381019061011391906115f1565b610982565b005b34801561012657600080fd5b5061012f6109cd565b60405161013c919061165f565b60405180910390f35b34801561015157600080fd5b5061016c60048036038101906101679190611778565b6109f6565b6040516101799190611193565b60405180910390f35b34801561018e57600080fd5b50610197610d58565b6040516101a49190611871565b60405180910390f35b3480156101b957600080fd5b506101d460048036038101906101cf91906115f1565b610d7c565b005b3480156101e257600080fd5b506101fd60048036038101906101f8919061188c565b610dce565b005b60015481565b6001548b8b90501115801561021f5750888890508b8b9050145b801561023057508888905087879050145b801561024157508686905085859050145b610280576040517f08c379a000000000000000000000000000000000000000000000000000000000815260040161027790611916565b60405180910390fd5b600080341115610346577f000000000000000000000000000000000000000000000000000000000000000073ffffffffffffffffffffffffffffffffffffffff1663d0e30db0346040518263ffffffff1660e01b81526004016000604051808303818588803b1580156102f257600080fd5b505af1158015610306573d6000803e3d6000fd5b50505050503490507f59e3c56b3739d587caa0270fae7c28e1b6a1af555395ad122400ff97d48fed168160405161033d9190611193565b60405180910390a15b60005b8888905081101561095f57600073ffffffffffffffffffffffffffffffffffffffff1689898381811061037f5761037e611936565b5b9050602002016020810190610394919061188c565b73ffffffffffffffffffffffffffffffffffffffff16141561064a576000821115610645578281815181106103cc576103cb611936565b5b6020026020010151821015610433577f0b74b0798ec89f7cf91b1446e01c1bb75b7d55c45b104edfb364a46a074e2f56828483815181106104105761040f611936565b5b6020026020010151604051610426929190611965565b60405180910390a161095f565b600083828151811061044857610447611936565b5b60200260200101511115610586577f000000000000000000000000000000000000000000000000000000000000000073ffffffffffffffffffffffffffffffffffffffff16632e1a7d4d8483815181106104a5576104a4611936565b5b60200260200101516040518263ffffffff1660e01b81526004016104c99190611193565b600060405180830381600087803b1580156104e357600080fd5b505af11580156104f7573d6000803e3d6000fd5b5050505082818151811061050e5761050d611936565b5b60200260200101518261052191906119bd565b915061054e83828151811061053957610538611936565b5b6020026020010151610549610e52565b610e5a565b7f59e3c56b3739d587caa0270fae7c28e1b6a1af555395ad122400ff97d48fed168260405161057d9190611193565b60405180910390a15b6105b07f000000000000000000000000000000000000000000000000000000000000000083610ea5565b600091507f59e3c56b3739d587caa0270fae7c28e1b6a1af555395ad122400ff97d48fed16826040516105e39190611193565b60405180910390a17f680f2e4f4032ebf1774e8cdbaddcb1b617a5a606411c8ca96257ada338d3833c7f00000000000000000000000000000000000000000000000000000000000000008360405161063c9291906119f1565b60405180910390a15b61094c565b7f000000000000000000000000000000000000000000000000000000000000000073ffffffffffffffffffffffffffffffffffffffff168d8d8381811061069457610693611936565b5b90506020020160208101906106a99190611a1a565b73ffffffffffffffffffffffffffffffffffffffff16141561079c578a8a828181106106d8576106d7611936565b5b90506020020160208101906106ed9190611a1a565b73ffffffffffffffffffffffffffffffffffffffff168d8d8381811061071657610715611936565b5b905060200201602081019061072b9190611a1a565b73ffffffffffffffffffffffffffffffffffffffff16141561074c5761094c565b6107978d8d8381811061076257610761611936565b5b90506020020160208101906107779190611a1a565b84838151811061078a57610789611936565b5b6020026020010151610f37565b6107e8565b6107e78d8d838181106107b2576107b1611936565b5b90506020020160208101906107c79190611a1a565b8483815181106107da576107d9611936565b5b6020026020010151610f37565b5b60006108b78c8c84818110610800576107ff611936565b5b90506020020160208101906108159190611a1a565b8f8f8581811061082857610827611936565b5b905060200201602081019061083d9190611a1a565b8c8c868181106108505761084f611936565b5b9050602002016020810190610865919061188c565b8b8b8781811061087857610877611936565b5b905060200201602081019061088d9190611a47565b8a8a888181106108a05761089f611936565b5b90506020028101906108b29190611a83565b6109f6565b90506108ea8c8c848181106108cf576108ce611936565b5b90506020020160208101906108e49190611a1a565b82610ea5565b7f680f2e4f4032ebf1774e8cdbaddcb1b617a5a606411c8ca96257ada338d3833c8c8c8481811061091e5761091d611936565b5b90506020020160208101906109339190611a1a565b82604051610942929190611b07565b60405180910390a1505b808061095790611b30565b915050610349565b50505050505050505050505050565b610976611030565b61098060006110ae565b565b61098a611030565b806001819055507f5091ccfe22ca8f99d8f1f07c6ae3a61daf990d74ef229d46898624ff3977238c6001546040516109c29190611193565b60405180910390a150565b60008060009054906101000a900473ffffffffffffffffffffffffffffffffffffffff16905090565b60008073ffffffffffffffffffffffffffffffffffffffff168573ffffffffffffffffffffffffffffffffffffffff161415610a67576040517f08c379a0000000000000000000000000000000000000000000000000000000008152600401610a5e90611bc5565b60405180910390fd5b60008773ffffffffffffffffffffffffffffffffffffffff166370a08231306040518263ffffffff1660e01b8152600401610aa2919061165f565b60206040518083038186803b158015610aba57600080fd5b505afa158015610ace573d6000803e3d6000fd5b505050506040513d601f19601f82011682018060405250810190610af29190611bfa565b90508673ffffffffffffffffffffffffffffffffffffffff1663095ea7b3876fffffffffffffffffffffffffffffffff6040518363ffffffff1660e01b8152600401610b3f929190611c74565b602060405180830381600087803b158015610b5957600080fd5b505af1158015610b6d573d6000803e3d6000fd5b505050506040513d601f19601f82011682018060405250810190610b919190611cd5565b5060008573ffffffffffffffffffffffffffffffffffffffff1660008686604051610bbd929190611d41565b60006040518083038185875af1925050503d8060008114610bfa576040519150601f19603f3d011682016040523d82523d6000602084013e610bff565b606091505b505090507fb1bbdf0cbdd013d8d322184c42c16dafe4b2b3b66c3d60f46874b6c78b9a87f68183604051610c34929190611d69565b60405180910390a180610c7c576040517f08c379a0000000000000000000000000000000000000000000000000000000008152600401610c7390611dde565b60405180910390fd5b818973ffffffffffffffffffffffffffffffffffffffff166370a08231306040518263ffffffff1660e01b8152600401610cb6919061165f565b60206040518083038186803b158015610cce57600080fd5b505afa158015610ce2573d6000803e3d6000fd5b505050506040513d601f19601f82011682018060405250810190610d069190611bfa565b610d1091906119bd565b91507f74496fce2cdc392d99808924e4161c005195a64fee4c166b02c2b716db28abb082604051610d419190611193565b60405180910390a181925050509695505050505050565b7f000000000000000000000000000000000000000000000000000000000000000081565b610d84611030565b3373ffffffffffffffffffffffffffffffffffffffff166108fc829081150290604051600060405180830381858888f19350505050158015610dca573d6000803e3d6000fd5b5050565b610dd6611030565b600073ffffffffffffffffffffffffffffffffffffffff168173ffffffffffffffffffffffffffffffffffffffff161415610e46576040517f08c379a0000000000000000000000000000000000000000000000000000000008152600401610e3d90611e70565b60405180910390fd5b610e4f816110ae565b50565b600033905090565b8073ffffffffffffffffffffffffffffffffffffffff166108fc839081150290604051600060405180830381858888f19350505050158015610ea0573d6000803e3d6000fd5b505050565b8173ffffffffffffffffffffffffffffffffffffffff1663a9059cbb33836040518363ffffffff1660e01b8152600401610ee0929190611e90565b602060405180830381600087803b158015610efa57600080fd5b505af1158015610f0e573d6000803e3d6000fd5b505050506040513d601f19601f82011682018060405250810190610f329190611cd5565b505050565b8173ffffffffffffffffffffffffffffffffffffffff166323b872dd3330846040518463ffffffff1660e01b8152600401610f7493929190611eb9565b602060405180830381600087803b158015610f8e57600080fd5b505af1158015610fa2573d6000803e3d6000fd5b505050506040513d601f19601f82011682018060405250810190610fc69190611cd5565b503073ffffffffffffffffffffffffffffffffffffffff163373ffffffffffffffffffffffffffffffffffffffff167fd6d3eb25a413c05d8107fc49deb2789bef7f612582b2482804c0b0423b6638ee836040516110249190611193565b60405180910390a35050565b611038611172565b73ffffffffffffffffffffffffffffffffffffffff166110566109cd565b73ffffffffffffffffffffffffffffffffffffffff16146110ac576040517f08c379a00000000000000000000000000000000000000000000000000000000081526004016110a390611f3c565b60405180910390fd5b565b60008060009054906101000a900473ffffffffffffffffffffffffffffffffffffffff169050816000806101000a81548173ffffffffffffffffffffffffffffffffffffffff021916908373ffffffffffffffffffffffffffffffffffffffff1602179055508173ffffffffffffffffffffffffffffffffffffffff168173ffffffffffffffffffffffffffffffffffffffff167f8be0079c531659141344cd1fd0a4f28419497f9722a3daafe3b4186f6b6457e060405160405180910390a35050565b600033905090565b6000819050919050565b61118d8161117a565b82525050565b60006020820190506111a86000830184611184565b92915050565b6000604051905090565b600080fd5b600080fd5b600080fd5b600080fd5b600080fd5b60008083601f8401126111e7576111e66111c2565b5b8235905067ffffffffffffffff811115611204576112036111c7565b5b6020830191508360208202830111156112205761121f6111cc565b5b9250929050565b60008083601f84011261123d5761123c6111c2565b5b8235905067ffffffffffffffff81111561125a576112596111c7565b5b602083019150836020820283011115611276576112756111cc565b5b9250929050565b60008083601f840112611293576112926111c2565b5b8235905067ffffffffffffffff8111156112b0576112af6111c7565b5b6020830191508360208202830111156112cc576112cb6111cc565b5b9250929050565b60008083601f8401126112e9576112e86111c2565b5b8235905067ffffffffffffffff811115611306576113056111c7565b5b602083019150836020820283011115611322576113216111cc565b5b9250929050565b6000601f19601f8301169050919050565b7f4e487b7100000000000000000000000000000000000000000000000000000000600052604160045260246000fd5b61137282611329565b810181811067ffffffffffffffff821117156113915761139061133a565b5b80604052505050565b60006113a46111ae565b90506113b08282611369565b919050565b600067ffffffffffffffff8211156113d0576113cf61133a565b5b602082029050602081019050919050565b6113ea8161117a565b81146113f557600080fd5b50565b600081359050611407816113e1565b92915050565b600061142061141b846113b5565b61139a565b90508083825260208201905060208402830185811115611443576114426111cc565b5b835b8181101561146c578061145888826113f8565b845260208401935050602081019050611445565b5050509392505050565b600082601f83011261148b5761148a6111c2565b5b813561149b84826020860161140d565b91505092915050565b600080600080600080600080600080600060c08c8e0312156114c9576114c86111b8565b5b60008c013567ffffffffffffffff8111156114e7576114e66111bd565b5b6114f38e828f016111d1565b9b509b505060208c013567ffffffffffffffff811115611516576115156111bd565b5b6115228e828f016111d1565b995099505060408c013567ffffffffffffffff811115611545576115446111bd565b5b6115518e828f01611227565b975097505060608c013567ffffffffffffffff811115611574576115736111bd565b5b6115808e828f0161127d565b955095505060808c013567ffffffffffffffff8111156115a3576115a26111bd565b5b6115af8e828f016112d3565b935093505060a08c013567ffffffffffffffff8111156115d2576115d16111bd565b5b6115de8e828f01611476565b9150509295989b509295989b9093969950565b600060208284031215611607576116066111b8565b5b6000611615848285016113f8565b91505092915050565b600073ffffffffffffffffffffffffffffffffffffffff82169050919050565b60006116498261161e565b9050919050565b6116598161163e565b82525050565b60006020820190506116746000830184611650565b92915050565b60006116858261163e565b9050919050565b6116958161167a565b81146116a057600080fd5b50565b6000813590506116b28161168c565b92915050565b6116c18161163e565b81146116cc57600080fd5b50565b6000813590506116de816116b8565b92915050565b60006116ef8261161e565b9050919050565b6116ff816116e4565b811461170a57600080fd5b50565b60008135905061171c816116f6565b92915050565b60008083601f840112611738576117376111c2565b5b8235905067ffffffffffffffff811115611755576117546111c7565b5b602083019150836001820283011115611771576117706111cc565b5b9250929050565b60008060008060008060a08789031215611795576117946111b8565b5b60006117a389828a016116a3565b96505060206117b489828a016116a3565b95505060406117c589828a016116cf565b94505060606117d689828a0161170d565b935050608087013567ffffffffffffffff8111156117f7576117f66111bd565b5b61180389828a01611722565b92509250509295509295509295565b6000819050919050565b600061183761183261182d8461161e565b611812565b61161e565b9050919050565b60006118498261181c565b9050919050565b600061185b8261183e565b9050919050565b61186b81611850565b82525050565b60006020820190506118866000830184611862565b92915050565b6000602082840312156118a2576118a16111b8565b5b60006118b0848285016116cf565b91505092915050565b600082825260208201905092915050565b7f506c656173652070726f766964652076616c6964206461746100000000000000600082015250565b60006119006019836118b9565b915061190b826118ca565b602082019050919050565b6000602082019050818103600083015261192f816118f3565b9050919050565b7f4e487b7100000000000000000000000000000000000000000000000000000000600052603260045260246000fd5b600060408201905061197a6000830185611184565b6119876020830184611184565b9392505050565b7f4e487b7100000000000000000000000000000000000000000000000000000000600052601160045260246000fd5b60006119c88261117a565b91506119d38361117a565b9250828210156119e6576119e561198e565b5b828203905092915050565b6000604082019050611a066000830185611862565b611a136020830184611184565b9392505050565b600060208284031215611a3057611a2f6111b8565b5b6000611a3e848285016116a3565b91505092915050565b600060208284031215611a5d57611a5c6111b8565b5b6000611a6b8482850161170d565b91505092915050565b600080fd5b600080fd5b600080fd5b60008083356001602003843603038112611aa057611a9f611a74565b5b80840192508235915067ffffffffffffffff821115611ac257611ac1611a79565b5b602083019250600182023603831315611ade57611add611a7e565b5b509250929050565b6000611af18261183e565b9050919050565b611b0181611ae6565b82525050565b6000604082019050611b1c6000830185611af8565b611b296020830184611184565b9392505050565b6000611b3b8261117a565b91507fffffffffffffffffffffffffffffffffffffffffffffffffffffffffffffffff821415611b6e57611b6d61198e565b5b600182019050919050565b7f506c656173652070726f7669646520612076616c696420616464726573730000600082015250565b6000611baf601e836118b9565b9150611bba82611b79565b602082019050919050565b60006020820190508181036000830152611bde81611ba2565b9050919050565b600081519050611bf4816113e1565b92915050565b600060208284031215611c1057611c0f6111b8565b5b6000611c1e84828501611be5565b91505092915050565b60006fffffffffffffffffffffffffffffffff82169050919050565b6000611c5e611c59611c5484611c27565b611812565b61117a565b9050919050565b611c6e81611c43565b82525050565b6000604082019050611c896000830185611650565b611c966020830184611c65565b9392505050565b60008115159050919050565b611cb281611c9d565b8114611cbd57600080fd5b50565b600081519050611ccf81611ca9565b92915050565b600060208284031215611ceb57611cea6111b8565b5b6000611cf984828501611cc0565b91505092915050565b600081905092915050565b82818337600083830152505050565b6000611d288385611d02565b9350611d35838584611d0d565b82840190509392505050565b6000611d4e828486611d1c565b91508190509392505050565b611d6381611c9d565b82525050565b6000604082019050611d7e6000830185611d5a565b611d8b6020830184611184565b9392505050565b7f535741505f43414c4c5f4641494c454400000000000000000000000000000000600082015250565b6000611dc86010836118b9565b9150611dd382611d92565b602082019050919050565b60006020820190508181036000830152611df781611dbb565b9050919050565b7f4f776e61626c653a206e6577206f776e657220697320746865207a65726f206160008201527f6464726573730000000000000000000000000000000000000000000000000000602082015250565b6000611e5a6026836118b9565b9150611e6582611dfe565b604082019050919050565b60006020820190508181036000830152611e8981611e4d565b9050919050565b6000604082019050611ea56000830185611650565b611eb26020830184611184565b9392505050565b6000606082019050611ece6000830186611650565b611edb6020830185611650565b611ee86040830184611184565b949350505050565b7f4f776e61626c653a2063616c6c6572206973206e6f7420746865206f776e6572600082015250565b6000611f266020836118b9565b9150611f3182611ef0565b602082019050919050565b60006020820190508181036000830152611f5581611f19565b905091905056fea26469706673582212202fdcb54a87877a045503771ef22851564fc6be81fb2a2aae2836fa2b5060c30d64736f6c63430008080033",
  "linkReferences": {},
  "deployedLinkReferences": {}
}