{"contracts/AlphaVault.sol":{"AlphaVaultSwap":{"abi":[{"inputs":[],"stateMutability":"nonpayable","type":"constructor"},{"anonymous":false,"inputs":[{"indexed":false,"internalType":"uint256","name":"wethBal_","type":"uint256"},{"indexed":false,"internalType":"uint256","name":"reqAmount_","type":"uint256"}],"name":"BadRequest","type":"event"},{"anonymous":false,"inputs":[{"indexed":false,"internalType":"uint256","name":"wethBal_","type":"uint256"}],"name":"EtherBalanceChange","type":"event"},{"anonymous":false,"inputs":[{"indexed":true,"internalType":"address","name":"previousOwner","type":"address"},{"indexed":true,"internalType":"address","name":"newOwner","type":"address"}],"name":"OwnershipTransferred","type":"event"},{"anonymous":false,"inputs":[{"indexed":true,"internalType":"address","name":"from_","type":"address"},{"indexed":true,"internalType":"address","name":"to_","type":"address"},{"indexed":false,"internalType":"uint256","name":"amount_","type":"uint256"}],"name":"TransferSuccessful","type":"event"},{"anonymous":false,"inputs":[{"indexed":false,"internalType":"contract IERC20","name":"buyToken","type":"address"},{"indexed":false,"internalType":"uint256","name":"boughtAmount_","type":"uint256"}],"name":"WithdrawTokens","type":"event"},{"anonymous":false,"inputs":[{"indexed":false,"internalType":"bool","name":"status","type":"bool"},{"indexed":false,"internalType":"uint256","name":"initialBuyTokenBalance","type":"uint256"}],"name":"ZeroXCallSuccess","type":"event"},{"anonymous":false,"inputs":[{"indexed":false,"internalType":"uint256","name":"buTokenAmount","type":"uint256"}],"name":"buyTokenBought","type":"event"},{"anonymous":false,"inputs":[{"indexed":false,"internalType":"uint256","name":"maxTransactions","type":"uint256"}],"name":"maxTransactionsChange","type":"event"},{"stateMutability":"payable","type":"fallback"},{"inputs":[],"name":"WETH","outputs":[{"internalType":"contract IWETH","name":"","type":"address"}],"stateMutability":"view","type":"function"},{"inputs":[{"internalType":"contract IERC20","name":"buyToken","type":"address"},{"internalType":"contract IERC20","name":"sellToken","type":"address"},{"internalType":"address","name":"spender","type":"address"},{"internalType":"address payable","name":"swapTarget","type":"address"},{"internalType":"bytes","name":"swapCallData","type":"bytes"}],"name":"fillQuote","outputs":[{"internalType":"uint256","name":"","type":"uint256"}],"stateMutability":"nonpayable","type":"function"},{"inputs":[],"name":"maxTransactions","outputs":[{"internalType":"uint256","name":"","type":"uint256"}],"stateMutability":"view","type":"function"},{"inputs":[{"internalType":"contract IERC20[]","name":"sellToken","type":"address[]"},{"internalType":"contract IERC20[]","name":"buyToken","type":"address[]"},{"internalType":"address[]","name":"spender","type":"address[]"},{"internalType":"address payable[]","name":"swapTarget","type":"address[]"},{"internalType":"bytes[]","name":"swapCallData","type":"bytes[]"},{"internalType":"uint256[]","name":"amount","type":"uint256[]"}],"name":"multiSwap","outputs":[],"stateMutability":"payable","type":"function"},{"inputs":[],"name":"owner","outputs":[{"internalType":"address","name":"","type":"address"}],"stateMutability":"view","type":"function"},{"inputs":[],"name":"renounceOwnership","outputs":[],"stateMutability":"nonpayable","type":"function"},{"inputs":[{"internalType":"uint256","name":"num","type":"uint256"}],"name":"setMaxTransactionLimit","outputs":[],"stateMutability":"nonpayable","type":"function"},{"inputs":[{"internalType":"address","name":"newOwner","type":"address"}],"name":"transferOwnership","outputs":[],"stateMutability":"nonpayable","type":"function"},{"inputs":[{"internalType":"uint256","name":"amount","type":"uint256"}],"name":"withdrawETH","outputs":[],"stateMutability":"nonpayable","type":"function"},{"stateMutability":"payable","type":"receive"}],"devdoc":{"events":{"TransferSuccessful(address,address,uint256)":{"details":"Event to notify if transfer successful or failed after account approval verified"}},"kind":"dev","methods":{"multiSwap(address[],address[],address[],address[],bytes[],uint256[])":{"params":{"amount":"numbers of token to transfer  in unit256"}},"owner()":{"details":"Returns the address of the current owner."},"renounceOwnership()":{"details":"Leaves the contract without owner. It will not be possible to call `onlyOwner` functions anymore. Can only be called by the current owner. NOTE: Renouncing ownership will leave the contract without an owner, thereby removing any functionality that is only available to the owner."},"transferOwnership(address)":{"details":"Transfers ownership of the contract to a new account (`newOwner`). Can only be called by the current owner."}},"version":1},"evm":{"bytecode":{"linkReferences":{},"object":"60a060405234801561001057600080fd5b5061002d61002261008560201b60201c565b61008d60201b60201c565b73c02aaa39b223fe8d0a0e5c4f27ead9083c756cc273ffffffffffffffffffffffffffffffffffffffff1660808173ffffffffffffffffffffffffffffffffffffffff1660601b815250506019600181905550610151565b600033905090565b60008060009054906101000a900473ffffffffffffffffffffffffffffffffffffffff169050816000806101000a81548173ffffffffffffffffffffffffffffffffffffffff021916908373ffffffffffffffffffffffffffffffffffffffff1602179055508173ffffffffffffffffffffffffffffffffffffffff168173ffffffffffffffffffffffffffffffffffffffff167f8be0079c531659141344cd1fd0a4f28419497f9722a3daafe3b4186f6b6457e060405160405180910390a35050565b60805160601c611f926101926000396000818161028c015281816104580152818161058b0152818161060e0152818161064c0152610d5a0152611f926000f3fe60806040526004361061008a5760003560e01c80638da5cb5b116100595780638da5cb5b1461011a578063ab97161214610145578063ad5c464814610182578063f14210a6146101ad578063f2fde38b146101d657610091565b806324e1c18d146100935780636ca591a7146100be578063715018a6146100da5780637a9d7c14146100f157610091565b3661009157005b005b34801561009f57600080fd5b506100a86101ff565b6040516100b59190611193565b60405180910390f35b6100d860048036038101906100d391906114a4565b610205565b005b3480156100e657600080fd5b506100ef61096e565b005b3480156100fd57600080fd5b50610118600480360381019061011391906115f1565b610982565b005b34801561012657600080fd5b5061012f6109cd565b60405161013c919061165f565b60405180910390f35b34801561015157600080fd5b5061016c60048036038101906101679190611778565b6109f6565b6040516101799190611193565b60405180910390f35b34801561018e57600080fd5b50610197610d58565b6040516101a49190611871565b60405180910390f35b3480156101b957600080fd5b506101d460048036038101906101cf91906115f1565b610d7c565b005b3480156101e257600080fd5b506101fd60048036038101906101f8919061188c565b610dce565b005b60015481565b6001548b8b90501115801561021f5750888890508b8b9050145b801561023057508888905087879050145b801561024157508686905085859050145b610280576040517f08c379a000000000000000000000000000000000000000000000000000000000815260040161027790611916565b60405180910390fd5b600080341115610346577f000000000000000000000000000000000000000000000000000000000000000073ffffffffffffffffffffffffffffffffffffffff1663d0e30db0346040518263ffffffff1660e01b81526004016000604051808303818588803b1580156102f257600080fd5b505af1158015610306573d6000803e3d6000fd5b50505050503490507f59e3c56b3739d587caa0270fae7c28e1b6a1af555395ad122400ff97d48fed168160405161033d9190611193565b60405180910390a15b60005b8888905081101561095f57600073ffffffffffffffffffffffffffffffffffffffff1689898381811061037f5761037e611936565b5b9050602002016020810190610394919061188c565b73ffffffffffffffffffffffffffffffffffffffff16141561064a576000821115610645578281815181106103cc576103cb611936565b5b6020026020010151821015610433577f0b74b0798ec89f7cf91b1446e01c1bb75b7d55c45b104edfb364a46a074e2f56828483815181106104105761040f611936565b5b6020026020010151604051610426929190611965565b60405180910390a161095f565b600083828151811061044857610447611936565b5b60200260200101511115610586577f000000000000000000000000000000000000000000000000000000000000000073ffffffffffffffffffffffffffffffffffffffff16632e1a7d4d8483815181106104a5576104a4611936565b5b60200260200101516040518263ffffffff1660e01b81526004016104c99190611193565b600060405180830381600087803b1580156104e357600080fd5b505af11580156104f7573d6000803e3d6000fd5b5050505082818151811061050e5761050d611936565b5b60200260200101518261052191906119bd565b915061054e83828151811061053957610538611936565b5b6020026020010151610549610e52565b610e5a565b7f59e3c56b3739d587caa0270fae7c28e1b6a1af555395ad122400ff97d48fed168260405161057d9190611193565b60405180910390a15b6105b07f000000000000000000000000000000000000000000000000000000000000000083610ea5565b600091507f59e3c56b3739d587caa0270fae7c28e1b6a1af555395ad122400ff97d48fed16826040516105e39190611193565b60405180910390a17f680f2e4f4032ebf1774e8cdbaddcb1b617a5a606411c8ca96257ada338d3833c7f00000000000000000000000000000000000000000000000000000000000000008360405161063c9291906119f1565b60405180910390a15b61094c565b7f000000000000000000000000000000000000000000000000000000000000000073ffffffffffffffffffffffffffffffffffffffff168d8d8381811061069457610693611936565b5b90506020020160208101906106a99190611a1a565b73ffffffffffffffffffffffffffffffffffffffff16141561079c578a8a828181106106d8576106d7611936565b5b90506020020160208101906106ed9190611a1a565b73ffffffffffffffffffffffffffffffffffffffff168d8d8381811061071657610715611936565b5b905060200201602081019061072b9190611a1a565b73ffffffffffffffffffffffffffffffffffffffff16141561074c5761094c565b6107978d8d8381811061076257610761611936565b5b90506020020160208101906107779190611a1a565b84838151811061078a57610789611936565b5b6020026020010151610f37565b6107e8565b6107e78d8d838181106107b2576107b1611936565b5b90506020020160208101906107c79190611a1a565b8483815181106107da576107d9611936565b5b6020026020010151610f37565b5b60006108b78c8c84818110610800576107ff611936565b5b90506020020160208101906108159190611a1a565b8f8f8581811061082857610827611936565b5b905060200201602081019061083d9190611a1a565b8c8c868181106108505761084f611936565b5b9050602002016020810190610865919061188c565b8b8b8781811061087857610877611936565b5b905060200201602081019061088d9190611a47565b8a8a888181106108a05761089f611936565b5b90506020028101906108b29190611a83565b6109f6565b90506108ea8c8c848181106108cf576108ce611936565b5b90506020020160208101906108e49190611a1a565b82610ea5565b7f680f2e4f4032ebf1774e8cdbaddcb1b617a5a606411c8ca96257ada338d3833c8c8c8481811061091e5761091d611936565b5b90506020020160208101906109339190611a1a565b82604051610942929190611b07565b60405180910390a1505b808061095790611b30565b915050610349565b50505050505050505050505050565b610976611030565b61098060006110ae565b565b61098a611030565b806001819055507f5091ccfe22ca8f99d8f1f07c6ae3a61daf990d74ef229d46898624ff3977238c6001546040516109c29190611193565b60405180910390a150565b60008060009054906101000a900473ffffffffffffffffffffffffffffffffffffffff16905090565b60008073ffffffffffffffffffffffffffffffffffffffff168573ffffffffffffffffffffffffffffffffffffffff161415610a67576040517f08c379a0000000000000000000000000000000000000000000000000000000008152600401610a5e90611bc5565b60405180910390fd5b60008773ffffffffffffffffffffffffffffffffffffffff166370a08231306040518263ffffffff1660e01b8152600401610aa2919061165f565b60206040518083038186803b158015610aba57600080fd5b505afa158015610ace573d6000803e3d6000fd5b505050506040513d601f19601f82011682018060405250810190610af29190611bfa565b90508673ffffffffffffffffffffffffffffffffffffffff1663095ea7b3876fffffffffffffffffffffffffffffffff6040518363ffffffff1660e01b8152600401610b3f929190611c74565b602060405180830381600087803b158015610b5957600080fd5b505af1158015610b6d573d6000803e3d6000fd5b505050506040513d601f19601f82011682018060405250810190610b919190611cd5565b5060008573ffffffffffffffffffffffffffffffffffffffff1660008686604051610bbd929190611d41565b60006040518083038185875af1925050503d8060008114610bfa576040519150601f19603f3d011682016040523d82523d6000602084013e610bff565b606091505b505090507fb1bbdf0cbdd013d8d322184c42c16dafe4b2b3b66c3d60f46874b6c78b9a87f68183604051610c34929190611d69565b60405180910390a180610c7c576040517f08c379a0000000000000000000000000000000000000000000000000000000008152600401610c7390611dde565b60405180910390fd5b818973ffffffffffffffffffffffffffffffffffffffff166370a08231306040518263ffffffff1660e01b8152600401610cb6919061165f565b60206040518083038186803b158015610cce57600080fd5b505afa158015610ce2573d6000803e3d6000fd5b505050506040513d601f19601f82011682018060405250810190610d069190611bfa565b610d1091906119bd565b91507f74496fce2cdc392d99808924e4161c005195a64fee4c166b02c2b716db28abb082604051610d419190611193565b60405180910390a181925050509695505050505050565b7f000000000000000000000000000000000000000000000000000000000000000081565b610d84611030565b3373ffffffffffffffffffffffffffffffffffffffff166108fc829081150290604051600060405180830381858888f19350505050158015610dca573d6000803e3d6000fd5b5050565b610dd6611030565b600073ffffffffffffffffffffffffffffffffffffffff168173ffffffffffffffffffffffffffffffffffffffff161415610e46576040517f08c379a0000000000000000000000000000000000000000000000000000000008152600401610e3d90611e70565b60405180910390fd5b610e4f816110ae565b50565b600033905090565b8073ffffffffffffffffffffffffffffffffffffffff166108fc839081150290604051600060405180830381858888f19350505050158015610ea0573d6000803e3d6000fd5b505050565b8173ffffffffffffffffffffffffffffffffffffffff1663a9059cbb33836040518363ffffffff1660e01b8152600401610ee0929190611e90565b602060405180830381600087803b158015610efa57600080fd5b505af1158015610f0e573d6000803e3d6000fd5b505050506040513d601f19601f82011682018060405250810190610f329190611cd5565b505050565b8173ffffffffffffffffffffffffffffffffffffffff166323b872dd3330846040518463ffffffff1660e01b8152600401610f7493929190611eb9565b602060405180830381600087803b158015610f8e57600080fd5b505af1158015610fa2573d6000803e3d6000fd5b505050506040513d601f19601f82011682018060405250810190610fc69190611cd5565b503073ffffffffffffffffffffffffffffffffffffffff163373ffffffffffffffffffffffffffffffffffffffff167fd6d3eb25a413c05d8107fc49deb2789bef7f612582b2482804c0b0423b6638ee836040516110249190611193565b60405180910390a35050565b611038611172565b73ffffffffffffffffffffffffffffffffffffffff166110566109cd565b73ffffffffffffffffffffffffffffffffffffffff16146110ac576040517f08c379a00000000000000000000000000000000000000000000000000000000081526004016110a390611f3c565b60405180910390fd5b565b60008060009054906101000a900473ffffffffffffffffffffffffffffffffffffffff169050816000806101000a81548173ffffffffffffffffffffffffffffffffffffffff021916908373ffffffffffffffffffffffffffffffffffffffff1602179055508173ffffffffffffffffffffffffffffffffffffffff168173ffffffffffffffffffffffffffffffffffffffff167f8be0079c531659141344cd1fd0a4f28419497f9722a3daafe3b4186f6b6457e060405160405180910390a35050565b600033905090565b6000819050919050565b61118d8161117a565b82525050565b60006020820190506111a86000830184611184565b92915050565b6000604051905090565b600080fd5b600080fd5b600080fd5b600080fd5b600080fd5b60008083601f8401126111e7576111e66111c2565b5b8235905067ffffffffffffffff811115611204576112036111c7565b5b6020830191508360208202830111156112205761121f6111cc565b5b9250929050565b60008083601f84011261123d5761123c6111c2565b5b8235905067ffffffffffffffff81111561125a576112596111c7565b5b602083019150836020820283011115611276576112756111cc565b5b9250929050565b60008083601f840112611293576112926111c2565b5b8235905067ffffffffffffffff8111156112b0576112af6111c7565b5b6020830191508360208202830111156112cc576112cb6111cc565b5b9250929050565b60008083601f8401126112e9576112e86111c2565b5b8235905067ffffffffffffffff811115611306576113056111c7565b5b602083019150836020820283011115611322576113216111cc565b5b9250929050565b6000601f19601f8301169050919050565b7f4e487b7100000000000000000000000000000000000000000000000000000000600052604160045260246000fd5b61137282611329565b810181811067ffffffffffffffff821117156113915761139061133a565b5b80604052505050565b60006113a46111ae565b90506113b08282611369565b919050565b600067ffffffffffffffff8211156113d0576113cf61133a565b5b602082029050602081019050919050565b6113ea8161117a565b81146113f557600080fd5b50565b600081359050611407816113e1565b92915050565b600061142061141b846113b5565b61139a565b90508083825260208201905060208402830185811115611443576114426111cc565b5b835b8181101561146c578061145888826113f8565b845260208401935050602081019050611445565b5050509392505050565b600082601f83011261148b5761148a6111c2565b5b813561149b84826020860161140d565b91505092915050565b600080600080600080600080600080600060c08c8e0312156114c9576114c86111b8565b5b60008c013567ffffffffffffffff8111156114e7576114e66111bd565b5b6114f38e828f016111d1565b9b509b505060208c013567ffffffffffffffff811115611516576115156111bd565b5b6115228e828f016111d1565b995099505060408c013567ffffffffffffffff811115611545576115446111bd565b5b6115518e828f01611227565b975097505060608c013567ffffffffffffffff811115611574576115736111bd565b5b6115808e828f0161127d565b955095505060808c013567ffffffffffffffff8111156115a3576115a26111bd565b5b6115af8e828f016112d3565b935093505060a08c013567ffffffffffffffff8111156115d2576115d16111bd565b5b6115de8e828f01611476565b9150509295989b509295989b9093969950565b600060208284031215611607576116066111b8565b5b6000611615848285016113f8565b91505092915050565b600073ffffffffffffffffffffffffffffffffffffffff82169050919050565b60006116498261161e565b9050919050565b6116598161163e565b82525050565b60006020820190506116746000830184611650565b92915050565b60006116858261163e565b9050919050565b6116958161167a565b81146116a057600080fd5b50565b6000813590506116b28161168c565b92915050565b6116c18161163e565b81146116cc57600080fd5b50565b6000813590506116de816116b8565b92915050565b60006116ef8261161e565b9050919050565b6116ff816116e4565b811461170a57600080fd5b50565b60008135905061171c816116f6565b92915050565b60008083601f840112611738576117376111c2565b5b8235905067ffffffffffffffff811115611755576117546111c7565b5b602083019150836001820283011115611771576117706111cc565b5b9250929050565b60008060008060008060a08789031215611795576117946111b8565b5b60006117a389828a016116a3565b96505060206117b489828a016116a3565b95505060406117c589828a016116cf565b94505060606117d689828a0161170d565b935050608087013567ffffffffffffffff8111156117f7576117f66111bd565b5b61180389828a01611722565b92509250509295509295509295565b6000819050919050565b600061183761183261182d8461161e565b611812565b61161e565b9050919050565b60006118498261181c565b9050919050565b600061185b8261183e565b9050919050565b61186b81611850565b82525050565b60006020820190506118866000830184611862565b92915050565b6000602082840312156118a2576118a16111b8565b5b60006118b0848285016116cf565b91505092915050565b600082825260208201905092915050565b7f506c656173652070726f766964652076616c6964206461746100000000000000600082015250565b60006119006019836118b9565b915061190b826118ca565b602082019050919050565b6000602082019050818103600083015261192f816118f3565b9050919050565b7f4e487b7100000000000000000000000000000000000000000000000000000000600052603260045260246000fd5b600060408201905061197a6000830185611184565b6119876020830184611184565b9392505050565b7f4e487b7100000000000000000000000000000000000000000000000000000000600052601160045260246000fd5b60006119c88261117a565b91506119d38361117a565b9250828210156119e6576119e561198e565b5b828203905092915050565b6000604082019050611a066000830185611862565b611a136020830184611184565b9392505050565b600060208284031215611a3057611a2f6111b8565b5b6000611a3e848285016116a3565b91505092915050565b600060208284031215611a5d57611a5c6111b8565b5b6000611a6b8482850161170d565b91505092915050565b600080fd5b600080fd5b600080fd5b60008083356001602003843603038112611aa057611a9f611a74565b5b80840192508235915067ffffffffffffffff821115611ac257611ac1611a79565b5b602083019250600182023603831315611ade57611add611a7e565b5b509250929050565b6000611af18261183e565b9050919050565b611b0181611ae6565b82525050565b6000604082019050611b1c6000830185611af8565b611b296020830184611184565b9392505050565b6000611b3b8261117a565b91507fffffffffffffffffffffffffffffffffffffffffffffffffffffffffffffffff821415611b6e57611b6d61198e565b5b600182019050919050565b7f506c656173652070726f7669646520612076616c696420616464726573730000600082015250565b6000611baf601e836118b9565b9150611bba82611b79565b602082019050919050565b60006020820190508181036000830152611bde81611ba2565b9050919050565b600081519050611bf4816113e1565b92915050565b600060208284031215611c1057611c0f6111b8565b5b6000611c1e84828501611be5565b91505092915050565b60006fffffffffffffffffffffffffffffffff82169050919050565b6000611c5e611c59611c5484611c27565b611812565b61117a565b9050919050565b611c6e81611c43565b82525050565b6000604082019050611c896000830185611650565b611c966020830184611c65565b9392505050565b60008115159050919050565b611cb281611c9d565b8114611cbd57600080fd5b50565b600081519050611ccf81611ca9565b92915050565b600060208284031215611ceb57611cea6111b8565b5b6000611cf984828501611cc0565b91505092915050565b600081905092915050565b82818337600083830152505050565b6000611d288385611d02565b9350611d35838584611d0d565b82840190509392505050565b6000611d4e828486611d1c565b91508190509392505050565b611d6381611c9d565b82525050565b6000604082019050611d7e6000830185611d5a565b611d8b6020830184611184565b9392505050565b7f535741505f43414c4c5f4641494c454400000000000000000000000000000000600082015250565b6000611dc86010836118b9565b9150611dd382611d92565b602082019050919050565b60006020820190508181036000830152611df781611dbb565b9050919050565b7f4f776e61626c653a206e6577206f776e657220697320746865207a65726f206160008201527f6464726573730000000000000000000000000000000000000000000000000000602082015250565b6000611e5a6026836118b9565b9150611e6582611dfe565b604082019050919050565b60006020820190508181036000830152611e8981611e4d565b9050919050565b6000604082019050611ea56000830185611650565b611eb26020830184611184565b9392505050565b6000606082019050611ece6000830186611650565b611edb6020830185611650565b611ee86040830184611184565b949350505050565b7f4f776e61626c653a2063616c6c6572206973206e6f7420746865206f776e6572600082015250565b6000611f266020836118b9565b9150611f3182611ef0565b602082019050919050565b60006020820190508181036000830152611f5581611f19565b905091905056fea26469706673582212202fdcb54a87877a045503771ef22851564fc6be81fb2a2aae2836fa2b5060c30d64736f6c63430008080033","opcodes":"PUSH1 0xA0 PUSH1 0x40 MSTORE CALLVALUE DUP1 ISZERO PUSH2 0x10 JUMPI PUSH1 0x0 DUP1 REVERT JUMPDEST POP PUSH2 0x2D PUSH2 0x22 PUSH2 0x85 PUSH1 0x20 SHL PUSH1 0x20 SHR JUMP JUMPDEST PUSH2 0x8D PUSH1 0x20 SHL PUSH1 0x20 SHR JUMP JUMPDEST PUSH20 0xC02AAA39B223FE8D0A0E5C4F27EAD9083C756CC2 PUSH20 0xFFFFFFFFFFFFFFFFFFFFFFFFFFFFFFFFFFFFFFFF AND PUSH1 0x80 DUP2 PUSH20 0xFFFFFFFFFFFFFFFFFFFFFFFFFFFFFFFFFFFFFFFF AND PUSH1 0x60 SHL DUP2 MSTORE POP POP PUSH1 0x19 PUSH1 0x1 DUP2 SWAP1 SSTORE POP PUSH2 0x151 JUMP JUMPDEST PUSH1 0x0 CALLER SWAP1 POP SWAP1 JUMP JUMPDEST PUSH1 0x0 DUP1 PUSH1 0x0 SWAP1 SLOAD SWAP1 PUSH2 0x100 EXP SWAP1 DIV PUSH20 0xFFFFFFFFFFFFFFFFFFFFFFFFFFFFFFFFFFFFFFFF AND SWAP1 POP DUP2 PUSH1 0x0 DUP1 PUSH2 0x100 EXP DUP2 SLOAD DUP2 PUSH20 0xFFFFFFFFFFFFFFFFFFFFFFFFFFFFFFFFFFFFFFFF MUL NOT AND SWAP1 DUP4 PUSH20 0xFFFFFFFFFFFFFFFFFFFFFFFFFFFFFFFFFFFFFFFF AND MUL OR SWAP1 SSTORE POP DUP2 PUSH20 0xFFFFFFFFFFFFFFFFFFFFFFFFFFFFFFFFFFFFFFFF AND DUP2 PUSH20 0xFFFFFFFFFFFFFFFFFFFFFFFFFFFFFFFFFFFFFFFF AND PUSH32 0x8BE0079C531659141344CD1FD0A4F28419497F9722A3DAAFE3B4186F6B6457E0 PUSH1 0x40 MLOAD PUSH1 0x40 MLOAD DUP1 SWAP2 SUB SWAP1 LOG3 POP POP JUMP JUMPDEST PUSH1 0x80 MLOAD PUSH1 0x60 SHR PUSH2 0x1F92 PUSH2 0x192 PUSH1 0x0 CODECOPY PUSH1 0x0 DUP2 DUP2 PUSH2 0x28C ADD MSTORE DUP2 DUP2 PUSH2 0x458 ADD MSTORE DUP2 DUP2 PUSH2 0x58B ADD MSTORE DUP2 DUP2 PUSH2 0x60E ADD MSTORE DUP2 DUP2 PUSH2 0x64C ADD MSTORE PUSH2 0xD5A ADD MSTORE PUSH2 0x1F92 PUSH1 0x0 RETURN INVALID PUSH1 0x80 PUSH1 0x40 MSTORE PUSH1 0x4 CALLDATASIZE LT PUSH2 0x8A JUMPI PUSH1 0x0 CALLDATALOAD PUSH1 0xE0 SHR DUP1 PUSH4 0x8DA5CB5B GT PUSH2 0x59 JUMPI DUP1 PUSH4 0x8DA5CB5B EQ PUSH2 0x11A JUMPI DUP1 PUSH4 0xAB971612 EQ PUSH2 0x145 JUMPI DUP1 PUSH4 0xAD5C4648 EQ PUSH2 0x182 JUMPI DUP1 PUSH4 0xF14210A6 EQ PUSH2 0x1AD JUMPI DUP1 PUSH4 0xF2FDE38B EQ PUSH2 0x1D6 JUMPI PUSH2 0x91 JUMP JUMPDEST DUP1 PUSH4 0x24E1C18D EQ PUSH2 0x93 JUMPI DUP1 PUSH4 0x6CA591A7 EQ PUSH2 0xBE JUMPI DUP1 PUSH4 0x715018A6 EQ PUSH2 0xDA JUMPI DUP1 PUSH4 0x7A9D7C14 EQ PUSH2 0xF1 JUMPI PUSH2 0x91 JUMP JUMPDEST CALLDATASIZE PUSH2 0x91 JUMPI STOP JUMPDEST STOP JUMPDEST CALLVALUE DUP1 ISZERO PUSH2 0x9F JUMPI PUSH1 0x0 DUP1 REVERT JUMPDEST POP PUSH2 0xA8 PUSH2 0x1FF JUMP JUMPDEST PUSH1 0x40 MLOAD PUSH2 0xB5 SWAP2 SWAP1 PUSH2 0x1193 JUMP JUMPDEST PUSH1 0x40 MLOAD DUP1 SWAP2 SUB SWAP1 RETURN JUMPDEST PUSH2 0xD8 PUSH1 0x4 DUP1 CALLDATASIZE SUB DUP2 ADD SWAP1 PUSH2 0xD3 SWAP2 SWAP1 PUSH2 0x14A4 JUMP JUMPDEST PUSH2 0x205 JUMP JUMPDEST STOP JUMPDEST CALLVALUE DUP1 ISZERO PUSH2 0xE6 JUMPI PUSH1 0x0 DUP1 REVERT JUMPDEST POP PUSH2 0xEF PUSH2 0x96E JUMP JUMPDEST STOP JUMPDEST CALLVALUE DUP1 ISZERO PUSH2 0xFD JUMPI PUSH1 0x0 DUP1 REVERT JUMPDEST POP PUSH2 0x118 PUSH1 0x4 DUP1 CALLDATASIZE SUB DUP2 ADD SWAP1 PUSH2 0x113 SWAP2 SWAP1 PUSH2 0x15F1 JUMP JUMPDEST PUSH2 0x982 JUMP JUMPDEST STOP JUMPDEST CALLVALUE DUP1 ISZERO PUSH2 0x126 JUMPI PUSH1 0x0 DUP1 REVERT JUMPDEST POP PUSH2 0x12F PUSH2 0x9CD JUMP JUMPDEST PUSH1 0x40 MLOAD PUSH2 0x13C SWAP2 SWAP1 PUSH2 0x165F JUMP JUMPDEST PUSH1 0x40 MLOAD DUP1 SWAP2 SUB SWAP1 RETURN JUMPDEST CALLVALUE DUP1 ISZERO PUSH2 0x151 JUMPI PUSH1 0x0 DUP1 REVERT JUMPDEST POP PUSH2 0x16C PUSH1 0x4 DUP1 CALLDATASIZE SUB DUP2 ADD SWAP1 PUSH2 0x167 SWAP2 SWAP1 PUSH2 0x1778 JUMP JUMPDEST PUSH2 0x9F6 JUMP JUMPDEST PUSH1 0x40 MLOAD PUSH2 0x179 SWAP2 SWAP1 PUSH2 0x1193 JUMP JUMPDEST PUSH1 0x40 MLOAD DUP1 SWAP2 SUB SWAP1 RETURN JUMPDEST CALLVALUE DUP1 ISZERO PUSH2 0x18E JUMPI PUSH1 0x0 DUP1 REVERT JUMPDEST POP PUSH2 0x197 PUSH2 0xD58 JUMP JUMPDEST PUSH1 0x40 MLOAD PUSH2 0x1A4 SWAP2 SWAP1 PUSH2 0x1871 JUMP JUMPDEST PUSH1 0x40 MLOAD DUP1 SWAP2 SUB SWAP1 RETURN JUMPDEST CALLVALUE DUP1 ISZERO PUSH2 0x1B9 JUMPI PUSH1 0x0 DUP1 REVERT JUMPDEST POP PUSH2 0x1D4 PUSH1 0x4 DUP1 CALLDATASIZE SUB DUP2 ADD SWAP1 PUSH2 0x1CF SWAP2 SWAP1 PUSH2 0x15F1 JUMP JUMPDEST PUSH2 0xD7C JUMP JUMPDEST STOP JUMPDEST CALLVALUE DUP1 ISZERO PUSH2 0x1E2 JUMPI PUSH1 0x0 DUP1 REVERT JUMPDEST POP PUSH2 0x1FD PUSH1 0x4 DUP1 CALLDATASIZE SUB DUP2 ADD SWAP1 PUSH2 0x1F8 SWAP2 SWAP1 PUSH2 0x188C JUMP JUMPDEST PUSH2 0xDCE JUMP JUMPDEST STOP JUMPDEST PUSH1 0x1 SLOAD DUP2 JUMP JUMPDEST PUSH1 0x1 SLOAD DUP12 DUP12 SWAP1 POP GT ISZERO DUP1 ISZERO PUSH2 0x21F JUMPI POP DUP9 DUP9 SWAP1 POP DUP12 DUP12 SWAP1 POP EQ JUMPDEST DUP1 ISZERO PUSH2 0x230 JUMPI POP DUP9 DUP9 SWAP1 POP DUP8 DUP8 SWAP1 POP EQ JUMPDEST DUP1 ISZERO PUSH2 0x241 JUMPI POP DUP7 DUP7 SWAP1 POP DUP6 DUP6 SWAP1 POP EQ JUMPDEST PUSH2 0x280 JUMPI PUSH1 0x40 MLOAD PUSH32 0x8C379A000000000000000000000000000000000000000000000000000000000 DUP2 MSTORE PUSH1 0x4 ADD PUSH2 0x277 SWAP1 PUSH2 0x1916 JUMP JUMPDEST PUSH1 0x40 MLOAD DUP1 SWAP2 SUB SWAP1 REVERT JUMPDEST PUSH1 0x0 DUP1 CALLVALUE GT ISZERO PUSH2 0x346 JUMPI PUSH32 0x0 PUSH20 0xFFFFFFFFFFFFFFFFFFFFFFFFFFFFFFFFFFFFFFFF AND PUSH4 0xD0E30DB0 CALLVALUE PUSH1 0x40 MLOAD DUP3 PUSH4 0xFFFFFFFF AND PUSH1 0xE0 SHL DUP2 MSTORE PUSH1 0x4 ADD PUSH1 0x0 PUSH1 0x40 MLOAD DUP1 DUP4 SUB DUP2 DUP6 DUP9 DUP1 EXTCODESIZE ISZERO DUP1 ISZERO PUSH2 0x2F2 JUMPI PUSH1 0x0 DUP1 REVERT JUMPDEST POP GAS CALL ISZERO DUP1 ISZERO PUSH2 0x306 JUMPI RETURNDATASIZE PUSH1 0x0 DUP1 RETURNDATACOPY RETURNDATASIZE PUSH1 0x0 REVERT JUMPDEST POP POP POP POP POP CALLVALUE SWAP1 POP PUSH32 0x59E3C56B3739D587CAA0270FAE7C28E1B6A1AF555395AD122400FF97D48FED16 DUP2 PUSH1 0x40 MLOAD PUSH2 0x33D SWAP2 SWAP1 PUSH2 0x1193 JUMP JUMPDEST PUSH1 0x40 MLOAD DUP1 SWAP2 SUB SWAP1 LOG1 JUMPDEST PUSH1 0x0 JUMPDEST DUP9 DUP9 SWAP1 POP DUP2 LT ISZERO PUSH2 0x95F JUMPI PUSH1 0x0 PUSH20 0xFFFFFFFFFFFFFFFFFFFFFFFFFFFFFFFFFFFFFFFF AND DUP10 DUP10 DUP4 DUP2 DUP2 LT PUSH2 0x37F JUMPI PUSH2 0x37E PUSH2 0x1936 JUMP JUMPDEST JUMPDEST SWAP1 POP PUSH1 0x20 MUL ADD PUSH1 0x20 DUP2 ADD SWAP1 PUSH2 0x394 SWAP2 SWAP1 PUSH2 0x188C JUMP JUMPDEST PUSH20 0xFFFFFFFFFFFFFFFFFFFFFFFFFFFFFFFFFFFFFFFF AND EQ ISZERO PUSH2 0x64A JUMPI PUSH1 0x0 DUP3 GT ISZERO PUSH2 0x645 JUMPI DUP3 DUP2 DUP2 MLOAD DUP2 LT PUSH2 0x3CC JUMPI PUSH2 0x3CB PUSH2 0x1936 JUMP JUMPDEST JUMPDEST PUSH1 0x20 MUL PUSH1 0x20 ADD ADD MLOAD DUP3 LT ISZERO PUSH2 0x433 JUMPI PUSH32 0xB74B0798EC89F7CF91B1446E01C1BB75B7D55C45B104EDFB364A46A074E2F56 DUP3 DUP5 DUP4 DUP2 MLOAD DUP2 LT PUSH2 0x410 JUMPI PUSH2 0x40F PUSH2 0x1936 JUMP JUMPDEST JUMPDEST PUSH1 0x20 MUL PUSH1 0x20 ADD ADD MLOAD PUSH1 0x40 MLOAD PUSH2 0x426 SWAP3 SWAP2 SWAP1 PUSH2 0x1965 JUMP JUMPDEST PUSH1 0x40 MLOAD DUP1 SWAP2 SUB SWAP1 LOG1 PUSH2 0x95F JUMP JUMPDEST PUSH1 0x0 DUP4 DUP3 DUP2 MLOAD DUP2 LT PUSH2 0x448 JUMPI PUSH2 0x447 PUSH2 0x1936 JUMP JUMPDEST JUMPDEST PUSH1 0x20 MUL PUSH1 0x20 ADD ADD MLOAD GT ISZERO PUSH2 0x586 JUMPI PUSH32 0x0 PUSH20 0xFFFFFFFFFFFFFFFFFFFFFFFFFFFFFFFFFFFFFFFF AND PUSH4 0x2E1A7D4D DUP5 DUP4 DUP2 MLOAD DUP2 LT PUSH2 0x4A5 JUMPI PUSH2 0x4A4 PUSH2 0x1936 JUMP JUMPDEST JUMPDEST PUSH1 0x20 MUL PUSH1 0x20 ADD ADD MLOAD PUSH1 0x40 MLOAD DUP3 PUSH4 0xFFFFFFFF AND PUSH1 0xE0 SHL DUP2 MSTORE PUSH1 0x4 ADD PUSH2 0x4C9 SWAP2 SWAP1 PUSH2 0x1193 JUMP JUMPDEST PUSH1 0x0 PUSH1 0x40 MLOAD DUP1 DUP4 SUB DUP2 PUSH1 0x0 DUP8 DUP1 EXTCODESIZE ISZERO DUP1 ISZERO PUSH2 0x4E3 JUMPI PUSH1 0x0 DUP1 REVERT JUMPDEST POP GAS CALL ISZERO DUP1 ISZERO PUSH2 0x4F7 JUMPI RETURNDATASIZE PUSH1 0x0 DUP1 RETURNDATACOPY RETURNDATASIZE PUSH1 0x0 REVERT JUMPDEST POP POP POP POP DUP3 DUP2 DUP2 MLOAD DUP2 LT PUSH2 0x50E JUMPI PUSH2 0x50D PUSH2 0x1936 JUMP JUMPDEST JUMPDEST PUSH1 0x20 MUL PUSH1 0x20 ADD ADD MLOAD DUP3 PUSH2 0x521 SWAP2 SWAP1 PUSH2 0x19BD JUMP JUMPDEST SWAP2 POP PUSH2 0x54E DUP4 DUP3 DUP2 MLOAD DUP2 LT PUSH2 0x539 JUMPI PUSH2 0x538 PUSH2 0x1936 JUMP JUMPDEST JUMPDEST PUSH1 0x20 MUL PUSH1 0x20 ADD ADD MLOAD PUSH2 0x549 PUSH2 0xE52 JUMP JUMPDEST PUSH2 0xE5A JUMP JUMPDEST PUSH32 0x59E3C56B3739D587CAA0270FAE7C28E1B6A1AF555395AD122400FF97D48FED16 DUP3 PUSH1 0x40 MLOAD PUSH2 0x57D SWAP2 SWAP1 PUSH2 0x1193 JUMP JUMPDEST PUSH1 0x40 MLOAD DUP1 SWAP2 SUB SWAP1 LOG1 JUMPDEST PUSH2 0x5B0 PUSH32 0x0 DUP4 PUSH2 0xEA5 JUMP JUMPDEST PUSH1 0x0 SWAP2 POP PUSH32 0x59E3C56B3739D587CAA0270FAE7C28E1B6A1AF555395AD122400FF97D48FED16 DUP3 PUSH1 0x40 MLOAD PUSH2 0x5E3 SWAP2 SWAP1 PUSH2 0x1193 JUMP JUMPDEST PUSH1 0x40 MLOAD DUP1 SWAP2 SUB SWAP1 LOG1 PUSH32 0x680F2E4F4032EBF1774E8CDBADDCB1B617A5A606411C8CA96257ADA338D3833C PUSH32 0x0 DUP4 PUSH1 0x40 MLOAD PUSH2 0x63C SWAP3 SWAP2 SWAP1 PUSH2 0x19F1 JUMP JUMPDEST PUSH1 0x40 MLOAD DUP1 SWAP2 SUB SWAP1 LOG1 JUMPDEST PUSH2 0x94C JUMP JUMPDEST PUSH32 0x0 PUSH20 0xFFFFFFFFFFFFFFFFFFFFFFFFFFFFFFFFFFFFFFFF AND DUP14 DUP14 DUP4 DUP2 DUP2 LT PUSH2 0x694 JUMPI PUSH2 0x693 PUSH2 0x1936 JUMP JUMPDEST JUMPDEST SWAP1 POP PUSH1 0x20 MUL ADD PUSH1 0x20 DUP2 ADD SWAP1 PUSH2 0x6A9 SWAP2 SWAP1 PUSH2 0x1A1A JUMP JUMPDEST PUSH20 0xFFFFFFFFFFFFFFFFFFFFFFFFFFFFFFFFFFFFFFFF AND EQ ISZERO PUSH2 0x79C JUMPI DUP11 DUP11 DUP3 DUP2 DUP2 LT PUSH2 0x6D8 JUMPI PUSH2 0x6D7 PUSH2 0x1936 JUMP JUMPDEST JUMPDEST SWAP1 POP PUSH1 0x20 MUL ADD PUSH1 0x20 DUP2 ADD SWAP1 PUSH2 0x6ED SWAP2 SWAP1 PUSH2 0x1A1A JUMP JUMPDEST PUSH20 0xFFFFFFFFFFFFFFFFFFFFFFFFFFFFFFFFFFFFFFFF AND DUP14 DUP14 DUP4 DUP2 DUP2 LT PUSH2 0x716 JUMPI PUSH2 0x715 PUSH2 0x1936 JUMP JUMPDEST JUMPDEST SWAP1 POP PUSH1 0x20 MUL ADD PUSH1 0x20 DUP2 ADD SWAP1 PUSH2 0x72B SWAP2 SWAP1 PUSH2 0x1A1A JUMP JUMPDEST PUSH20 0xFFFFFFFFFFFFFFFFFFFFFFFFFFFFFFFFFFFFFFFF AND EQ ISZERO PUSH2 0x74C JUMPI PUSH2 0x94C JUMP JUMPDEST PUSH2 0x797 DUP14 DUP14 DUP4 DUP2 DUP2 LT PUSH2 0x762 JUMPI PUSH2 0x761 PUSH2 0x1936 JUMP JUMPDEST JUMPDEST SWAP1 POP PUSH1 0x20 MUL ADD PUSH1 0x20 DUP2 ADD SWAP1 PUSH2 0x777 SWAP2 SWAP1 PUSH2 0x1A1A JUMP JUMPDEST DUP5 DUP4 DUP2 MLOAD DUP2 LT PUSH2 0x78A JUMPI PUSH2 0x789 PUSH2 0x1936 JUMP JUMPDEST JUMPDEST PUSH1 0x20 MUL PUSH1 0x20 ADD ADD MLOAD PUSH2 0xF37 JUMP JUMPDEST PUSH2 0x7E8 JUMP JUMPDEST PUSH2 0x7E7 DUP14 DUP14 DUP4 DUP2 DUP2 LT PUSH2 0x7B2 JUMPI PUSH2 0x7B1 PUSH2 0x1936 JUMP JUMPDEST JUMPDEST SWAP1 POP PUSH1 0x20 MUL ADD PUSH1 0x20 DUP2 ADD SWAP1 PUSH2 0x7C7 SWAP2 SWAP1 PUSH2 0x1A1A JUMP JUMPDEST DUP5 DUP4 DUP2 MLOAD DUP2 LT PUSH2 0x7DA JUMPI PUSH2 0x7D9 PUSH2 0x1936 JUMP JUMPDEST JUMPDEST PUSH1 0x20 MUL PUSH1 0x20 ADD ADD MLOAD PUSH2 0xF37 JUMP JUMPDEST JUMPDEST PUSH1 0x0 PUSH2 0x8B7 DUP13 DUP13 DUP5 DUP2 DUP2 LT PUSH2 0x800 JUMPI PUSH2 0x7FF PUSH2 0x1936 JUMP JUMPDEST JUMPDEST SWAP1 POP PUSH1 0x20 MUL ADD PUSH1 0x20 DUP2 ADD SWAP1 PUSH2 0x815 SWAP2 SWAP1 PUSH2 0x1A1A JUMP JUMPDEST DUP16 DUP16 DUP6 DUP2 DUP2 LT PUSH2 0x828 JUMPI PUSH2 0x827 PUSH2 0x1936 JUMP JUMPDEST JUMPDEST SWAP1 POP PUSH1 0x20 MUL ADD PUSH1 0x20 DUP2 ADD SWAP1 PUSH2 0x83D SWAP2 SWAP1 PUSH2 0x1A1A JUMP JUMPDEST DUP13 DUP13 DUP7 DUP2 DUP2 LT PUSH2 0x850 JUMPI PUSH2 0x84F PUSH2 0x1936 JUMP JUMPDEST JUMPDEST SWAP1 POP PUSH1 0x20 MUL ADD PUSH1 0x20 DUP2 ADD SWAP1 PUSH2 0x865 SWAP2 SWAP1 PUSH2 0x188C JUMP JUMPDEST DUP12 DUP12 DUP8 DUP2 DUP2 LT PUSH2 0x878 JUMPI PUSH2 0x877 PUSH2 0x1936 JUMP JUMPDEST JUMPDEST SWAP1 POP PUSH1 0x20 MUL ADD PUSH1 0x20 DUP2 ADD SWAP1 PUSH2 0x88D SWAP2 SWAP1 PUSH2 0x1A47 JUMP JUMPDEST DUP11 DUP11 DUP9 DUP2 DUP2 LT PUSH2 0x8A0 JUMPI PUSH2 0x89F PUSH2 0x1936 JUMP JUMPDEST JUMPDEST SWAP1 POP PUSH1 0x20 MUL DUP2 ADD SWAP1 PUSH2 0x8B2 SWAP2 SWAP1 PUSH2 0x1A83 JUMP JUMPDEST PUSH2 0x9F6 JUMP JUMPDEST SWAP1 POP PUSH2 0x8EA DUP13 DUP13 DUP5 DUP2 DUP2 LT PUSH2 0x8CF JUMPI PUSH2 0x8CE PUSH2 0x1936 JUMP JUMPDEST JUMPDEST SWAP1 POP PUSH1 0x20 MUL ADD PUSH1 0x20 DUP2 ADD SWAP1 PUSH2 0x8E4 SWAP2 SWAP1 PUSH2 0x1A1A JUMP JUMPDEST DUP3 PUSH2 0xEA5 JUMP JUMPDEST PUSH32 0x680F2E4F4032EBF1774E8CDBADDCB1B617A5A606411C8CA96257ADA338D3833C DUP13 DUP13 DUP5 DUP2 DUP2 LT PUSH2 0x91E JUMPI PUSH2 0x91D PUSH2 0x1936 JUMP JUMPDEST JUMPDEST SWAP1 POP PUSH1 0x20 MUL ADD PUSH1 0x20 DUP2 ADD SWAP1 PUSH2 0x933 SWAP2 SWAP1 PUSH2 0x1A1A JUMP JUMPDEST DUP3 PUSH1 0x40 MLOAD PUSH2 0x942 SWAP3 SWAP2 SWAP1 PUSH2 0x1B07 JUMP JUMPDEST PUSH1 0x40 MLOAD DUP1 SWAP2 SUB SWAP1 LOG1 POP JUMPDEST DUP1 DUP1 PUSH2 0x957 SWAP1 PUSH2 0x1B30 JUMP JUMPDEST SWAP2 POP POP PUSH2 0x349 JUMP JUMPDEST POP POP POP POP POP POP POP POP POP POP POP POP POP JUMP JUMPDEST PUSH2 0x976 PUSH2 0x1030 JUMP JUMPDEST PUSH2 0x980 PUSH1 0x0 PUSH2 0x10AE JUMP JUMPDEST JUMP JUMPDEST PUSH2 0x98A PUSH2 0x1030 JUMP JUMPDEST DUP1 PUSH1 0x1 DUP2 SWAP1 SSTORE POP PUSH32 0x5091CCFE22CA8F99D8F1F07C6AE3A61DAF990D74EF229D46898624FF3977238C PUSH1 0x1 SLOAD PUSH1 0x40 MLOAD PUSH2 0x9C2 SWAP2 SWAP1 PUSH2 0x1193 JUMP JUMPDEST PUSH1 0x40 MLOAD DUP1 SWAP2 SUB SWAP1 LOG1 POP JUMP JUMPDEST PUSH1 0x0 DUP1 PUSH1 0x0 SWAP1 SLOAD SWAP1 PUSH2 0x100 EXP SWAP1 DIV PUSH20 0xFFFFFFFFFFFFFFFFFFFFFFFFFFFFFFFFFFFFFFFF AND SWAP1 POP SWAP1 JUMP JUMPDEST PUSH1 0x0 DUP1 PUSH20 0xFFFFFFFFFFFFFFFFFFFFFFFFFFFFFFFFFFFFFFFF AND DUP6 PUSH20 0xFFFFFFFFFFFFFFFFFFFFFFFFFFFFFFFFFFFFFFFF AND EQ ISZERO PUSH2 0xA67 JUMPI PUSH1 0x40 MLOAD PUSH32 0x8C379A000000000000000000000000000000000000000000000000000000000 DUP2 MSTORE PUSH1 0x4 ADD PUSH2 0xA5E SWAP1 PUSH2 0x1BC5 JUMP JUMPDEST PUSH1 0x40 MLOAD DUP1 SWAP2 SUB SWAP1 REVERT JUMPDEST PUSH1 0x0 DUP8 PUSH20 0xFFFFFFFFFFFFFFFFFFFFFFFFFFFFFFFFFFFFFFFF AND PUSH4 0x70A08231 ADDRESS PUSH1 0x40 MLOAD DUP3 PUSH4 0xFFFFFFFF AND PUSH1 0xE0 SHL DUP2 MSTORE PUSH1 0x4 ADD PUSH2 0xAA2 SWAP2 SWAP1 PUSH2 0x165F JUMP JUMPDEST PUSH1 0x20 PUSH1 0x40 MLOAD DUP1 DUP4 SUB DUP2 DUP7 DUP1 EXTCODESIZE ISZERO DUP1 ISZERO PUSH2 0xABA JUMPI PUSH1 0x0 DUP1 REVERT JUMPDEST POP GAS STATICCALL ISZERO DUP1 ISZERO PUSH2 0xACE JUMPI RETURNDATASIZE PUSH1 0x0 DUP1 RETURNDATACOPY RETURNDATASIZE PUSH1 0x0 REVERT JUMPDEST POP POP POP POP PUSH1 0x40 MLOAD RETURNDATASIZE PUSH1 0x1F NOT PUSH1 0x1F DUP3 ADD AND DUP3 ADD DUP1 PUSH1 0x40 MSTORE POP DUP2 ADD SWAP1 PUSH2 0xAF2 SWAP2 SWAP1 PUSH2 0x1BFA JUMP JUMPDEST SWAP1 POP DUP7 PUSH20 0xFFFFFFFFFFFFFFFFFFFFFFFFFFFFFFFFFFFFFFFF AND PUSH4 0x95EA7B3 DUP8 PUSH16 0xFFFFFFFFFFFFFFFFFFFFFFFFFFFFFFFF PUSH1 0x40 MLOAD DUP4 PUSH4 0xFFFFFFFF AND PUSH1 0xE0 SHL DUP2 MSTORE PUSH1 0x4 ADD PUSH2 0xB3F SWAP3 SWAP2 SWAP1 PUSH2 0x1C74 JUMP JUMPDEST PUSH1 0x20 PUSH1 0x40 MLOAD DUP1 DUP4 SUB DUP2 PUSH1 0x0 DUP8 DUP1 EXTCODESIZE ISZERO DUP1 ISZERO PUSH2 0xB59 JUMPI PUSH1 0x0 DUP1 REVERT JUMPDEST POP GAS CALL ISZERO DUP1 ISZERO PUSH2 0xB6D JUMPI RETURNDATASIZE PUSH1 0x0 DUP1 RETURNDATACOPY RETURNDATASIZE PUSH1 0x0 REVERT JUMPDEST POP POP POP POP PUSH1 0x40 MLOAD RETURNDATASIZE PUSH1 0x1F NOT PUSH1 0x1F DUP3 ADD AND DUP3 ADD DUP1 PUSH1 0x40 MSTORE POP DUP2 ADD SWAP1 PUSH2 0xB91 SWAP2 SWAP1 PUSH2 0x1CD5 JUMP JUMPDEST POP PUSH1 0x0 DUP6 PUSH20 0xFFFFFFFFFFFFFFFFFFFFFFFFFFFFFFFFFFFFFFFF AND PUSH1 0x0 DUP7 DUP7 PUSH1 0x40 MLOAD PUSH2 0xBBD SWAP3 SWAP2 SWAP1 PUSH2 0x1D41 JUMP JUMPDEST PUSH1 0x0 PUSH1 0x40 MLOAD DUP1 DUP4 SUB DUP2 DUP6 DUP8 GAS CALL SWAP3 POP POP POP RETURNDATASIZE DUP1 PUSH1 0x0 DUP2 EQ PUSH2 0xBFA JUMPI PUSH1 0x40 MLOAD SWAP2 POP PUSH1 0x1F NOT PUSH1 0x3F RETURNDATASIZE ADD AND DUP3 ADD PUSH1 0x40 MSTORE RETURNDATASIZE DUP3 MSTORE RETURNDATASIZE PUSH1 0x0 PUSH1 0x20 DUP5 ADD RETURNDATACOPY PUSH2 0xBFF JUMP JUMPDEST PUSH1 0x60 SWAP2 POP JUMPDEST POP POP SWAP1 POP PUSH32 0xB1BBDF0CBDD013D8D322184C42C16DAFE4B2B3B66C3D60F46874B6C78B9A87F6 DUP2 DUP4 PUSH1 0x40 MLOAD PUSH2 0xC34 SWAP3 SWAP2 SWAP1 PUSH2 0x1D69 JUMP JUMPDEST PUSH1 0x40 MLOAD DUP1 SWAP2 SUB SWAP1 LOG1 DUP1 PUSH2 0xC7C JUMPI PUSH1 0x40 MLOAD PUSH32 0x8C379A000000000000000000000000000000000000000000000000000000000 DUP2 MSTORE PUSH1 0x4 ADD PUSH2 0xC73 SWAP1 PUSH2 0x1DDE JUMP JUMPDEST PUSH1 0x40 MLOAD DUP1 SWAP2 SUB SWAP1 REVERT JUMPDEST DUP2 DUP10 PUSH20 0xFFFFFFFFFFFFFFFFFFFFFFFFFFFFFFFFFFFFFFFF AND PUSH4 0x70A08231 ADDRESS PUSH1 0x40 MLOAD DUP3 PUSH4 0xFFFFFFFF AND PUSH1 0xE0 SHL DUP2 MSTORE PUSH1 0x4 ADD PUSH2 0xCB6 SWAP2 SWAP1 PUSH2 0x165F JUMP JUMPDEST PUSH1 0x20 PUSH1 0x40 MLOAD DUP1 DUP4 SUB DUP2 DUP7 DUP1 EXTCODESIZE ISZERO DUP1 ISZERO PUSH2 0xCCE JUMPI PUSH1 0x0 DUP1 REVERT JUMPDEST POP GAS STATICCALL ISZERO DUP1 ISZERO PUSH2 0xCE2 JUMPI RETURNDATASIZE PUSH1 0x0 DUP1 RETURNDATACOPY RETURNDATASIZE PUSH1 0x0 REVERT JUMPDEST POP POP POP POP PUSH1 0x40 MLOAD RETURNDATASIZE PUSH1 0x1F NOT PUSH1 0x1F DUP3 ADD AND DUP3 ADD DUP1 PUSH1 0x40 MSTORE POP DUP2 ADD SWAP1 PUSH2 0xD06 SWAP2 SWAP1 PUSH2 0x1BFA JUMP JUMPDEST PUSH2 0xD10 SWAP2 SWAP1 PUSH2 0x19BD JUMP JUMPDEST SWAP2 POP PUSH32 0x74496FCE2CDC392D99808924E4161C005195A64FEE4C166B02C2B716DB28ABB0 DUP3 PUSH1 0x40 MLOAD PUSH2 0xD41 SWAP2 SWAP1 PUSH2 0x1193 JUMP JUMPDEST PUSH1 0x40 MLOAD DUP1 SWAP2 SUB SWAP1 LOG1 DUP2 SWAP3 POP POP POP SWAP7 SWAP6 POP POP POP POP POP POP JUMP JUMPDEST PUSH32 0x0 DUP2 JUMP JUMPDEST PUSH2 0xD84 PUSH2 0x1030 JUMP JUMPDEST CALLER PUSH20 0xFFFFFFFFFFFFFFFFFFFFFFFFFFFFFFFFFFFFFFFF AND PUSH2 0x8FC DUP3 SWAP1 DUP2 ISZERO MUL SWAP1 PUSH1 0x40 MLOAD PUSH1 0x0 PUSH1 0x40 MLOAD DUP1 DUP4 SUB DUP2 DUP6 DUP9 DUP9 CALL SWAP4 POP POP POP POP ISZERO DUP1 ISZERO PUSH2 0xDCA JUMPI RETURNDATASIZE PUSH1 0x0 DUP1 RETURNDATACOPY RETURNDATASIZE PUSH1 0x0 REVERT JUMPDEST POP POP JUMP JUMPDEST PUSH2 0xDD6 PUSH2 0x1030 JUMP JUMPDEST PUSH1 0x0 PUSH20 0xFFFFFFFFFFFFFFFFFFFFFFFFFFFFFFFFFFFFFFFF AND DUP2 PUSH20 0xFFFFFFFFFFFFFFFFFFFFFFFFFFFFFFFFFFFFFFFF AND EQ ISZERO PUSH2 0xE46 JUMPI PUSH1 0x40 MLOAD PUSH32 0x8C379A000000000000000000000000000000000000000000000000000000000 DUP2 MSTORE PUSH1 0x4 ADD PUSH2 0xE3D SWAP1 PUSH2 0x1E70 JUMP JUMPDEST PUSH1 0x40 MLOAD DUP1 SWAP2 SUB SWAP1 REVERT JUMPDEST PUSH2 0xE4F DUP2 PUSH2 0x10AE JUMP JUMPDEST POP JUMP JUMPDEST PUSH1 0x0 CALLER SWAP1 POP SWAP1 JUMP JUMPDEST DUP1 PUSH20 0xFFFFFFFFFFFFFFFFFFFFFFFFFFFFFFFFFFFFFFFF AND PUSH2 0x8FC DUP4 SWAP1 DUP2 ISZERO MUL SWAP1 PUSH1 0x40 MLOAD PUSH1 0x0 PUSH1 0x40 MLOAD DUP1 DUP4 SUB DUP2 DUP6 DUP9 DUP9 CALL SWAP4 POP POP POP POP ISZERO DUP1 ISZERO PUSH2 0xEA0 JUMPI RETURNDATASIZE PUSH1 0x0 DUP1 RETURNDATACOPY RETURNDATASIZE PUSH1 0x0 REVERT JUMPDEST POP POP POP JUMP JUMPDEST DUP2 PUSH20 0xFFFFFFFFFFFFFFFFFFFFFFFFFFFFFFFFFFFFFFFF AND PUSH4 0xA9059CBB CALLER DUP4 PUSH1 0x40 MLOAD DUP4 PUSH4 0xFFFFFFFF AND PUSH1 0xE0 SHL DUP2 MSTORE PUSH1 0x4 ADD PUSH2 0xEE0 SWAP3 SWAP2 SWAP1 PUSH2 0x1E90 JUMP JUMPDEST PUSH1 0x20 PUSH1 0x40 MLOAD DUP1 DUP4 SUB DUP2 PUSH1 0x0 DUP8 DUP1 EXTCODESIZE ISZERO DUP1 ISZERO PUSH2 0xEFA JUMPI PUSH1 0x0 DUP1 REVERT JUMPDEST POP GAS CALL ISZERO DUP1 ISZERO PUSH2 0xF0E JUMPI RETURNDATASIZE PUSH1 0x0 DUP1 RETURNDATACOPY RETURNDATASIZE PUSH1 0x0 REVERT JUMPDEST POP POP POP POP PUSH1 0x40 MLOAD RETURNDATASIZE PUSH1 0x1F NOT PUSH1 0x1F DUP3 ADD AND DUP3 ADD DUP1 PUSH1 0x40 MSTORE POP DUP2 ADD SWAP1 PUSH2 0xF32 SWAP2 SWAP1 PUSH2 0x1CD5 JUMP JUMPDEST POP POP POP JUMP JUMPDEST DUP2 PUSH20 0xFFFFFFFFFFFFFFFFFFFFFFFFFFFFFFFFFFFFFFFF AND PUSH4 0x23B872DD CALLER ADDRESS DUP5 PUSH1 0x40 MLOAD DUP5 PUSH4 0xFFFFFFFF AND PUSH1 0xE0 SHL DUP2 MSTORE PUSH1 0x4 ADD PUSH2 0xF74 SWAP4 SWAP3 SWAP2 SWAP1 PUSH2 0x1EB9 JUMP JUMPDEST PUSH1 0x20 PUSH1 0x40 MLOAD DUP1 DUP4 SUB DUP2 PUSH1 0x0 DUP8 DUP1 EXTCODESIZE ISZERO DUP1 ISZERO PUSH2 0xF8E JUMPI PUSH1 0x0 DUP1 REVERT JUMPDEST POP GAS CALL ISZERO DUP1 ISZERO PUSH2 0xFA2 JUMPI RETURNDATASIZE PUSH1 0x0 DUP1 RETURNDATACOPY RETURNDATASIZE PUSH1 0x0 REVERT JUMPDEST POP POP POP POP PUSH1 0x40 MLOAD RETURNDATASIZE PUSH1 0x1F NOT PUSH1 0x1F DUP3 ADD AND DUP3 ADD DUP1 PUSH1 0x40 MSTORE POP DUP2 ADD SWAP1 PUSH2 0xFC6 SWAP2 SWAP1 PUSH2 0x1CD5 JUMP JUMPDEST POP ADDRESS PUSH20 0xFFFFFFFFFFFFFFFFFFFFFFFFFFFFFFFFFFFFFFFF AND CALLER PUSH20 0xFFFFFFFFFFFFFFFFFFFFFFFFFFFFFFFFFFFFFFFF AND PUSH32 0xD6D3EB25A413C05D8107FC49DEB2789BEF7F612582B2482804C0B0423B6638EE DUP4 PUSH1 0x40 MLOAD PUSH2 0x1024 SWAP2 SWAP1 PUSH2 0x1193 JUMP JUMPDEST PUSH1 0x40 MLOAD DUP1 SWAP2 SUB SWAP1 LOG3 POP POP JUMP JUMPDEST PUSH2 0x1038 PUSH2 0x1172 JUMP JUMPDEST PUSH20 0xFFFFFFFFFFFFFFFFFFFFFFFFFFFFFFFFFFFFFFFF AND PUSH2 0x1056 PUSH2 0x9CD JUMP JUMPDEST PUSH20 0xFFFFFFFFFFFFFFFFFFFFFFFFFFFFFFFFFFFFFFFF AND EQ PUSH2 0x10AC JUMPI PUSH1 0x40 MLOAD PUSH32 0x8C379A000000000000000000000000000000000000000000000000000000000 DUP2 MSTORE PUSH1 0x4 ADD PUSH2 0x10A3 SWAP1 PUSH2 0x1F3C JUMP JUMPDEST PUSH1 0x40 MLOAD DUP1 SWAP2 SUB SWAP1 REVERT JUMPDEST JUMP JUMPDEST PUSH1 0x0 DUP1 PUSH1 0x0 SWAP1 SLOAD SWAP1 PUSH2 0x100 EXP SWAP1 DIV PUSH20 0xFFFFFFFFFFFFFFFFFFFFFFFFFFFFFFFFFFFFFFFF AND SWAP1 POP DUP2 PUSH1 0x0 DUP1 PUSH2 0x100 EXP DUP2 SLOAD DUP2 PUSH20 0xFFFFFFFFFFFFFFFFFFFFFFFFFFFFFFFFFFFFFFFF MUL NOT AND SWAP1 DUP4 PUSH20 0xFFFFFFFFFFFFFFFFFFFFFFFFFFFFFFFFFFFFFFFF AND MUL OR SWAP1 SSTORE POP DUP2 PUSH20 0xFFFFFFFFFFFFFFFFFFFFFFFFFFFFFFFFFFFFFFFF AND DUP2 PUSH20 0xFFFFFFFFFFFFFFFFFFFFFFFFFFFFFFFFFFFFFFFF AND PUSH32 0x8BE0079C531659141344CD1FD0A4F28419497F9722A3DAAFE3B4186F6B6457E0 PUSH1 0x40 MLOAD PUSH1 0x40 MLOAD DUP1 SWAP2 SUB SWAP1 LOG3 POP POP JUMP JUMPDEST PUSH1 0x0 CALLER SWAP1 POP SWAP1 JUMP JUMPDEST PUSH1 0x0 DUP2 SWAP1 POP SWAP2 SWAP1 POP JUMP JUMPDEST PUSH2 0x118D DUP2 PUSH2 0x117A JUMP JUMPDEST DUP3 MSTORE POP POP JUMP JUMPDEST PUSH1 0x0 PUSH1 0x20 DUP3 ADD SWAP1 POP PUSH2 0x11A8 PUSH1 0x0 DUP4 ADD DUP5 PUSH2 0x1184 JUMP JUMPDEST SWAP3 SWAP2 POP POP JUMP JUMPDEST PUSH1 0x0 PUSH1 0x40 MLOAD SWAP1 POP SWAP1 JUMP JUMPDEST PUSH1 0x0 DUP1 REVERT JUMPDEST PUSH1 0x0 DUP1 REVERT JUMPDEST PUSH1 0x0 DUP1 REVERT JUMPDEST PUSH1 0x0 DUP1 REVERT JUMPDEST PUSH1 0x0 DUP1 REVERT JUMPDEST PUSH1 0x0 DUP1 DUP4 PUSH1 0x1F DUP5 ADD SLT PUSH2 0x11E7 JUMPI PUSH2 0x11E6 PUSH2 0x11C2 JUMP JUMPDEST JUMPDEST DUP3 CALLDATALOAD SWAP1 POP PUSH8 0xFFFFFFFFFFFFFFFF DUP2 GT ISZERO PUSH2 0x1204 JUMPI PUSH2 0x1203 PUSH2 0x11C7 JUMP JUMPDEST JUMPDEST PUSH1 0x20 DUP4 ADD SWAP2 POP DUP4 PUSH1 0x20 DUP3 MUL DUP4 ADD GT ISZERO PUSH2 0x1220 JUMPI PUSH2 0x121F PUSH2 0x11CC JUMP JUMPDEST JUMPDEST SWAP3 POP SWAP3 SWAP1 POP JUMP JUMPDEST PUSH1 0x0 DUP1 DUP4 PUSH1 0x1F DUP5 ADD SLT PUSH2 0x123D JUMPI PUSH2 0x123C PUSH2 0x11C2 JUMP JUMPDEST JUMPDEST DUP3 CALLDATALOAD SWAP1 POP PUSH8 0xFFFFFFFFFFFFFFFF DUP2 GT ISZERO PUSH2 0x125A JUMPI PUSH2 0x1259 PUSH2 0x11C7 JUMP JUMPDEST JUMPDEST PUSH1 0x20 DUP4 ADD SWAP2 POP DUP4 PUSH1 0x20 DUP3 MUL DUP4 ADD GT ISZERO PUSH2 0x1276 JUMPI PUSH2 0x1275 PUSH2 0x11CC JUMP JUMPDEST JUMPDEST SWAP3 POP SWAP3 SWAP1 POP JUMP JUMPDEST PUSH1 0x0 DUP1 DUP4 PUSH1 0x1F DUP5 ADD SLT PUSH2 0x1293 JUMPI PUSH2 0x1292 PUSH2 0x11C2 JUMP JUMPDEST JUMPDEST DUP3 CALLDATALOAD SWAP1 POP PUSH8 0xFFFFFFFFFFFFFFFF DUP2 GT ISZERO PUSH2 0x12B0 JUMPI PUSH2 0x12AF PUSH2 0x11C7 JUMP JUMPDEST JUMPDEST PUSH1 0x20 DUP4 ADD SWAP2 POP DUP4 PUSH1 0x20 DUP3 MUL DUP4 ADD GT ISZERO PUSH2 0x12CC JUMPI PUSH2 0x12CB PUSH2 0x11CC JUMP JUMPDEST JUMPDEST SWAP3 POP SWAP3 SWAP1 POP JUMP JUMPDEST PUSH1 0x0 DUP1 DUP4 PUSH1 0x1F DUP5 ADD SLT PUSH2 0x12E9 JUMPI PUSH2 0x12E8 PUSH2 0x11C2 JUMP JUMPDEST JUMPDEST DUP3 CALLDATALOAD SWAP1 POP PUSH8 0xFFFFFFFFFFFFFFFF DUP2 GT ISZERO PUSH2 0x1306 JUMPI PUSH2 0x1305 PUSH2 0x11C7 JUMP JUMPDEST JUMPDEST PUSH1 0x20 DUP4 ADD SWAP2 POP DUP4 PUSH1 0x20 DUP3 MUL DUP4 ADD GT ISZERO PUSH2 0x1322 JUMPI PUSH2 0x1321 PUSH2 0x11CC JUMP JUMPDEST JUMPDEST SWAP3 POP SWAP3 SWAP1 POP JUMP JUMPDEST PUSH1 0x0 PUSH1 0x1F NOT PUSH1 0x1F DUP4 ADD AND SWAP1 POP SWAP2 SWAP1 POP JUMP JUMPDEST PUSH32 0x4E487B7100000000000000000000000000000000000000000000000000000000 PUSH1 0x0 MSTORE PUSH1 0x41 PUSH1 0x4 MSTORE PUSH1 0x24 PUSH1 0x0 REVERT JUMPDEST PUSH2 0x1372 DUP3 PUSH2 0x1329 JUMP JUMPDEST DUP2 ADD DUP2 DUP2 LT PUSH8 0xFFFFFFFFFFFFFFFF DUP3 GT OR ISZERO PUSH2 0x1391 JUMPI PUSH2 0x1390 PUSH2 0x133A JUMP JUMPDEST JUMPDEST DUP1 PUSH1 0x40 MSTORE POP POP POP JUMP JUMPDEST PUSH1 0x0 PUSH2 0x13A4 PUSH2 0x11AE JUMP JUMPDEST SWAP1 POP PUSH2 0x13B0 DUP3 DUP3 PUSH2 0x1369 JUMP JUMPDEST SWAP2 SWAP1 POP JUMP JUMPDEST PUSH1 0x0 PUSH8 0xFFFFFFFFFFFFFFFF DUP3 GT ISZERO PUSH2 0x13D0 JUMPI PUSH2 0x13CF PUSH2 0x133A JUMP JUMPDEST JUMPDEST PUSH1 0x20 DUP3 MUL SWAP1 POP PUSH1 0x20 DUP2 ADD SWAP1 POP SWAP2 SWAP1 POP JUMP JUMPDEST PUSH2 0x13EA DUP2 PUSH2 0x117A JUMP JUMPDEST DUP2 EQ PUSH2 0x13F5 JUMPI PUSH1 0x0 DUP1 REVERT JUMPDEST POP JUMP JUMPDEST PUSH1 0x0 DUP2 CALLDATALOAD SWAP1 POP PUSH2 0x1407 DUP2 PUSH2 0x13E1 JUMP JUMPDEST SWAP3 SWAP2 POP POP JUMP JUMPDEST PUSH1 0x0 PUSH2 0x1420 PUSH2 0x141B DUP5 PUSH2 0x13B5 JUMP JUMPDEST PUSH2 0x139A JUMP JUMPDEST SWAP1 POP DUP1 DUP4 DUP3 MSTORE PUSH1 0x20 DUP3 ADD SWAP1 POP PUSH1 0x20 DUP5 MUL DUP4 ADD DUP6 DUP2 GT ISZERO PUSH2 0x1443 JUMPI PUSH2 0x1442 PUSH2 0x11CC JUMP JUMPDEST JUMPDEST DUP4 JUMPDEST DUP2 DUP2 LT ISZERO PUSH2 0x146C JUMPI DUP1 PUSH2 0x1458 DUP9 DUP3 PUSH2 0x13F8 JUMP JUMPDEST DUP5 MSTORE PUSH1 0x20 DUP5 ADD SWAP4 POP POP PUSH1 0x20 DUP2 ADD SWAP1 POP PUSH2 0x1445 JUMP JUMPDEST POP POP POP SWAP4 SWAP3 POP POP POP JUMP JUMPDEST PUSH1 0x0 DUP3 PUSH1 0x1F DUP4 ADD SLT PUSH2 0x148B JUMPI PUSH2 0x148A PUSH2 0x11C2 JUMP JUMPDEST JUMPDEST DUP2 CALLDATALOAD PUSH2 0x149B DUP5 DUP3 PUSH1 0x20 DUP7 ADD PUSH2 0x140D JUMP JUMPDEST SWAP2 POP POP SWAP3 SWAP2 POP POP JUMP JUMPDEST PUSH1 0x0 DUP1 PUSH1 0x0 DUP1 PUSH1 0x0 DUP1 PUSH1 0x0 DUP1 PUSH1 0x0 DUP1 PUSH1 0x0 PUSH1 0xC0 DUP13 DUP15 SUB SLT ISZERO PUSH2 0x14C9 JUMPI PUSH2 0x14C8 PUSH2 0x11B8 JUMP JUMPDEST JUMPDEST PUSH1 0x0 DUP13 ADD CALLDATALOAD PUSH8 0xFFFFFFFFFFFFFFFF DUP2 GT ISZERO PUSH2 0x14E7 JUMPI PUSH2 0x14E6 PUSH2 0x11BD JUMP JUMPDEST JUMPDEST PUSH2 0x14F3 DUP15 DUP3 DUP16 ADD PUSH2 0x11D1 JUMP JUMPDEST SWAP12 POP SWAP12 POP POP PUSH1 0x20 DUP13 ADD CALLDATALOAD PUSH8 0xFFFFFFFFFFFFFFFF DUP2 GT ISZERO PUSH2 0x1516 JUMPI PUSH2 0x1515 PUSH2 0x11BD JUMP JUMPDEST JUMPDEST PUSH2 0x1522 DUP15 DUP3 DUP16 ADD PUSH2 0x11D1 JUMP JUMPDEST SWAP10 POP SWAP10 POP POP PUSH1 0x40 DUP13 ADD CALLDATALOAD PUSH8 0xFFFFFFFFFFFFFFFF DUP2 GT ISZERO PUSH2 0x1545 JUMPI PUSH2 0x1544 PUSH2 0x11BD JUMP JUMPDEST JUMPDEST PUSH2 0x1551 DUP15 DUP3 DUP16 ADD PUSH2 0x1227 JUMP JUMPDEST SWAP8 POP SWAP8 POP POP PUSH1 0x60 DUP13 ADD CALLDATALOAD PUSH8 0xFFFFFFFFFFFFFFFF DUP2 GT ISZERO PUSH2 0x1574 JUMPI PUSH2 0x1573 PUSH2 0x11BD JUMP JUMPDEST JUMPDEST PUSH2 0x1580 DUP15 DUP3 DUP16 ADD PUSH2 0x127D JUMP JUMPDEST SWAP6 POP SWAP6 POP POP PUSH1 0x80 DUP13 ADD CALLDATALOAD PUSH8 0xFFFFFFFFFFFFFFFF DUP2 GT ISZERO PUSH2 0x15A3 JUMPI PUSH2 0x15A2 PUSH2 0x11BD JUMP JUMPDEST JUMPDEST PUSH2 0x15AF DUP15 DUP3 DUP16 ADD PUSH2 0x12D3 JUMP JUMPDEST SWAP4 POP SWAP4 POP POP PUSH1 0xA0 DUP13 ADD CALLDATALOAD PUSH8 0xFFFFFFFFFFFFFFFF DUP2 GT ISZERO PUSH2 0x15D2 JUMPI PUSH2 0x15D1 PUSH2 0x11BD JUMP JUMPDEST JUMPDEST PUSH2 0x15DE DUP15 DUP3 DUP16 ADD PUSH2 0x1476 JUMP JUMPDEST SWAP2 POP POP SWAP3 SWAP6 SWAP9 SWAP12 POP SWAP3 SWAP6 SWAP9 SWAP12 SWAP1 SWAP4 SWAP7 SWAP10 POP JUMP JUMPDEST PUSH1 0x0 PUSH1 0x20 DUP3 DUP5 SUB SLT ISZERO PUSH2 0x1607 JUMPI PUSH2 0x1606 PUSH2 0x11B8 JUMP JUMPDEST JUMPDEST PUSH1 0x0 PUSH2 0x1615 DUP5 DUP3 DUP6 ADD PUSH2 0x13F8 JUMP JUMPDEST SWAP2 POP POP SWAP3 SWAP2 POP POP JUMP JUMPDEST PUSH1 0x0 PUSH20 0xFFFFFFFFFFFFFFFFFFFFFFFFFFFFFFFFFFFFFFFF DUP3 AND SWAP1 POP SWAP2 SWAP1 POP JUMP JUMPDEST PUSH1 0x0 PUSH2 0x1649 DUP3 PUSH2 0x161E JUMP JUMPDEST SWAP1 POP SWAP2 SWAP1 POP JUMP JUMPDEST PUSH2 0x1659 DUP2 PUSH2 0x163E JUMP JUMPDEST DUP3 MSTORE POP POP JUMP JUMPDEST PUSH1 0x0 PUSH1 0x20 DUP3 ADD SWAP1 POP PUSH2 0x1674 PUSH1 0x0 DUP4 ADD DUP5 PUSH2 0x1650 JUMP JUMPDEST SWAP3 SWAP2 POP POP JUMP JUMPDEST PUSH1 0x0 PUSH2 0x1685 DUP3 PUSH2 0x163E JUMP JUMPDEST SWAP1 POP SWAP2 SWAP1 POP JUMP JUMPDEST PUSH2 0x1695 DUP2 PUSH2 0x167A JUMP JUMPDEST DUP2 EQ PUSH2 0x16A0 JUMPI PUSH1 0x0 DUP1 REVERT JUMPDEST POP JUMP JUMPDEST PUSH1 0x0 DUP2 CALLDATALOAD SWAP1 POP PUSH2 0x16B2 DUP2 PUSH2 0x168C JUMP JUMPDEST SWAP3 SWAP2 POP POP JUMP JUMPDEST PUSH2 0x16C1 DUP2 PUSH2 0x163E JUMP JUMPDEST DUP2 EQ PUSH2 0x16CC JUMPI PUSH1 0x0 DUP1 REVERT JUMPDEST POP JUMP JUMPDEST PUSH1 0x0 DUP2 CALLDATALOAD SWAP1 POP PUSH2 0x16DE DUP2 PUSH2 0x16B8 JUMP JUMPDEST SWAP3 SWAP2 POP POP JUMP JUMPDEST PUSH1 0x0 PUSH2 0x16EF DUP3 PUSH2 0x161E JUMP JUMPDEST SWAP1 POP SWAP2 SWAP1 POP JUMP JUMPDEST PUSH2 0x16FF DUP2 PUSH2 0x16E4 JUMP JUMPDEST DUP2 EQ PUSH2 0x170A JUMPI PUSH1 0x0 DUP1 REVERT JUMPDEST POP JUMP JUMPDEST PUSH1 0x0 DUP2 CALLDATALOAD SWAP1 POP PUSH2 0x171C DUP2 PUSH2 0x16F6 JUMP JUMPDEST SWAP3 SWAP2 POP POP JUMP JUMPDEST PUSH1 0x0 DUP1 DUP4 PUSH1 0x1F DUP5 ADD SLT PUSH2 0x1738 JUMPI PUSH2 0x1737 PUSH2 0x11C2 JUMP JUMPDEST JUMPDEST DUP3 CALLDATALOAD SWAP1 POP PUSH8 0xFFFFFFFFFFFFFFFF DUP2 GT ISZERO PUSH2 0x1755 JUMPI PUSH2 0x1754 PUSH2 0x11C7 JUMP JUMPDEST JUMPDEST PUSH1 0x20 DUP4 ADD SWAP2 POP DUP4 PUSH1 0x1 DUP3 MUL DUP4 ADD GT ISZERO PUSH2 0x1771 JUMPI PUSH2 0x1770 PUSH2 0x11CC JUMP JUMPDEST JUMPDEST SWAP3 POP SWAP3 SWAP1 POP JUMP JUMPDEST PUSH1 0x0 DUP1 PUSH1 0x0 DUP1 PUSH1 0x0 DUP1 PUSH1 0xA0 DUP8 DUP10 SUB SLT ISZERO PUSH2 0x1795 JUMPI PUSH2 0x1794 PUSH2 0x11B8 JUMP JUMPDEST JUMPDEST PUSH1 0x0 PUSH2 0x17A3 DUP10 DUP3 DUP11 ADD PUSH2 0x16A3 JUMP JUMPDEST SWAP7 POP POP PUSH1 0x20 PUSH2 0x17B4 DUP10 DUP3 DUP11 ADD PUSH2 0x16A3 JUMP JUMPDEST SWAP6 POP POP PUSH1 0x40 PUSH2 0x17C5 DUP10 DUP3 DUP11 ADD PUSH2 0x16CF JUMP JUMPDEST SWAP5 POP POP PUSH1 0x60 PUSH2 0x17D6 DUP10 DUP3 DUP11 ADD PUSH2 0x170D JUMP JUMPDEST SWAP4 POP POP PUSH1 0x80 DUP8 ADD CALLDATALOAD PUSH8 0xFFFFFFFFFFFFFFFF DUP2 GT ISZERO PUSH2 0x17F7 JUMPI PUSH2 0x17F6 PUSH2 0x11BD JUMP JUMPDEST JUMPDEST PUSH2 0x1803 DUP10 DUP3 DUP11 ADD PUSH2 0x1722 JUMP JUMPDEST SWAP3 POP SWAP3 POP POP SWAP3 SWAP6 POP SWAP3 SWAP6 POP SWAP3 SWAP6 JUMP JUMPDEST PUSH1 0x0 DUP2 SWAP1 POP SWAP2 SWAP1 POP JUMP JUMPDEST PUSH1 0x0 PUSH2 0x1837 PUSH2 0x1832 PUSH2 0x182D DUP5 PUSH2 0x161E JUMP JUMPDEST PUSH2 0x1812 JUMP JUMPDEST PUSH2 0x161E JUMP JUMPDEST SWAP1 POP SWAP2 SWAP1 POP JUMP JUMPDEST PUSH1 0x0 PUSH2 0x1849 DUP3 PUSH2 0x181C JUMP JUMPDEST SWAP1 POP SWAP2 SWAP1 POP JUMP JUMPDEST PUSH1 0x0 PUSH2 0x185B DUP3 PUSH2 0x183E JUMP JUMPDEST SWAP1 POP SWAP2 SWAP1 POP JUMP JUMPDEST PUSH2 0x186B DUP2 PUSH2 0x1850 JUMP JUMPDEST DUP3 MSTORE POP POP JUMP JUMPDEST PUSH1 0x0 PUSH1 0x20 DUP3 ADD SWAP1 POP PUSH2 0x1886 PUSH1 0x0 DUP4 ADD DUP5 PUSH2 0x1862 JUMP JUMPDEST SWAP3 SWAP2 POP POP JUMP JUMPDEST PUSH1 0x0 PUSH1 0x20 DUP3 DUP5 SUB SLT ISZERO PUSH2 0x18A2 JUMPI PUSH2 0x18A1 PUSH2 0x11B8 JUMP JUMPDEST JUMPDEST PUSH1 0x0 PUSH2 0x18B0 DUP5 DUP3 DUP6 ADD PUSH2 0x16CF JUMP JUMPDEST SWAP2 POP POP SWAP3 SWAP2 POP POP JUMP JUMPDEST PUSH1 0x0 DUP3 DUP3 MSTORE PUSH1 0x20 DUP3 ADD SWAP1 POP SWAP3 SWAP2 POP POP JUMP JUMPDEST PUSH32 0x506C656173652070726F766964652076616C6964206461746100000000000000 PUSH1 0x0 DUP3 ADD MSTORE POP JUMP JUMPDEST PUSH1 0x0 PUSH2 0x1900 PUSH1 0x19 DUP4 PUSH2 0x18B9 JUMP JUMPDEST SWAP2 POP PUSH2 0x190B DUP3 PUSH2 0x18CA JUMP JUMPDEST PUSH1 0x20 DUP3 ADD SWAP1 POP SWAP2 SWAP1 POP JUMP JUMPDEST PUSH1 0x0 PUSH1 0x20 DUP3 ADD SWAP1 POP DUP2 DUP2 SUB PUSH1 0x0 DUP4 ADD MSTORE PUSH2 0x192F DUP2 PUSH2 0x18F3 JUMP JUMPDEST SWAP1 POP SWAP2 SWAP1 POP JUMP JUMPDEST PUSH32 0x4E487B7100000000000000000000000000000000000000000000000000000000 PUSH1 0x0 MSTORE PUSH1 0x32 PUSH1 0x4 MSTORE PUSH1 0x24 PUSH1 0x0 REVERT JUMPDEST PUSH1 0x0 PUSH1 0x40 DUP3 ADD SWAP1 POP PUSH2 0x197A PUSH1 0x0 DUP4 ADD DUP6 PUSH2 0x1184 JUMP JUMPDEST PUSH2 0x1987 PUSH1 0x20 DUP4 ADD DUP5 PUSH2 0x1184 JUMP JUMPDEST SWAP4 SWAP3 POP POP POP JUMP JUMPDEST PUSH32 0x4E487B7100000000000000000000000000000000000000000000000000000000 PUSH1 0x0 MSTORE PUSH1 0x11 PUSH1 0x4 MSTORE PUSH1 0x24 PUSH1 0x0 REVERT JUMPDEST PUSH1 0x0 PUSH2 0x19C8 DUP3 PUSH2 0x117A JUMP JUMPDEST SWAP2 POP PUSH2 0x19D3 DUP4 PUSH2 0x117A JUMP JUMPDEST SWAP3 POP DUP3 DUP3 LT ISZERO PUSH2 0x19E6 JUMPI PUSH2 0x19E5 PUSH2 0x198E JUMP JUMPDEST JUMPDEST DUP3 DUP3 SUB SWAP1 POP SWAP3 SWAP2 POP POP JUMP JUMPDEST PUSH1 0x0 PUSH1 0x40 DUP3 ADD SWAP1 POP PUSH2 0x1A06 PUSH1 0x0 DUP4 ADD DUP6 PUSH2 0x1862 JUMP JUMPDEST PUSH2 0x1A13 PUSH1 0x20 DUP4 ADD DUP5 PUSH2 0x1184 JUMP JUMPDEST SWAP4 SWAP3 POP POP POP JUMP JUMPDEST PUSH1 0x0 PUSH1 0x20 DUP3 DUP5 SUB SLT ISZERO PUSH2 0x1A30 JUMPI PUSH2 0x1A2F PUSH2 0x11B8 JUMP JUMPDEST JUMPDEST PUSH1 0x0 PUSH2 0x1A3E DUP5 DUP3 DUP6 ADD PUSH2 0x16A3 JUMP JUMPDEST SWAP2 POP POP SWAP3 SWAP2 POP POP JUMP JUMPDEST PUSH1 0x0 PUSH1 0x20 DUP3 DUP5 SUB SLT ISZERO PUSH2 0x1A5D JUMPI PUSH2 0x1A5C PUSH2 0x11B8 JUMP JUMPDEST JUMPDEST PUSH1 0x0 PUSH2 0x1A6B DUP5 DUP3 DUP6 ADD PUSH2 0x170D JUMP JUMPDEST SWAP2 POP POP SWAP3 SWAP2 POP POP JUMP JUMPDEST PUSH1 0x0 DUP1 REVERT JUMPDEST PUSH1 0x0 DUP1 REVERT JUMPDEST PUSH1 0x0 DUP1 REVERT JUMPDEST PUSH1 0x0 DUP1 DUP4 CALLDATALOAD PUSH1 0x1 PUSH1 0x20 SUB DUP5 CALLDATASIZE SUB SUB DUP2 SLT PUSH2 0x1AA0 JUMPI PUSH2 0x1A9F PUSH2 0x1A74 JUMP JUMPDEST JUMPDEST DUP1 DUP5 ADD SWAP3 POP DUP3 CALLDATALOAD SWAP2 POP PUSH8 0xFFFFFFFFFFFFFFFF DUP3 GT ISZERO PUSH2 0x1AC2 JUMPI PUSH2 0x1AC1 PUSH2 0x1A79 JUMP JUMPDEST JUMPDEST PUSH1 0x20 DUP4 ADD SWAP3 POP PUSH1 0x1 DUP3 MUL CALLDATASIZE SUB DUP4 SGT ISZERO PUSH2 0x1ADE JUMPI PUSH2 0x1ADD PUSH2 0x1A7E JUMP JUMPDEST JUMPDEST POP SWAP3 POP SWAP3 SWAP1 POP JUMP JUMPDEST PUSH1 0x0 PUSH2 0x1AF1 DUP3 PUSH2 0x183E JUMP JUMPDEST SWAP1 POP SWAP2 SWAP1 POP JUMP JUMPDEST PUSH2 0x1B01 DUP2 PUSH2 0x1AE6 JUMP JUMPDEST DUP3 MSTORE POP POP JUMP JUMPDEST PUSH1 0x0 PUSH1 0x40 DUP3 ADD SWAP1 POP PUSH2 0x1B1C PUSH1 0x0 DUP4 ADD DUP6 PUSH2 0x1AF8 JUMP JUMPDEST PUSH2 0x1B29 PUSH1 0x20 DUP4 ADD DUP5 PUSH2 0x1184 JUMP JUMPDEST SWAP4 SWAP3 POP POP POP JUMP JUMPDEST PUSH1 0x0 PUSH2 0x1B3B DUP3 PUSH2 0x117A JUMP JUMPDEST SWAP2 POP PUSH32 0xFFFFFFFFFFFFFFFFFFFFFFFFFFFFFFFFFFFFFFFFFFFFFFFFFFFFFFFFFFFFFFFF DUP3 EQ ISZERO PUSH2 0x1B6E JUMPI PUSH2 0x1B6D PUSH2 0x198E JUMP JUMPDEST JUMPDEST PUSH1 0x1 DUP3 ADD SWAP1 POP SWAP2 SWAP1 POP JUMP JUMPDEST PUSH32 0x506C656173652070726F7669646520612076616C696420616464726573730000 PUSH1 0x0 DUP3 ADD MSTORE POP JUMP JUMPDEST PUSH1 0x0 PUSH2 0x1BAF PUSH1 0x1E DUP4 PUSH2 0x18B9 JUMP JUMPDEST SWAP2 POP PUSH2 0x1BBA DUP3 PUSH2 0x1B79 JUMP JUMPDEST PUSH1 0x20 DUP3 ADD SWAP1 POP SWAP2 SWAP1 POP JUMP JUMPDEST PUSH1 0x0 PUSH1 0x20 DUP3 ADD SWAP1 POP DUP2 DUP2 SUB PUSH1 0x0 DUP4 ADD MSTORE PUSH2 0x1BDE DUP2 PUSH2 0x1BA2 JUMP JUMPDEST SWAP1 POP SWAP2 SWAP1 POP JUMP JUMPDEST PUSH1 0x0 DUP2 MLOAD SWAP1 POP PUSH2 0x1BF4 DUP2 PUSH2 0x13E1 JUMP JUMPDEST SWAP3 SWAP2 POP POP JUMP JUMPDEST PUSH1 0x0 PUSH1 0x20 DUP3 DUP5 SUB SLT ISZERO PUSH2 0x1C10 JUMPI PUSH2 0x1C0F PUSH2 0x11B8 JUMP JUMPDEST JUMPDEST PUSH1 0x0 PUSH2 0x1C1E DUP5 DUP3 DUP6 ADD PUSH2 0x1BE5 JUMP JUMPDEST SWAP2 POP POP SWAP3 SWAP2 POP POP JUMP JUMPDEST PUSH1 0x0 PUSH16 0xFFFFFFFFFFFFFFFFFFFFFFFFFFFFFFFF DUP3 AND SWAP1 POP SWAP2 SWAP1 POP JUMP JUMPDEST PUSH1 0x0 PUSH2 0x1C5E PUSH2 0x1C59 PUSH2 0x1C54 DUP5 PUSH2 0x1C27 JUMP JUMPDEST PUSH2 0x1812 JUMP JUMPDEST PUSH2 0x117A JUMP JUMPDEST SWAP1 POP SWAP2 SWAP1 POP JUMP JUMPDEST PUSH2 0x1C6E DUP2 PUSH2 0x1C43 JUMP JUMPDEST DUP3 MSTORE POP POP JUMP JUMPDEST PUSH1 0x0 PUSH1 0x40 DUP3 ADD SWAP1 POP PUSH2 0x1C89 PUSH1 0x0 DUP4 ADD DUP6 PUSH2 0x1650 JUMP JUMPDEST PUSH2 0x1C96 PUSH1 0x20 DUP4 ADD DUP5 PUSH2 0x1C65 JUMP JUMPDEST SWAP4 SWAP3 POP POP POP JUMP JUMPDEST PUSH1 0x0 DUP2 ISZERO ISZERO SWAP1 POP SWAP2 SWAP1 POP JUMP JUMPDEST PUSH2 0x1CB2 DUP2 PUSH2 0x1C9D JUMP JUMPDEST DUP2 EQ PUSH2 0x1CBD JUMPI PUSH1 0x0 DUP1 REVERT JUMPDEST POP JUMP JUMPDEST PUSH1 0x0 DUP2 MLOAD SWAP1 POP PUSH2 0x1CCF DUP2 PUSH2 0x1CA9 JUMP JUMPDEST SWAP3 SWAP2 POP POP JUMP JUMPDEST PUSH1 0x0 PUSH1 0x20 DUP3 DUP5 SUB SLT ISZERO PUSH2 0x1CEB JUMPI PUSH2 0x1CEA PUSH2 0x11B8 JUMP JUMPDEST JUMPDEST PUSH1 0x0 PUSH2 0x1CF9 DUP5 DUP3 DUP6 ADD PUSH2 0x1CC0 JUMP JUMPDEST SWAP2 POP POP SWAP3 SWAP2 POP POP JUMP JUMPDEST PUSH1 0x0 DUP2 SWAP1 POP SWAP3 SWAP2 POP POP JUMP JUMPDEST DUP3 DUP2 DUP4 CALLDATACOPY PUSH1 0x0 DUP4 DUP4 ADD MSTORE POP POP POP JUMP JUMPDEST PUSH1 0x0 PUSH2 0x1D28 DUP4 DUP6 PUSH2 0x1D02 JUMP JUMPDEST SWAP4 POP PUSH2 0x1D35 DUP4 DUP6 DUP5 PUSH2 0x1D0D JUMP JUMPDEST DUP3 DUP5 ADD SWAP1 POP SWAP4 SWAP3 POP POP POP JUMP JUMPDEST PUSH1 0x0 PUSH2 0x1D4E DUP3 DUP5 DUP7 PUSH2 0x1D1C JUMP JUMPDEST SWAP2 POP DUP2 SWAP1 POP SWAP4 SWAP3 POP POP POP JUMP JUMPDEST PUSH2 0x1D63 DUP2 PUSH2 0x1C9D JUMP JUMPDEST DUP3 MSTORE POP POP JUMP JUMPDEST PUSH1 0x0 PUSH1 0x40 DUP3 ADD SWAP1 POP PUSH2 0x1D7E PUSH1 0x0 DUP4 ADD DUP6 PUSH2 0x1D5A JUMP JUMPDEST PUSH2 0x1D8B PUSH1 0x20 DUP4 ADD DUP5 PUSH2 0x1184 JUMP JUMPDEST SWAP4 SWAP3 POP POP POP JUMP JUMPDEST PUSH32 0x535741505F43414C4C5F4641494C454400000000000000000000000000000000 PUSH1 0x0 DUP3 ADD MSTORE POP JUMP JUMPDEST PUSH1 0x0 PUSH2 0x1DC8 PUSH1 0x10 DUP4 PUSH2 0x18B9 JUMP JUMPDEST SWAP2 POP PUSH2 0x1DD3 DUP3 PUSH2 0x1D92 JUMP JUMPDEST PUSH1 0x20 DUP3 ADD SWAP1 POP SWAP2 SWAP1 POP JUMP JUMPDEST PUSH1 0x0 PUSH1 0x20 DUP3 ADD SWAP1 POP DUP2 DUP2 SUB PUSH1 0x0 DUP4 ADD MSTORE PUSH2 0x1DF7 DUP2 PUSH2 0x1DBB JUMP JUMPDEST SWAP1 POP SWAP2 SWAP1 POP JUMP JUMPDEST PUSH32 0x4F776E61626C653A206E6577206F776E657220697320746865207A65726F2061 PUSH1 0x0 DUP3 ADD MSTORE PUSH32 0x6464726573730000000000000000000000000000000000000000000000000000 PUSH1 0x20 DUP3 ADD MSTORE POP JUMP JUMPDEST PUSH1 0x0 PUSH2 0x1E5A PUSH1 0x26 DUP4 PUSH2 0x18B9 JUMP JUMPDEST SWAP2 POP PUSH2 0x1E65 DUP3 PUSH2 0x1DFE JUMP JUMPDEST PUSH1 0x40 DUP3 ADD SWAP1 POP SWAP2 SWAP1 POP JUMP JUMPDEST PUSH1 0x0 PUSH1 0x20 DUP3 ADD SWAP1 POP DUP2 DUP2 SUB PUSH1 0x0 DUP4 ADD MSTORE PUSH2 0x1E89 DUP2 PUSH2 0x1E4D JUMP JUMPDEST SWAP1 POP SWAP2 SWAP1 POP JUMP JUMPDEST PUSH1 0x0 PUSH1 0x40 DUP3 ADD SWAP1 POP PUSH2 0x1EA5 PUSH1 0x0 DUP4 ADD DUP6 PUSH2 0x1650 JUMP JUMPDEST PUSH2 0x1EB2 PUSH1 0x20 DUP4 ADD DUP5 PUSH2 0x1184 JUMP JUMPDEST SWAP4 SWAP3 POP POP POP JUMP JUMPDEST PUSH1 0x0 PUSH1 0x60 DUP3 ADD SWAP1 POP PUSH2 0x1ECE PUSH1 0x0 DUP4 ADD DUP7 PUSH2 0x1650 JUMP JUMPDEST PUSH2 0x1EDB PUSH1 0x20 DUP4 ADD DUP6 PUSH2 0x1650 JUMP JUMPDEST PUSH2 0x1EE8 PUSH1 0x40 DUP4 ADD DUP5 PUSH2 0x1184 JUMP JUMPDEST SWAP5 SWAP4 POP POP POP POP JUMP JUMPDEST PUSH32 0x4F776E61626C653A2063616C6C6572206973206E6F7420746865206F776E6572 PUSH1 0x0 DUP3 ADD MSTORE POP JUMP JUMPDEST PUSH1 0x0 PUSH2 0x1F26 PUSH1 0x20 DUP4 PUSH2 0x18B9 JUMP JUMPDEST SWAP2 POP PUSH2 0x1F31 DUP3 PUSH2 0x1EF0 JUMP JUMPDEST PUSH1 0x20 DUP3 ADD SWAP1 POP SWAP2 SWAP1 POP JUMP JUMPDEST PUSH1 0x0 PUSH1 0x20 DUP3 ADD SWAP1 POP DUP2 DUP2 SUB PUSH1 0x0 DUP4 ADD MSTORE PUSH2 0x1F55 DUP2 PUSH2 0x1F19 JUMP JUMPDEST SWAP1 POP SWAP2 SWAP1 POP JUMP INVALID LOG2 PUSH5 0x6970667358 0x22 SLT KECCAK256 0x2F 0xDC 0xB5 0x4A DUP8 DUP8 PUSH27 0x45503771EF22851564FC6BE81FB2A2AAE2836FA2B5060C30D6473 PUSH16 0x6C634300080800330000000000000000 "},"gasEstimates":{"creation":{"codeDepositCost":"1616400","executionCost":"infinite","totalCost":"infinite"},"external":{"":"174","WETH()":"infinite","fillQuote(address,address,address,address,bytes)":"infinite","maxTransactions()":"2430","multiSwap(address[],address[],address[],address[],bytes[],uint256[])":"infinite","owner()":"2522","renounceOwnership()":"30443","setMaxTransactionLimit(uint256)":"infinite","transferOwnership(address)":"30835","withdrawETH(uint256)":"infinite"},"internal":{"depositToken(contract IERC20,uint256)":"infinite","setDestination()":"22","transferEth(uint256,address)":"infinite","withdrawToken(contract IERC20,uint256)":"infinite"}},"methodIdentifiers":{"WETH()":"ad5c4648","fillQuote(address,address,address,address,bytes)":"ab971612","maxTransactions()":"24e1c18d","multiSwap(address[],address[],address[],address[],bytes[],uint256[])":"6ca591a7","owner()":"8da5cb5b","renounceOwnership()":"715018a6","setMaxTransactionLimit(uint256)":"7a9d7c14","transferOwnership(address)":"f2fde38b","withdrawETH(uint256)":"f14210a6"}},"storageLayout":{"storage":[{"astId":7,"contract":"contracts/AlphaVault.sol:AlphaVaultSwap","label":"_owner","offset":0,"slot":"0","type":"t_address"},{"astId":274,"contract":"contracts/AlphaVault.sol:AlphaVaultSwap","label":"maxTransactions","offset":0,"slot":"1","type":"t_uint256"},{"astId":276,"contract":"contracts/AlphaVault.sol:AlphaVaultSwap","label":"destination","offset":0,"slot":"2","type":"t_address"}],"types":{"t_address":{"encoding":"inplace","label":"address","numberOfBytes":"20"},"t_uint256":{"encoding":"inplace","label":"uint256","numberOfBytes":"32"}}},"userdoc":{"kind":"user","methods":{},"version":1}}}}