{"contracts/AlphaVault.sol":{"AlphaVaultSwap":{"abi":[{"inputs":[],"stateMutability":"nonpayable","type":"constructor"},{"anonymous":false,"inputs":[{"indexed":false,"internalType":"uint256","name":"wethBal_","type":"uint256"},{"indexed":false,"internalType":"uint256","name":"reqAmount_","type":"uint256"}],"name":"BadRequest","type":"event"},{"anonymous":false,"inputs":[{"indexed":false,"internalType":"uint256","name":"wethBal_","type":"uint256"}],"name":"EtherBalanceChange","type":"event"},{"anonymous":false,"inputs":[{"indexed":true,"internalType":"address","name":"previousOwner","type":"address"},{"indexed":true,"internalType":"address","name":"newOwner","type":"address"}],"name":"OwnershipTransferred","type":"event"},{"anonymous":false,"inputs":[{"indexed":true,"internalType":"address","name":"from_","type":"address"},{"indexed":true,"internalType":"address","name":"to_","type":"address"},{"indexed":false,"internalType":"uint256","name":"amount_","type":"uint256"}],"name":"TransferSuccessful","type":"event"},{"anonymous":false,"inputs":[{"indexed":false,"internalType":"contract IERC20","name":"buyToken","type":"address"},{"indexed":false,"internalType":"uint256","name":"boughtAmount_","type":"uint256"}],"name":"WithdrawTokens","type":"event"},{"anonymous":false,"inputs":[{"indexed":false,"internalType":"bool","name":"status","type":"bool"},{"indexed":false,"internalType":"uint256","name":"initialBuyTokenBalance","type":"uint256"}],"name":"ZeroXCallSuccess","type":"event"},{"anonymous":false,"inputs":[{"indexed":false,"internalType":"uint256","name":"buTokenAmount","type":"uint256"}],"name":"buyTokenBought","type":"event"},{"anonymous":false,"inputs":[{"indexed":false,"internalType":"uint256","name":"maxTransactions","type":"uint256"}],"name":"maxTransactionsChange","type":"event"},{"stateMutability":"payable","type":"fallback"},{"inputs":[],"name":"WETH","outputs":[{"internalType":"contract IWETH","name":"","type":"address"}],"stateMutability":"view","type":"function"},{"inputs":[{"internalType":"contract IERC20","name":"buyToken","type":"address"},{"internalType":"contract IERC20","name":"sellToken","type":"address"},{"internalType":"address","name":"spender","type":"address"},{"internalType":"address payable","name":"swapTarget","type":"address"},{"internalType":"bytes","name":"swapCallData","type":"bytes"}],"name":"fillQuote","outputs":[{"internalType":"uint256","name":"","type":"uint256"}],"stateMutability":"nonpayable","type":"function"},{"inputs":[],"name":"maxTransactions","outputs":[{"internalType":"uint256","name":"","type":"uint256"}],"stateMutability":"view","type":"function"},{"inputs":[{"internalType":"contract IERC20[]","name":"sellToken","type":"address[]"},{"internalType":"contract IERC20[]","name":"buyToken","type":"address[]"},{"internalType":"address[]","name":"spender","type":"address[]"},{"internalType":"address payable[]","name":"swapTarget","type":"address[]"},{"internalType":"bytes[]","name":"swapCallData","type":"bytes[]"},{"internalType":"uint256[]","name":"amount","type":"uint256[]"}],"name":"multiSwap","outputs":[],"stateMutability":"payable","type":"function"},{"inputs":[],"name":"owner","outputs":[{"internalType":"address","name":"","type":"address"}],"stateMutability":"view","type":"function"},{"inputs":[],"name":"renounceOwnership","outputs":[],"stateMutability":"nonpayable","type":"function"},{"inputs":[{"internalType":"uint256","name":"num","type":"uint256"}],"name":"setMaxTransactionLimit","outputs":[],"stateMutability":"nonpayable","type":"function"},{"inputs":[{"internalType":"address","name":"newOwner","type":"address"}],"name":"transferOwnership","outputs":[],"stateMutability":"nonpayable","type":"function"},{"inputs":[{"internalType":"uint256","name":"amount","type":"uint256"}],"name":"withdrawETH","outputs":[],"stateMutability":"nonpayable","type":"function"},{"stateMutability":"payable","type":"receive"}],"devdoc":{"events":{"TransferSuccessful(address,address,uint256)":{"details":"Event to notify if transfer successful or failed after account approval verified"}},"kind":"dev","methods":{"multiSwap(address[],address[],address[],address[],bytes[],uint256[])":{"params":{"amount":"numbers of token to transfer  in unit256"}},"owner()":{"details":"Returns the address of the current owner."},"renounceOwnership()":{"details":"Leaves the contract without owner. It will not be possible to call `onlyOwner` functions anymore. Can only be called by the current owner. NOTE: Renouncing ownership will leave the contract without an owner, thereby removing any functionality that is only available to the owner."},"transferOwnership(address)":{"details":"Transfers ownership of the contract to a new account (`newOwner`). Can only be called by the current owner."}},"version":1},"evm":{"bytecode":{"linkReferences":{},"object":"60a060405234801561001057600080fd5b5061002d61002261008560201b60201c565b61008d60201b60201c565b7321be370d5312f44cb42ce377bc9b8a0cef1a4c8373ffffffffffffffffffffffffffffffffffffffff1660808173ffffffffffffffffffffffffffffffffffffffff1660601b815250506019600181905550610151565b600033905090565b60008060009054906101000a900473ffffffffffffffffffffffffffffffffffffffff169050816000806101000a81548173ffffffffffffffffffffffffffffffffffffffff021916908373ffffffffffffffffffffffffffffffffffffffff1602179055508173ffffffffffffffffffffffffffffffffffffffff168173ffffffffffffffffffffffffffffffffffffffff167f8be0079c531659141344cd1fd0a4f28419497f9722a3daafe3b4186f6b6457e060405160405180910390a35050565b60805160601c61213d620001936000396000818161028c0152818161047701528181610584015281816108b101528181610a2a0152610e82015261213d6000f3fe60806040526004361061008a5760003560e01c80638da5cb5b116100595780638da5cb5b1461011a578063ab97161214610145578063ad5c464814610182578063f14210a6146101ad578063f2fde38b146101d657610091565b806324e1c18d146100935780636ca591a7146100be578063715018a6146100da5780637a9d7c14146100f157610091565b3661009157005b005b34801561009f57600080fd5b506100a86101ff565b6040516100b591906112bb565b60405180910390f35b6100d860048036038101906100d391906115cc565b610205565b005b3480156100e657600080fd5b506100ef610a96565b005b3480156100fd57600080fd5b5061011860048036038101906101139190611719565b610aaa565b005b34801561012657600080fd5b5061012f610af5565b60405161013c9190611787565b60405180910390f35b34801561015157600080fd5b5061016c600480360381019061016791906118a0565b610b1e565b60405161017991906112bb565b60405180910390f35b34801561018e57600080fd5b50610197610e80565b6040516101a49190611999565b60405180910390f35b3480156101b957600080fd5b506101d460048036038101906101cf9190611719565b610ea4565b005b3480156101e257600080fd5b506101fd60048036038101906101f891906119b4565b610ef6565b005b60015481565b6001548b8b90501115801561021f5750888890508b8b9050145b801561023057508888905087879050145b801561024157508686905085859050145b610280576040517f08c379a000000000000000000000000000000000000000000000000000000000815260040161027790611a3e565b60405180910390fd5b600080341115610346577f000000000000000000000000000000000000000000000000000000000000000073ffffffffffffffffffffffffffffffffffffffff1663d0e30db0346040518263ffffffff1660e01b81526004016000604051808303818588803b1580156102f257600080fd5b505af1158015610306573d6000803e3d6000fd5b50505050503490507f59e3c56b3739d587caa0270fae7c28e1b6a1af555395ad122400ff97d48fed168160405161033d91906112bb565b60405180910390a15b60005b88889050811015610a1b57600073ffffffffffffffffffffffffffffffffffffffff1689898381811061037f5761037e611a5e565b5b905060200201602081019061039491906119b4565b73ffffffffffffffffffffffffffffffffffffffff161415610582578281815181106103c3576103c2611a5e565b5b602002602001015182101561042a577f0b74b0798ec89f7cf91b1446e01c1bb75b7d55c45b104edfb364a46a074e2f568284838151811061040757610406611a5e565b5b602002602001015160405161041d929190611a8d565b60405180910390a1610a1b565b600083828151811061043f5761043e611a5e565b5b6020026020010151111561057d578281815181106104605761045f611a5e565b5b6020026020010151826104739190611ae5565b91507f000000000000000000000000000000000000000000000000000000000000000073ffffffffffffffffffffffffffffffffffffffff16632e1a7d4d8483815181106104c4576104c3611a5e565b5b60200260200101516040518263ffffffff1660e01b81526004016104e891906112bb565b600060405180830381600087803b15801561050257600080fd5b505af1158015610516573d6000803e3d6000fd5b505050506105458382815181106105305761052f611a5e565b5b6020026020010151610540610f7a565b610f82565b7f59e3c56b3739d587caa0270fae7c28e1b6a1af555395ad122400ff97d48fed168260405161057491906112bb565b60405180910390a15b610a08565b7f000000000000000000000000000000000000000000000000000000000000000073ffffffffffffffffffffffffffffffffffffffff168d8d838181106105cc576105cb611a5e565b5b90506020020160208101906105e19190611b19565b73ffffffffffffffffffffffffffffffffffffffff161415610792578a8a828181106106105761060f611a5e565b5b90506020020160208101906106259190611b19565b73ffffffffffffffffffffffffffffffffffffffff168d8d8381811061064e5761064d611a5e565b5b90506020020160208101906106639190611b19565b73ffffffffffffffffffffffffffffffffffffffff16141561072e576106ca8d8d8381811061069557610694611a5e565b5b90506020020160208101906106aa9190611b19565b8483815181106106bd576106bc611a5e565b5b6020026020010151610fcd565b8281815181106106dd576106dc611a5e565b5b6020026020010151826106f09190611b46565b91507f59e3c56b3739d587caa0270fae7c28e1b6a1af555395ad122400ff97d48fed168260405161072191906112bb565b60405180910390a1610a08565b82818151811061074157610740611a5e565b5b6020026020010151826107549190611ae5565b91507f59e3c56b3739d587caa0270fae7c28e1b6a1af555395ad122400ff97d48fed168260405161078591906112bb565b60405180910390a16107de565b6107dd8d8d838181106107a8576107a7611a5e565b5b90506020020160208101906107bd9190611b19565b8483815181106107d0576107cf611a5e565b5b6020026020010151610fcd565b5b60006108ad8c8c848181106107f6576107f5611a5e565b5b905060200201602081019061080b9190611b19565b8f8f8581811061081e5761081d611a5e565b5b90506020020160208101906108339190611b19565b8c8c8681811061084657610845611a5e565b5b905060200201602081019061085b91906119b4565b8b8b8781811061086e5761086d611a5e565b5b90506020020160208101906108839190611b9c565b8a8a8881811061089657610895611a5e565b5b90506020028101906108a89190611bd8565b610b1e565b90507f000000000000000000000000000000000000000000000000000000000000000073ffffffffffffffffffffffffffffffffffffffff168c8c848181106108f9576108f8611a5e565b5b905060200201602081019061090e9190611b19565b73ffffffffffffffffffffffffffffffffffffffff1614156109745780836109369190611b46565b92507f59e3c56b3739d587caa0270fae7c28e1b6a1af555395ad122400ff97d48fed168360405161096791906112bb565b60405180910390a1610a06565b6109a58c8c8481811061098a57610989611a5e565b5b905060200201602081019061099f9190611b19565b826110c6565b7f680f2e4f4032ebf1774e8cdbaddcb1b617a5a606411c8ca96257ada338d3833c8c8c848181106109d9576109d8611a5e565b5b90506020020160208101906109ee9190611b19565b826040516109fd929190611c5c565b60405180910390a15b505b8080610a1390611c85565b915050610349565b506000811115610a8857610a4f7f0000000000000000000000000000000000000000000000000000000000000000826110c6565b7f59e3c56b3739d587caa0270fae7c28e1b6a1af555395ad122400ff97d48fed166000604051610a7f9190611d09565b60405180910390a15b505050505050505050505050565b610a9e611158565b610aa860006111d6565b565b610ab2611158565b806001819055507f5091ccfe22ca8f99d8f1f07c6ae3a61daf990d74ef229d46898624ff3977238c600154604051610aea91906112bb565b60405180910390a150565b60008060009054906101000a900473ffffffffffffffffffffffffffffffffffffffff16905090565b60008073ffffffffffffffffffffffffffffffffffffffff168573ffffffffffffffffffffffffffffffffffffffff161415610b8f576040517f08c379a0000000000000000000000000000000000000000000000000000000008152600401610b8690611d70565b60405180910390fd5b60008773ffffffffffffffffffffffffffffffffffffffff166370a08231306040518263ffffffff1660e01b8152600401610bca9190611787565b60206040518083038186803b158015610be257600080fd5b505afa158015610bf6573d6000803e3d6000fd5b505050506040513d601f19601f82011682018060405250810190610c1a9190611da5565b90508673ffffffffffffffffffffffffffffffffffffffff1663095ea7b3876fffffffffffffffffffffffffffffffff6040518363ffffffff1660e01b8152600401610c67929190611e1f565b602060405180830381600087803b158015610c8157600080fd5b505af1158015610c95573d6000803e3d6000fd5b505050506040513d601f19601f82011682018060405250810190610cb99190611e80565b5060008573ffffffffffffffffffffffffffffffffffffffff1660008686604051610ce5929190611eec565b60006040518083038185875af1925050503d8060008114610d22576040519150601f19603f3d011682016040523d82523d6000602084013e610d27565b606091505b505090507fb1bbdf0cbdd013d8d322184c42c16dafe4b2b3b66c3d60f46874b6c78b9a87f68183604051610d5c929190611f14565b60405180910390a180610da4576040517f08c379a0000000000000000000000000000000000000000000000000000000008152600401610d9b90611f89565b60405180910390fd5b818973ffffffffffffffffffffffffffffffffffffffff166370a08231306040518263ffffffff1660e01b8152600401610dde9190611787565b60206040518083038186803b158015610df657600080fd5b505afa158015610e0a573d6000803e3d6000fd5b505050506040513d601f19601f82011682018060405250810190610e2e9190611da5565b610e389190611ae5565b91507f74496fce2cdc392d99808924e4161c005195a64fee4c166b02c2b716db28abb082604051610e6991906112bb565b60405180910390a181925050509695505050505050565b7f000000000000000000000000000000000000000000000000000000000000000081565b610eac611158565b3373ffffffffffffffffffffffffffffffffffffffff166108fc829081150290604051600060405180830381858888f19350505050158015610ef2573d6000803e3d6000fd5b5050565b610efe611158565b600073ffffffffffffffffffffffffffffffffffffffff168173ffffffffffffffffffffffffffffffffffffffff161415610f6e576040517f08c379a0000000000000000000000000000000000000000000000000000000008152600401610f659061201b565b60405180910390fd5b610f77816111d6565b50565b600033905090565b8073ffffffffffffffffffffffffffffffffffffffff166108fc839081150290604051600060405180830381858888f19350505050158015610fc8573d6000803e3d6000fd5b505050565b8173ffffffffffffffffffffffffffffffffffffffff166323b872dd3330846040518463ffffffff1660e01b815260040161100a9392919061203b565b602060405180830381600087803b15801561102457600080fd5b505af1158015611038573d6000803e3d6000fd5b505050506040513d601f19601f8201168201806040525081019061105c9190611e80565b503073ffffffffffffffffffffffffffffffffffffffff163373ffffffffffffffffffffffffffffffffffffffff167fd6d3eb25a413c05d8107fc49deb2789bef7f612582b2482804c0b0423b6638ee836040516110ba91906112bb565b60405180910390a35050565b8173ffffffffffffffffffffffffffffffffffffffff1663a9059cbb33836040518363ffffffff1660e01b8152600401611101929190612072565b602060405180830381600087803b15801561111b57600080fd5b505af115801561112f573d6000803e3d6000fd5b505050506040513d601f19601f820116820180604052508101906111539190611e80565b505050565b61116061129a565b73ffffffffffffffffffffffffffffffffffffffff1661117e610af5565b73ffffffffffffffffffffffffffffffffffffffff16146111d4576040517f08c379a00000000000000000000000000000000000000000000000000000000081526004016111cb906120e7565b60405180910390fd5b565b60008060009054906101000a900473ffffffffffffffffffffffffffffffffffffffff169050816000806101000a81548173ffffffffffffffffffffffffffffffffffffffff021916908373ffffffffffffffffffffffffffffffffffffffff1602179055508173ffffffffffffffffffffffffffffffffffffffff168173ffffffffffffffffffffffffffffffffffffffff167f8be0079c531659141344cd1fd0a4f28419497f9722a3daafe3b4186f6b6457e060405160405180910390a35050565b600033905090565b6000819050919050565b6112b5816112a2565b82525050565b60006020820190506112d060008301846112ac565b92915050565b6000604051905090565b600080fd5b600080fd5b600080fd5b600080fd5b600080fd5b60008083601f84011261130f5761130e6112ea565b5b8235905067ffffffffffffffff81111561132c5761132b6112ef565b5b602083019150836020820283011115611348576113476112f4565b5b9250929050565b60008083601f840112611365576113646112ea565b5b8235905067ffffffffffffffff811115611382576113816112ef565b5b60208301915083602082028301111561139e5761139d6112f4565b5b9250929050565b60008083601f8401126113bb576113ba6112ea565b5b8235905067ffffffffffffffff8111156113d8576113d76112ef565b5b6020830191508360208202830111156113f4576113f36112f4565b5b9250929050565b60008083601f840112611411576114106112ea565b5b8235905067ffffffffffffffff81111561142e5761142d6112ef565b5b60208301915083602082028301111561144a576114496112f4565b5b9250929050565b6000601f19601f8301169050919050565b7f4e487b7100000000000000000000000000000000000000000000000000000000600052604160045260246000fd5b61149a82611451565b810181811067ffffffffffffffff821117156114b9576114b8611462565b5b80604052505050565b60006114cc6112d6565b90506114d88282611491565b919050565b600067ffffffffffffffff8211156114f8576114f7611462565b5b602082029050602081019050919050565b611512816112a2565b811461151d57600080fd5b50565b60008135905061152f81611509565b92915050565b6000611548611543846114dd565b6114c2565b9050808382526020820190506020840283018581111561156b5761156a6112f4565b5b835b8181101561159457806115808882611520565b84526020840193505060208101905061156d565b5050509392505050565b600082601f8301126115b3576115b26112ea565b5b81356115c3848260208601611535565b91505092915050565b600080600080600080600080600080600060c08c8e0312156115f1576115f06112e0565b5b60008c013567ffffffffffffffff81111561160f5761160e6112e5565b5b61161b8e828f016112f9565b9b509b505060208c013567ffffffffffffffff81111561163e5761163d6112e5565b5b61164a8e828f016112f9565b995099505060408c013567ffffffffffffffff81111561166d5761166c6112e5565b5b6116798e828f0161134f565b975097505060608c013567ffffffffffffffff81111561169c5761169b6112e5565b5b6116a88e828f016113a5565b955095505060808c013567ffffffffffffffff8111156116cb576116ca6112e5565b5b6116d78e828f016113fb565b935093505060a08c013567ffffffffffffffff8111156116fa576116f96112e5565b5b6117068e828f0161159e565b9150509295989b509295989b9093969950565b60006020828403121561172f5761172e6112e0565b5b600061173d84828501611520565b91505092915050565b600073ffffffffffffffffffffffffffffffffffffffff82169050919050565b600061177182611746565b9050919050565b61178181611766565b82525050565b600060208201905061179c6000830184611778565b92915050565b60006117ad82611766565b9050919050565b6117bd816117a2565b81146117c857600080fd5b50565b6000813590506117da816117b4565b92915050565b6117e981611766565b81146117f457600080fd5b50565b600081359050611806816117e0565b92915050565b600061181782611746565b9050919050565b6118278161180c565b811461183257600080fd5b50565b6000813590506118448161181e565b92915050565b60008083601f8401126118605761185f6112ea565b5b8235905067ffffffffffffffff81111561187d5761187c6112ef565b5b602083019150836001820283011115611899576118986112f4565b5b9250929050565b60008060008060008060a087890312156118bd576118bc6112e0565b5b60006118cb89828a016117cb565b96505060206118dc89828a016117cb565b95505060406118ed89828a016117f7565b94505060606118fe89828a01611835565b935050608087013567ffffffffffffffff81111561191f5761191e6112e5565b5b61192b89828a0161184a565b92509250509295509295509295565b6000819050919050565b600061195f61195a61195584611746565b61193a565b611746565b9050919050565b600061197182611944565b9050919050565b600061198382611966565b9050919050565b61199381611978565b82525050565b60006020820190506119ae600083018461198a565b92915050565b6000602082840312156119ca576119c96112e0565b5b60006119d8848285016117f7565b91505092915050565b600082825260208201905092915050565b7f506c656173652070726f766964652076616c6964206461746100000000000000600082015250565b6000611a286019836119e1565b9150611a33826119f2565b602082019050919050565b60006020820190508181036000830152611a5781611a1b565b9050919050565b7f4e487b7100000000000000000000000000000000000000000000000000000000600052603260045260246000fd5b6000604082019050611aa260008301856112ac565b611aaf60208301846112ac565b9392505050565b7f4e487b7100000000000000000000000000000000000000000000000000000000600052601160045260246000fd5b6000611af0826112a2565b9150611afb836112a2565b925082821015611b0e57611b0d611ab6565b5b828203905092915050565b600060208284031215611b2f57611b2e6112e0565b5b6000611b3d848285016117cb565b91505092915050565b6000611b51826112a2565b9150611b5c836112a2565b9250827fffffffffffffffffffffffffffffffffffffffffffffffffffffffffffffffff03821115611b9157611b90611ab6565b5b828201905092915050565b600060208284031215611bb257611bb16112e0565b5b6000611bc084828501611835565b91505092915050565b600080fd5b600080fd5b600080fd5b60008083356001602003843603038112611bf557611bf4611bc9565b5b80840192508235915067ffffffffffffffff821115611c1757611c16611bce565b5b602083019250600182023603831315611c3357611c32611bd3565b5b509250929050565b6000611c4682611966565b9050919050565b611c5681611c3b565b82525050565b6000604082019050611c716000830185611c4d565b611c7e60208301846112ac565b9392505050565b6000611c90826112a2565b91507fffffffffffffffffffffffffffffffffffffffffffffffffffffffffffffffff821415611cc357611cc2611ab6565b5b600182019050919050565b6000819050919050565b6000611cf3611cee611ce984611cce565b61193a565b6112a2565b9050919050565b611d0381611cd8565b82525050565b6000602082019050611d1e6000830184611cfa565b92915050565b7f506c656173652070726f7669646520612076616c696420616464726573730000600082015250565b6000611d5a601e836119e1565b9150611d6582611d24565b602082019050919050565b60006020820190508181036000830152611d8981611d4d565b9050919050565b600081519050611d9f81611509565b92915050565b600060208284031215611dbb57611dba6112e0565b5b6000611dc984828501611d90565b91505092915050565b60006fffffffffffffffffffffffffffffffff82169050919050565b6000611e09611e04611dff84611dd2565b61193a565b6112a2565b9050919050565b611e1981611dee565b82525050565b6000604082019050611e346000830185611778565b611e416020830184611e10565b9392505050565b60008115159050919050565b611e5d81611e48565b8114611e6857600080fd5b50565b600081519050611e7a81611e54565b92915050565b600060208284031215611e9657611e956112e0565b5b6000611ea484828501611e6b565b91505092915050565b600081905092915050565b82818337600083830152505050565b6000611ed38385611ead565b9350611ee0838584611eb8565b82840190509392505050565b6000611ef9828486611ec7565b91508190509392505050565b611f0e81611e48565b82525050565b6000604082019050611f296000830185611f05565b611f3660208301846112ac565b9392505050565b7f535741505f43414c4c5f4641494c454400000000000000000000000000000000600082015250565b6000611f736010836119e1565b9150611f7e82611f3d565b602082019050919050565b60006020820190508181036000830152611fa281611f66565b9050919050565b7f4f776e61626c653a206e6577206f776e657220697320746865207a65726f206160008201527f6464726573730000000000000000000000000000000000000000000000000000602082015250565b60006120056026836119e1565b915061201082611fa9565b604082019050919050565b6000602082019050818103600083015261203481611ff8565b9050919050565b60006060820190506120506000830186611778565b61205d6020830185611778565b61206a60408301846112ac565b949350505050565b60006040820190506120876000830185611778565b61209460208301846112ac565b9392505050565b7f4f776e61626c653a2063616c6c6572206973206e6f7420746865206f776e6572600082015250565b60006120d16020836119e1565b91506120dc8261209b565b602082019050919050565b60006020820190508181036000830152612100816120c4565b905091905056fea26469706673582212205824297cf8ddcbf04039310aba27966a8e8f43438ac4bf515ce14fb7d524cb1064736f6c63430008080033","opcodes":"PUSH1 0xA0 PUSH1 0x40 MSTORE CALLVALUE DUP1 ISZERO PUSH2 0x10 JUMPI PUSH1 0x0 DUP1 REVERT JUMPDEST POP PUSH2 0x2D PUSH2 0x22 PUSH2 0x85 PUSH1 0x20 SHL PUSH1 0x20 SHR JUMP JUMPDEST PUSH2 0x8D PUSH1 0x20 SHL PUSH1 0x20 SHR JUMP JUMPDEST PUSH20 0x21BE370D5312F44CB42CE377BC9B8A0CEF1A4C83 PUSH20 0xFFFFFFFFFFFFFFFFFFFFFFFFFFFFFFFFFFFFFFFF AND PUSH1 0x80 DUP2 PUSH20 0xFFFFFFFFFFFFFFFFFFFFFFFFFFFFFFFFFFFFFFFF AND PUSH1 0x60 SHL DUP2 MSTORE POP POP PUSH1 0x19 PUSH1 0x1 DUP2 SWAP1 SSTORE POP PUSH2 0x151 JUMP JUMPDEST PUSH1 0x0 CALLER SWAP1 POP SWAP1 JUMP JUMPDEST PUSH1 0x0 DUP1 PUSH1 0x0 SWAP1 SLOAD SWAP1 PUSH2 0x100 EXP SWAP1 DIV PUSH20 0xFFFFFFFFFFFFFFFFFFFFFFFFFFFFFFFFFFFFFFFF AND SWAP1 POP DUP2 PUSH1 0x0 DUP1 PUSH2 0x100 EXP DUP2 SLOAD DUP2 PUSH20 0xFFFFFFFFFFFFFFFFFFFFFFFFFFFFFFFFFFFFFFFF MUL NOT AND SWAP1 DUP4 PUSH20 0xFFFFFFFFFFFFFFFFFFFFFFFFFFFFFFFFFFFFFFFF AND MUL OR SWAP1 SSTORE POP DUP2 PUSH20 0xFFFFFFFFFFFFFFFFFFFFFFFFFFFFFFFFFFFFFFFF AND DUP2 PUSH20 0xFFFFFFFFFFFFFFFFFFFFFFFFFFFFFFFFFFFFFFFF AND PUSH32 0x8BE0079C531659141344CD1FD0A4F28419497F9722A3DAAFE3B4186F6B6457E0 PUSH1 0x40 MLOAD PUSH1 0x40 MLOAD DUP1 SWAP2 SUB SWAP1 LOG3 POP POP JUMP JUMPDEST PUSH1 0x80 MLOAD PUSH1 0x60 SHR PUSH2 0x213D PUSH3 0x193 PUSH1 0x0 CODECOPY PUSH1 0x0 DUP2 DUP2 PUSH2 0x28C ADD MSTORE DUP2 DUP2 PUSH2 0x477 ADD MSTORE DUP2 DUP2 PUSH2 0x584 ADD MSTORE DUP2 DUP2 PUSH2 0x8B1 ADD MSTORE DUP2 DUP2 PUSH2 0xA2A ADD MSTORE PUSH2 0xE82 ADD MSTORE PUSH2 0x213D PUSH1 0x0 RETURN INVALID PUSH1 0x80 PUSH1 0x40 MSTORE PUSH1 0x4 CALLDATASIZE LT PUSH2 0x8A JUMPI PUSH1 0x0 CALLDATALOAD PUSH1 0xE0 SHR DUP1 PUSH4 0x8DA5CB5B GT PUSH2 0x59 JUMPI DUP1 PUSH4 0x8DA5CB5B EQ PUSH2 0x11A JUMPI DUP1 PUSH4 0xAB971612 EQ PUSH2 0x145 JUMPI DUP1 PUSH4 0xAD5C4648 EQ PUSH2 0x182 JUMPI DUP1 PUSH4 0xF14210A6 EQ PUSH2 0x1AD JUMPI DUP1 PUSH4 0xF2FDE38B EQ PUSH2 0x1D6 JUMPI PUSH2 0x91 JUMP JUMPDEST DUP1 PUSH4 0x24E1C18D EQ PUSH2 0x93 JUMPI DUP1 PUSH4 0x6CA591A7 EQ PUSH2 0xBE JUMPI DUP1 PUSH4 0x715018A6 EQ PUSH2 0xDA JUMPI DUP1 PUSH4 0x7A9D7C14 EQ PUSH2 0xF1 JUMPI PUSH2 0x91 JUMP JUMPDEST CALLDATASIZE PUSH2 0x91 JUMPI STOP JUMPDEST STOP JUMPDEST CALLVALUE DUP1 ISZERO PUSH2 0x9F JUMPI PUSH1 0x0 DUP1 REVERT JUMPDEST POP PUSH2 0xA8 PUSH2 0x1FF JUMP JUMPDEST PUSH1 0x40 MLOAD PUSH2 0xB5 SWAP2 SWAP1 PUSH2 0x12BB JUMP JUMPDEST PUSH1 0x40 MLOAD DUP1 SWAP2 SUB SWAP1 RETURN JUMPDEST PUSH2 0xD8 PUSH1 0x4 DUP1 CALLDATASIZE SUB DUP2 ADD SWAP1 PUSH2 0xD3 SWAP2 SWAP1 PUSH2 0x15CC JUMP JUMPDEST PUSH2 0x205 JUMP JUMPDEST STOP JUMPDEST CALLVALUE DUP1 ISZERO PUSH2 0xE6 JUMPI PUSH1 0x0 DUP1 REVERT JUMPDEST POP PUSH2 0xEF PUSH2 0xA96 JUMP JUMPDEST STOP JUMPDEST CALLVALUE DUP1 ISZERO PUSH2 0xFD JUMPI PUSH1 0x0 DUP1 REVERT JUMPDEST POP PUSH2 0x118 PUSH1 0x4 DUP1 CALLDATASIZE SUB DUP2 ADD SWAP1 PUSH2 0x113 SWAP2 SWAP1 PUSH2 0x1719 JUMP JUMPDEST PUSH2 0xAAA JUMP JUMPDEST STOP JUMPDEST CALLVALUE DUP1 ISZERO PUSH2 0x126 JUMPI PUSH1 0x0 DUP1 REVERT JUMPDEST POP PUSH2 0x12F PUSH2 0xAF5 JUMP JUMPDEST PUSH1 0x40 MLOAD PUSH2 0x13C SWAP2 SWAP1 PUSH2 0x1787 JUMP JUMPDEST PUSH1 0x40 MLOAD DUP1 SWAP2 SUB SWAP1 RETURN JUMPDEST CALLVALUE DUP1 ISZERO PUSH2 0x151 JUMPI PUSH1 0x0 DUP1 REVERT JUMPDEST POP PUSH2 0x16C PUSH1 0x4 DUP1 CALLDATASIZE SUB DUP2 ADD SWAP1 PUSH2 0x167 SWAP2 SWAP1 PUSH2 0x18A0 JUMP JUMPDEST PUSH2 0xB1E JUMP JUMPDEST PUSH1 0x40 MLOAD PUSH2 0x179 SWAP2 SWAP1 PUSH2 0x12BB JUMP JUMPDEST PUSH1 0x40 MLOAD DUP1 SWAP2 SUB SWAP1 RETURN JUMPDEST CALLVALUE DUP1 ISZERO PUSH2 0x18E JUMPI PUSH1 0x0 DUP1 REVERT JUMPDEST POP PUSH2 0x197 PUSH2 0xE80 JUMP JUMPDEST PUSH1 0x40 MLOAD PUSH2 0x1A4 SWAP2 SWAP1 PUSH2 0x1999 JUMP JUMPDEST PUSH1 0x40 MLOAD DUP1 SWAP2 SUB SWAP1 RETURN JUMPDEST CALLVALUE DUP1 ISZERO PUSH2 0x1B9 JUMPI PUSH1 0x0 DUP1 REVERT JUMPDEST POP PUSH2 0x1D4 PUSH1 0x4 DUP1 CALLDATASIZE SUB DUP2 ADD SWAP1 PUSH2 0x1CF SWAP2 SWAP1 PUSH2 0x1719 JUMP JUMPDEST PUSH2 0xEA4 JUMP JUMPDEST STOP JUMPDEST CALLVALUE DUP1 ISZERO PUSH2 0x1E2 JUMPI PUSH1 0x0 DUP1 REVERT JUMPDEST POP PUSH2 0x1FD PUSH1 0x4 DUP1 CALLDATASIZE SUB DUP2 ADD SWAP1 PUSH2 0x1F8 SWAP2 SWAP1 PUSH2 0x19B4 JUMP JUMPDEST PUSH2 0xEF6 JUMP JUMPDEST STOP JUMPDEST PUSH1 0x1 SLOAD DUP2 JUMP JUMPDEST PUSH1 0x1 SLOAD DUP12 DUP12 SWAP1 POP GT ISZERO DUP1 ISZERO PUSH2 0x21F JUMPI POP DUP9 DUP9 SWAP1 POP DUP12 DUP12 SWAP1 POP EQ JUMPDEST DUP1 ISZERO PUSH2 0x230 JUMPI POP DUP9 DUP9 SWAP1 POP DUP8 DUP8 SWAP1 POP EQ JUMPDEST DUP1 ISZERO PUSH2 0x241 JUMPI POP DUP7 DUP7 SWAP1 POP DUP6 DUP6 SWAP1 POP EQ JUMPDEST PUSH2 0x280 JUMPI PUSH1 0x40 MLOAD PUSH32 0x8C379A000000000000000000000000000000000000000000000000000000000 DUP2 MSTORE PUSH1 0x4 ADD PUSH2 0x277 SWAP1 PUSH2 0x1A3E JUMP JUMPDEST PUSH1 0x40 MLOAD DUP1 SWAP2 SUB SWAP1 REVERT JUMPDEST PUSH1 0x0 DUP1 CALLVALUE GT ISZERO PUSH2 0x346 JUMPI PUSH32 0x0 PUSH20 0xFFFFFFFFFFFFFFFFFFFFFFFFFFFFFFFFFFFFFFFF AND PUSH4 0xD0E30DB0 CALLVALUE PUSH1 0x40 MLOAD DUP3 PUSH4 0xFFFFFFFF AND PUSH1 0xE0 SHL DUP2 MSTORE PUSH1 0x4 ADD PUSH1 0x0 PUSH1 0x40 MLOAD DUP1 DUP4 SUB DUP2 DUP6 DUP9 DUP1 EXTCODESIZE ISZERO DUP1 ISZERO PUSH2 0x2F2 JUMPI PUSH1 0x0 DUP1 REVERT JUMPDEST POP GAS CALL ISZERO DUP1 ISZERO PUSH2 0x306 JUMPI RETURNDATASIZE PUSH1 0x0 DUP1 RETURNDATACOPY RETURNDATASIZE PUSH1 0x0 REVERT JUMPDEST POP POP POP POP POP CALLVALUE SWAP1 POP PUSH32 0x59E3C56B3739D587CAA0270FAE7C28E1B6A1AF555395AD122400FF97D48FED16 DUP2 PUSH1 0x40 MLOAD PUSH2 0x33D SWAP2 SWAP1 PUSH2 0x12BB JUMP JUMPDEST PUSH1 0x40 MLOAD DUP1 SWAP2 SUB SWAP1 LOG1 JUMPDEST PUSH1 0x0 JUMPDEST DUP9 DUP9 SWAP1 POP DUP2 LT ISZERO PUSH2 0xA1B JUMPI PUSH1 0x0 PUSH20 0xFFFFFFFFFFFFFFFFFFFFFFFFFFFFFFFFFFFFFFFF AND DUP10 DUP10 DUP4 DUP2 DUP2 LT PUSH2 0x37F JUMPI PUSH2 0x37E PUSH2 0x1A5E JUMP JUMPDEST JUMPDEST SWAP1 POP PUSH1 0x20 MUL ADD PUSH1 0x20 DUP2 ADD SWAP1 PUSH2 0x394 SWAP2 SWAP1 PUSH2 0x19B4 JUMP JUMPDEST PUSH20 0xFFFFFFFFFFFFFFFFFFFFFFFFFFFFFFFFFFFFFFFF AND EQ ISZERO PUSH2 0x582 JUMPI DUP3 DUP2 DUP2 MLOAD DUP2 LT PUSH2 0x3C3 JUMPI PUSH2 0x3C2 PUSH2 0x1A5E JUMP JUMPDEST JUMPDEST PUSH1 0x20 MUL PUSH1 0x20 ADD ADD MLOAD DUP3 LT ISZERO PUSH2 0x42A JUMPI PUSH32 0xB74B0798EC89F7CF91B1446E01C1BB75B7D55C45B104EDFB364A46A074E2F56 DUP3 DUP5 DUP4 DUP2 MLOAD DUP2 LT PUSH2 0x407 JUMPI PUSH2 0x406 PUSH2 0x1A5E JUMP JUMPDEST JUMPDEST PUSH1 0x20 MUL PUSH1 0x20 ADD ADD MLOAD PUSH1 0x40 MLOAD PUSH2 0x41D SWAP3 SWAP2 SWAP1 PUSH2 0x1A8D JUMP JUMPDEST PUSH1 0x40 MLOAD DUP1 SWAP2 SUB SWAP1 LOG1 PUSH2 0xA1B JUMP JUMPDEST PUSH1 0x0 DUP4 DUP3 DUP2 MLOAD DUP2 LT PUSH2 0x43F JUMPI PUSH2 0x43E PUSH2 0x1A5E JUMP JUMPDEST JUMPDEST PUSH1 0x20 MUL PUSH1 0x20 ADD ADD MLOAD GT ISZERO PUSH2 0x57D JUMPI DUP3 DUP2 DUP2 MLOAD DUP2 LT PUSH2 0x460 JUMPI PUSH2 0x45F PUSH2 0x1A5E JUMP JUMPDEST JUMPDEST PUSH1 0x20 MUL PUSH1 0x20 ADD ADD MLOAD DUP3 PUSH2 0x473 SWAP2 SWAP1 PUSH2 0x1AE5 JUMP JUMPDEST SWAP2 POP PUSH32 0x0 PUSH20 0xFFFFFFFFFFFFFFFFFFFFFFFFFFFFFFFFFFFFFFFF AND PUSH4 0x2E1A7D4D DUP5 DUP4 DUP2 MLOAD DUP2 LT PUSH2 0x4C4 JUMPI PUSH2 0x4C3 PUSH2 0x1A5E JUMP JUMPDEST JUMPDEST PUSH1 0x20 MUL PUSH1 0x20 ADD ADD MLOAD PUSH1 0x40 MLOAD DUP3 PUSH4 0xFFFFFFFF AND PUSH1 0xE0 SHL DUP2 MSTORE PUSH1 0x4 ADD PUSH2 0x4E8 SWAP2 SWAP1 PUSH2 0x12BB JUMP JUMPDEST PUSH1 0x0 PUSH1 0x40 MLOAD DUP1 DUP4 SUB DUP2 PUSH1 0x0 DUP8 DUP1 EXTCODESIZE ISZERO DUP1 ISZERO PUSH2 0x502 JUMPI PUSH1 0x0 DUP1 REVERT JUMPDEST POP GAS CALL ISZERO DUP1 ISZERO PUSH2 0x516 JUMPI RETURNDATASIZE PUSH1 0x0 DUP1 RETURNDATACOPY RETURNDATASIZE PUSH1 0x0 REVERT JUMPDEST POP POP POP POP PUSH2 0x545 DUP4 DUP3 DUP2 MLOAD DUP2 LT PUSH2 0x530 JUMPI PUSH2 0x52F PUSH2 0x1A5E JUMP JUMPDEST JUMPDEST PUSH1 0x20 MUL PUSH1 0x20 ADD ADD MLOAD PUSH2 0x540 PUSH2 0xF7A JUMP JUMPDEST PUSH2 0xF82 JUMP JUMPDEST PUSH32 0x59E3C56B3739D587CAA0270FAE7C28E1B6A1AF555395AD122400FF97D48FED16 DUP3 PUSH1 0x40 MLOAD PUSH2 0x574 SWAP2 SWAP1 PUSH2 0x12BB JUMP JUMPDEST PUSH1 0x40 MLOAD DUP1 SWAP2 SUB SWAP1 LOG1 JUMPDEST PUSH2 0xA08 JUMP JUMPDEST PUSH32 0x0 PUSH20 0xFFFFFFFFFFFFFFFFFFFFFFFFFFFFFFFFFFFFFFFF AND DUP14 DUP14 DUP4 DUP2 DUP2 LT PUSH2 0x5CC JUMPI PUSH2 0x5CB PUSH2 0x1A5E JUMP JUMPDEST JUMPDEST SWAP1 POP PUSH1 0x20 MUL ADD PUSH1 0x20 DUP2 ADD SWAP1 PUSH2 0x5E1 SWAP2 SWAP1 PUSH2 0x1B19 JUMP JUMPDEST PUSH20 0xFFFFFFFFFFFFFFFFFFFFFFFFFFFFFFFFFFFFFFFF AND EQ ISZERO PUSH2 0x792 JUMPI DUP11 DUP11 DUP3 DUP2 DUP2 LT PUSH2 0x610 JUMPI PUSH2 0x60F PUSH2 0x1A5E JUMP JUMPDEST JUMPDEST SWAP1 POP PUSH1 0x20 MUL ADD PUSH1 0x20 DUP2 ADD SWAP1 PUSH2 0x625 SWAP2 SWAP1 PUSH2 0x1B19 JUMP JUMPDEST PUSH20 0xFFFFFFFFFFFFFFFFFFFFFFFFFFFFFFFFFFFFFFFF AND DUP14 DUP14 DUP4 DUP2 DUP2 LT PUSH2 0x64E JUMPI PUSH2 0x64D PUSH2 0x1A5E JUMP JUMPDEST JUMPDEST SWAP1 POP PUSH1 0x20 MUL ADD PUSH1 0x20 DUP2 ADD SWAP1 PUSH2 0x663 SWAP2 SWAP1 PUSH2 0x1B19 JUMP JUMPDEST PUSH20 0xFFFFFFFFFFFFFFFFFFFFFFFFFFFFFFFFFFFFFFFF AND EQ ISZERO PUSH2 0x72E JUMPI PUSH2 0x6CA DUP14 DUP14 DUP4 DUP2 DUP2 LT PUSH2 0x695 JUMPI PUSH2 0x694 PUSH2 0x1A5E JUMP JUMPDEST JUMPDEST SWAP1 POP PUSH1 0x20 MUL ADD PUSH1 0x20 DUP2 ADD SWAP1 PUSH2 0x6AA SWAP2 SWAP1 PUSH2 0x1B19 JUMP JUMPDEST DUP5 DUP4 DUP2 MLOAD DUP2 LT PUSH2 0x6BD JUMPI PUSH2 0x6BC PUSH2 0x1A5E JUMP JUMPDEST JUMPDEST PUSH1 0x20 MUL PUSH1 0x20 ADD ADD MLOAD PUSH2 0xFCD JUMP JUMPDEST DUP3 DUP2 DUP2 MLOAD DUP2 LT PUSH2 0x6DD JUMPI PUSH2 0x6DC PUSH2 0x1A5E JUMP JUMPDEST JUMPDEST PUSH1 0x20 MUL PUSH1 0x20 ADD ADD MLOAD DUP3 PUSH2 0x6F0 SWAP2 SWAP1 PUSH2 0x1B46 JUMP JUMPDEST SWAP2 POP PUSH32 0x59E3C56B3739D587CAA0270FAE7C28E1B6A1AF555395AD122400FF97D48FED16 DUP3 PUSH1 0x40 MLOAD PUSH2 0x721 SWAP2 SWAP1 PUSH2 0x12BB JUMP JUMPDEST PUSH1 0x40 MLOAD DUP1 SWAP2 SUB SWAP1 LOG1 PUSH2 0xA08 JUMP JUMPDEST DUP3 DUP2 DUP2 MLOAD DUP2 LT PUSH2 0x741 JUMPI PUSH2 0x740 PUSH2 0x1A5E JUMP JUMPDEST JUMPDEST PUSH1 0x20 MUL PUSH1 0x20 ADD ADD MLOAD DUP3 PUSH2 0x754 SWAP2 SWAP1 PUSH2 0x1AE5 JUMP JUMPDEST SWAP2 POP PUSH32 0x59E3C56B3739D587CAA0270FAE7C28E1B6A1AF555395AD122400FF97D48FED16 DUP3 PUSH1 0x40 MLOAD PUSH2 0x785 SWAP2 SWAP1 PUSH2 0x12BB JUMP JUMPDEST PUSH1 0x40 MLOAD DUP1 SWAP2 SUB SWAP1 LOG1 PUSH2 0x7DE JUMP JUMPDEST PUSH2 0x7DD DUP14 DUP14 DUP4 DUP2 DUP2 LT PUSH2 0x7A8 JUMPI PUSH2 0x7A7 PUSH2 0x1A5E JUMP JUMPDEST JUMPDEST SWAP1 POP PUSH1 0x20 MUL ADD PUSH1 0x20 DUP2 ADD SWAP1 PUSH2 0x7BD SWAP2 SWAP1 PUSH2 0x1B19 JUMP JUMPDEST DUP5 DUP4 DUP2 MLOAD DUP2 LT PUSH2 0x7D0 JUMPI PUSH2 0x7CF PUSH2 0x1A5E JUMP JUMPDEST JUMPDEST PUSH1 0x20 MUL PUSH1 0x20 ADD ADD MLOAD PUSH2 0xFCD JUMP JUMPDEST JUMPDEST PUSH1 0x0 PUSH2 0x8AD DUP13 DUP13 DUP5 DUP2 DUP2 LT PUSH2 0x7F6 JUMPI PUSH2 0x7F5 PUSH2 0x1A5E JUMP JUMPDEST JUMPDEST SWAP1 POP PUSH1 0x20 MUL ADD PUSH1 0x20 DUP2 ADD SWAP1 PUSH2 0x80B SWAP2 SWAP1 PUSH2 0x1B19 JUMP JUMPDEST DUP16 DUP16 DUP6 DUP2 DUP2 LT PUSH2 0x81E JUMPI PUSH2 0x81D PUSH2 0x1A5E JUMP JUMPDEST JUMPDEST SWAP1 POP PUSH1 0x20 MUL ADD PUSH1 0x20 DUP2 ADD SWAP1 PUSH2 0x833 SWAP2 SWAP1 PUSH2 0x1B19 JUMP JUMPDEST DUP13 DUP13 DUP7 DUP2 DUP2 LT PUSH2 0x846 JUMPI PUSH2 0x845 PUSH2 0x1A5E JUMP JUMPDEST JUMPDEST SWAP1 POP PUSH1 0x20 MUL ADD PUSH1 0x20 DUP2 ADD SWAP1 PUSH2 0x85B SWAP2 SWAP1 PUSH2 0x19B4 JUMP JUMPDEST DUP12 DUP12 DUP8 DUP2 DUP2 LT PUSH2 0x86E JUMPI PUSH2 0x86D PUSH2 0x1A5E JUMP JUMPDEST JUMPDEST SWAP1 POP PUSH1 0x20 MUL ADD PUSH1 0x20 DUP2 ADD SWAP1 PUSH2 0x883 SWAP2 SWAP1 PUSH2 0x1B9C JUMP JUMPDEST DUP11 DUP11 DUP9 DUP2 DUP2 LT PUSH2 0x896 JUMPI PUSH2 0x895 PUSH2 0x1A5E JUMP JUMPDEST JUMPDEST SWAP1 POP PUSH1 0x20 MUL DUP2 ADD SWAP1 PUSH2 0x8A8 SWAP2 SWAP1 PUSH2 0x1BD8 JUMP JUMPDEST PUSH2 0xB1E JUMP JUMPDEST SWAP1 POP PUSH32 0x0 PUSH20 0xFFFFFFFFFFFFFFFFFFFFFFFFFFFFFFFFFFFFFFFF AND DUP13 DUP13 DUP5 DUP2 DUP2 LT PUSH2 0x8F9 JUMPI PUSH2 0x8F8 PUSH2 0x1A5E JUMP JUMPDEST JUMPDEST SWAP1 POP PUSH1 0x20 MUL ADD PUSH1 0x20 DUP2 ADD SWAP1 PUSH2 0x90E SWAP2 SWAP1 PUSH2 0x1B19 JUMP JUMPDEST PUSH20 0xFFFFFFFFFFFFFFFFFFFFFFFFFFFFFFFFFFFFFFFF AND EQ ISZERO PUSH2 0x974 JUMPI DUP1 DUP4 PUSH2 0x936 SWAP2 SWAP1 PUSH2 0x1B46 JUMP JUMPDEST SWAP3 POP PUSH32 0x59E3C56B3739D587CAA0270FAE7C28E1B6A1AF555395AD122400FF97D48FED16 DUP4 PUSH1 0x40 MLOAD PUSH2 0x967 SWAP2 SWAP1 PUSH2 0x12BB JUMP JUMPDEST PUSH1 0x40 MLOAD DUP1 SWAP2 SUB SWAP1 LOG1 PUSH2 0xA06 JUMP JUMPDEST PUSH2 0x9A5 DUP13 DUP13 DUP5 DUP2 DUP2 LT PUSH2 0x98A JUMPI PUSH2 0x989 PUSH2 0x1A5E JUMP JUMPDEST JUMPDEST SWAP1 POP PUSH1 0x20 MUL ADD PUSH1 0x20 DUP2 ADD SWAP1 PUSH2 0x99F SWAP2 SWAP1 PUSH2 0x1B19 JUMP JUMPDEST DUP3 PUSH2 0x10C6 JUMP JUMPDEST PUSH32 0x680F2E4F4032EBF1774E8CDBADDCB1B617A5A606411C8CA96257ADA338D3833C DUP13 DUP13 DUP5 DUP2 DUP2 LT PUSH2 0x9D9 JUMPI PUSH2 0x9D8 PUSH2 0x1A5E JUMP JUMPDEST JUMPDEST SWAP1 POP PUSH1 0x20 MUL ADD PUSH1 0x20 DUP2 ADD SWAP1 PUSH2 0x9EE SWAP2 SWAP1 PUSH2 0x1B19 JUMP JUMPDEST DUP3 PUSH1 0x40 MLOAD PUSH2 0x9FD SWAP3 SWAP2 SWAP1 PUSH2 0x1C5C JUMP JUMPDEST PUSH1 0x40 MLOAD DUP1 SWAP2 SUB SWAP1 LOG1 JUMPDEST POP JUMPDEST DUP1 DUP1 PUSH2 0xA13 SWAP1 PUSH2 0x1C85 JUMP JUMPDEST SWAP2 POP POP PUSH2 0x349 JUMP JUMPDEST POP PUSH1 0x0 DUP2 GT ISZERO PUSH2 0xA88 JUMPI PUSH2 0xA4F PUSH32 0x0 DUP3 PUSH2 0x10C6 JUMP JUMPDEST PUSH32 0x59E3C56B3739D587CAA0270FAE7C28E1B6A1AF555395AD122400FF97D48FED16 PUSH1 0x0 PUSH1 0x40 MLOAD PUSH2 0xA7F SWAP2 SWAP1 PUSH2 0x1D09 JUMP JUMPDEST PUSH1 0x40 MLOAD DUP1 SWAP2 SUB SWAP1 LOG1 JUMPDEST POP POP POP POP POP POP POP POP POP POP POP POP JUMP JUMPDEST PUSH2 0xA9E PUSH2 0x1158 JUMP JUMPDEST PUSH2 0xAA8 PUSH1 0x0 PUSH2 0x11D6 JUMP JUMPDEST JUMP JUMPDEST PUSH2 0xAB2 PUSH2 0x1158 JUMP JUMPDEST DUP1 PUSH1 0x1 DUP2 SWAP1 SSTORE POP PUSH32 0x5091CCFE22CA8F99D8F1F07C6AE3A61DAF990D74EF229D46898624FF3977238C PUSH1 0x1 SLOAD PUSH1 0x40 MLOAD PUSH2 0xAEA SWAP2 SWAP1 PUSH2 0x12BB JUMP JUMPDEST PUSH1 0x40 MLOAD DUP1 SWAP2 SUB SWAP1 LOG1 POP JUMP JUMPDEST PUSH1 0x0 DUP1 PUSH1 0x0 SWAP1 SLOAD SWAP1 PUSH2 0x100 EXP SWAP1 DIV PUSH20 0xFFFFFFFFFFFFFFFFFFFFFFFFFFFFFFFFFFFFFFFF AND SWAP1 POP SWAP1 JUMP JUMPDEST PUSH1 0x0 DUP1 PUSH20 0xFFFFFFFFFFFFFFFFFFFFFFFFFFFFFFFFFFFFFFFF AND DUP6 PUSH20 0xFFFFFFFFFFFFFFFFFFFFFFFFFFFFFFFFFFFFFFFF AND EQ ISZERO PUSH2 0xB8F JUMPI PUSH1 0x40 MLOAD PUSH32 0x8C379A000000000000000000000000000000000000000000000000000000000 DUP2 MSTORE PUSH1 0x4 ADD PUSH2 0xB86 SWAP1 PUSH2 0x1D70 JUMP JUMPDEST PUSH1 0x40 MLOAD DUP1 SWAP2 SUB SWAP1 REVERT JUMPDEST PUSH1 0x0 DUP8 PUSH20 0xFFFFFFFFFFFFFFFFFFFFFFFFFFFFFFFFFFFFFFFF AND PUSH4 0x70A08231 ADDRESS PUSH1 0x40 MLOAD DUP3 PUSH4 0xFFFFFFFF AND PUSH1 0xE0 SHL DUP2 MSTORE PUSH1 0x4 ADD PUSH2 0xBCA SWAP2 SWAP1 PUSH2 0x1787 JUMP JUMPDEST PUSH1 0x20 PUSH1 0x40 MLOAD DUP1 DUP4 SUB DUP2 DUP7 DUP1 EXTCODESIZE ISZERO DUP1 ISZERO PUSH2 0xBE2 JUMPI PUSH1 0x0 DUP1 REVERT JUMPDEST POP GAS STATICCALL ISZERO DUP1 ISZERO PUSH2 0xBF6 JUMPI RETURNDATASIZE PUSH1 0x0 DUP1 RETURNDATACOPY RETURNDATASIZE PUSH1 0x0 REVERT JUMPDEST POP POP POP POP PUSH1 0x40 MLOAD RETURNDATASIZE PUSH1 0x1F NOT PUSH1 0x1F DUP3 ADD AND DUP3 ADD DUP1 PUSH1 0x40 MSTORE POP DUP2 ADD SWAP1 PUSH2 0xC1A SWAP2 SWAP1 PUSH2 0x1DA5 JUMP JUMPDEST SWAP1 POP DUP7 PUSH20 0xFFFFFFFFFFFFFFFFFFFFFFFFFFFFFFFFFFFFFFFF AND PUSH4 0x95EA7B3 DUP8 PUSH16 0xFFFFFFFFFFFFFFFFFFFFFFFFFFFFFFFF PUSH1 0x40 MLOAD DUP4 PUSH4 0xFFFFFFFF AND PUSH1 0xE0 SHL DUP2 MSTORE PUSH1 0x4 ADD PUSH2 0xC67 SWAP3 SWAP2 SWAP1 PUSH2 0x1E1F JUMP JUMPDEST PUSH1 0x20 PUSH1 0x40 MLOAD DUP1 DUP4 SUB DUP2 PUSH1 0x0 DUP8 DUP1 EXTCODESIZE ISZERO DUP1 ISZERO PUSH2 0xC81 JUMPI PUSH1 0x0 DUP1 REVERT JUMPDEST POP GAS CALL ISZERO DUP1 ISZERO PUSH2 0xC95 JUMPI RETURNDATASIZE PUSH1 0x0 DUP1 RETURNDATACOPY RETURNDATASIZE PUSH1 0x0 REVERT JUMPDEST POP POP POP POP PUSH1 0x40 MLOAD RETURNDATASIZE PUSH1 0x1F NOT PUSH1 0x1F DUP3 ADD AND DUP3 ADD DUP1 PUSH1 0x40 MSTORE POP DUP2 ADD SWAP1 PUSH2 0xCB9 SWAP2 SWAP1 PUSH2 0x1E80 JUMP JUMPDEST POP PUSH1 0x0 DUP6 PUSH20 0xFFFFFFFFFFFFFFFFFFFFFFFFFFFFFFFFFFFFFFFF AND PUSH1 0x0 DUP7 DUP7 PUSH1 0x40 MLOAD PUSH2 0xCE5 SWAP3 SWAP2 SWAP1 PUSH2 0x1EEC JUMP JUMPDEST PUSH1 0x0 PUSH1 0x40 MLOAD DUP1 DUP4 SUB DUP2 DUP6 DUP8 GAS CALL SWAP3 POP POP POP RETURNDATASIZE DUP1 PUSH1 0x0 DUP2 EQ PUSH2 0xD22 JUMPI PUSH1 0x40 MLOAD SWAP2 POP PUSH1 0x1F NOT PUSH1 0x3F RETURNDATASIZE ADD AND DUP3 ADD PUSH1 0x40 MSTORE RETURNDATASIZE DUP3 MSTORE RETURNDATASIZE PUSH1 0x0 PUSH1 0x20 DUP5 ADD RETURNDATACOPY PUSH2 0xD27 JUMP JUMPDEST PUSH1 0x60 SWAP2 POP JUMPDEST POP POP SWAP1 POP PUSH32 0xB1BBDF0CBDD013D8D322184C42C16DAFE4B2B3B66C3D60F46874B6C78B9A87F6 DUP2 DUP4 PUSH1 0x40 MLOAD PUSH2 0xD5C SWAP3 SWAP2 SWAP1 PUSH2 0x1F14 JUMP JUMPDEST PUSH1 0x40 MLOAD DUP1 SWAP2 SUB SWAP1 LOG1 DUP1 PUSH2 0xDA4 JUMPI PUSH1 0x40 MLOAD PUSH32 0x8C379A000000000000000000000000000000000000000000000000000000000 DUP2 MSTORE PUSH1 0x4 ADD PUSH2 0xD9B SWAP1 PUSH2 0x1F89 JUMP JUMPDEST PUSH1 0x40 MLOAD DUP1 SWAP2 SUB SWAP1 REVERT JUMPDEST DUP2 DUP10 PUSH20 0xFFFFFFFFFFFFFFFFFFFFFFFFFFFFFFFFFFFFFFFF AND PUSH4 0x70A08231 ADDRESS PUSH1 0x40 MLOAD DUP3 PUSH4 0xFFFFFFFF AND PUSH1 0xE0 SHL DUP2 MSTORE PUSH1 0x4 ADD PUSH2 0xDDE SWAP2 SWAP1 PUSH2 0x1787 JUMP JUMPDEST PUSH1 0x20 PUSH1 0x40 MLOAD DUP1 DUP4 SUB DUP2 DUP7 DUP1 EXTCODESIZE ISZERO DUP1 ISZERO PUSH2 0xDF6 JUMPI PUSH1 0x0 DUP1 REVERT JUMPDEST POP GAS STATICCALL ISZERO DUP1 ISZERO PUSH2 0xE0A JUMPI RETURNDATASIZE PUSH1 0x0 DUP1 RETURNDATACOPY RETURNDATASIZE PUSH1 0x0 REVERT JUMPDEST POP POP POP POP PUSH1 0x40 MLOAD RETURNDATASIZE PUSH1 0x1F NOT PUSH1 0x1F DUP3 ADD AND DUP3 ADD DUP1 PUSH1 0x40 MSTORE POP DUP2 ADD SWAP1 PUSH2 0xE2E SWAP2 SWAP1 PUSH2 0x1DA5 JUMP JUMPDEST PUSH2 0xE38 SWAP2 SWAP1 PUSH2 0x1AE5 JUMP JUMPDEST SWAP2 POP PUSH32 0x74496FCE2CDC392D99808924E4161C005195A64FEE4C166B02C2B716DB28ABB0 DUP3 PUSH1 0x40 MLOAD PUSH2 0xE69 SWAP2 SWAP1 PUSH2 0x12BB JUMP JUMPDEST PUSH1 0x40 MLOAD DUP1 SWAP2 SUB SWAP1 LOG1 DUP2 SWAP3 POP POP POP SWAP7 SWAP6 POP POP POP POP POP POP JUMP JUMPDEST PUSH32 0x0 DUP2 JUMP JUMPDEST PUSH2 0xEAC PUSH2 0x1158 JUMP JUMPDEST CALLER PUSH20 0xFFFFFFFFFFFFFFFFFFFFFFFFFFFFFFFFFFFFFFFF AND PUSH2 0x8FC DUP3 SWAP1 DUP2 ISZERO MUL SWAP1 PUSH1 0x40 MLOAD PUSH1 0x0 PUSH1 0x40 MLOAD DUP1 DUP4 SUB DUP2 DUP6 DUP9 DUP9 CALL SWAP4 POP POP POP POP ISZERO DUP1 ISZERO PUSH2 0xEF2 JUMPI RETURNDATASIZE PUSH1 0x0 DUP1 RETURNDATACOPY RETURNDATASIZE PUSH1 0x0 REVERT JUMPDEST POP POP JUMP JUMPDEST PUSH2 0xEFE PUSH2 0x1158 JUMP JUMPDEST PUSH1 0x0 PUSH20 0xFFFFFFFFFFFFFFFFFFFFFFFFFFFFFFFFFFFFFFFF AND DUP2 PUSH20 0xFFFFFFFFFFFFFFFFFFFFFFFFFFFFFFFFFFFFFFFF AND EQ ISZERO PUSH2 0xF6E JUMPI PUSH1 0x40 MLOAD PUSH32 0x8C379A000000000000000000000000000000000000000000000000000000000 DUP2 MSTORE PUSH1 0x4 ADD PUSH2 0xF65 SWAP1 PUSH2 0x201B JUMP JUMPDEST PUSH1 0x40 MLOAD DUP1 SWAP2 SUB SWAP1 REVERT JUMPDEST PUSH2 0xF77 DUP2 PUSH2 0x11D6 JUMP JUMPDEST POP JUMP JUMPDEST PUSH1 0x0 CALLER SWAP1 POP SWAP1 JUMP JUMPDEST DUP1 PUSH20 0xFFFFFFFFFFFFFFFFFFFFFFFFFFFFFFFFFFFFFFFF AND PUSH2 0x8FC DUP4 SWAP1 DUP2 ISZERO MUL SWAP1 PUSH1 0x40 MLOAD PUSH1 0x0 PUSH1 0x40 MLOAD DUP1 DUP4 SUB DUP2 DUP6 DUP9 DUP9 CALL SWAP4 POP POP POP POP ISZERO DUP1 ISZERO PUSH2 0xFC8 JUMPI RETURNDATASIZE PUSH1 0x0 DUP1 RETURNDATACOPY RETURNDATASIZE PUSH1 0x0 REVERT JUMPDEST POP POP POP JUMP JUMPDEST DUP2 PUSH20 0xFFFFFFFFFFFFFFFFFFFFFFFFFFFFFFFFFFFFFFFF AND PUSH4 0x23B872DD CALLER ADDRESS DUP5 PUSH1 0x40 MLOAD DUP5 PUSH4 0xFFFFFFFF AND PUSH1 0xE0 SHL DUP2 MSTORE PUSH1 0x4 ADD PUSH2 0x100A SWAP4 SWAP3 SWAP2 SWAP1 PUSH2 0x203B JUMP JUMPDEST PUSH1 0x20 PUSH1 0x40 MLOAD DUP1 DUP4 SUB DUP2 PUSH1 0x0 DUP8 DUP1 EXTCODESIZE ISZERO DUP1 ISZERO PUSH2 0x1024 JUMPI PUSH1 0x0 DUP1 REVERT JUMPDEST POP GAS CALL ISZERO DUP1 ISZERO PUSH2 0x1038 JUMPI RETURNDATASIZE PUSH1 0x0 DUP1 RETURNDATACOPY RETURNDATASIZE PUSH1 0x0 REVERT JUMPDEST POP POP POP POP PUSH1 0x40 MLOAD RETURNDATASIZE PUSH1 0x1F NOT PUSH1 0x1F DUP3 ADD AND DUP3 ADD DUP1 PUSH1 0x40 MSTORE POP DUP2 ADD SWAP1 PUSH2 0x105C SWAP2 SWAP1 PUSH2 0x1E80 JUMP JUMPDEST POP ADDRESS PUSH20 0xFFFFFFFFFFFFFFFFFFFFFFFFFFFFFFFFFFFFFFFF AND CALLER PUSH20 0xFFFFFFFFFFFFFFFFFFFFFFFFFFFFFFFFFFFFFFFF AND PUSH32 0xD6D3EB25A413C05D8107FC49DEB2789BEF7F612582B2482804C0B0423B6638EE DUP4 PUSH1 0x40 MLOAD PUSH2 0x10BA SWAP2 SWAP1 PUSH2 0x12BB JUMP JUMPDEST PUSH1 0x40 MLOAD DUP1 SWAP2 SUB SWAP1 LOG3 POP POP JUMP JUMPDEST DUP2 PUSH20 0xFFFFFFFFFFFFFFFFFFFFFFFFFFFFFFFFFFFFFFFF AND PUSH4 0xA9059CBB CALLER DUP4 PUSH1 0x40 MLOAD DUP4 PUSH4 0xFFFFFFFF AND PUSH1 0xE0 SHL DUP2 MSTORE PUSH1 0x4 ADD PUSH2 0x1101 SWAP3 SWAP2 SWAP1 PUSH2 0x2072 JUMP JUMPDEST PUSH1 0x20 PUSH1 0x40 MLOAD DUP1 DUP4 SUB DUP2 PUSH1 0x0 DUP8 DUP1 EXTCODESIZE ISZERO DUP1 ISZERO PUSH2 0x111B JUMPI PUSH1 0x0 DUP1 REVERT JUMPDEST POP GAS CALL ISZERO DUP1 ISZERO PUSH2 0x112F JUMPI RETURNDATASIZE PUSH1 0x0 DUP1 RETURNDATACOPY RETURNDATASIZE PUSH1 0x0 REVERT JUMPDEST POP POP POP POP PUSH1 0x40 MLOAD RETURNDATASIZE PUSH1 0x1F NOT PUSH1 0x1F DUP3 ADD AND DUP3 ADD DUP1 PUSH1 0x40 MSTORE POP DUP2 ADD SWAP1 PUSH2 0x1153 SWAP2 SWAP1 PUSH2 0x1E80 JUMP JUMPDEST POP POP POP JUMP JUMPDEST PUSH2 0x1160 PUSH2 0x129A JUMP JUMPDEST PUSH20 0xFFFFFFFFFFFFFFFFFFFFFFFFFFFFFFFFFFFFFFFF AND PUSH2 0x117E PUSH2 0xAF5 JUMP JUMPDEST PUSH20 0xFFFFFFFFFFFFFFFFFFFFFFFFFFFFFFFFFFFFFFFF AND EQ PUSH2 0x11D4 JUMPI PUSH1 0x40 MLOAD PUSH32 0x8C379A000000000000000000000000000000000000000000000000000000000 DUP2 MSTORE PUSH1 0x4 ADD PUSH2 0x11CB SWAP1 PUSH2 0x20E7 JUMP JUMPDEST PUSH1 0x40 MLOAD DUP1 SWAP2 SUB SWAP1 REVERT JUMPDEST JUMP JUMPDEST PUSH1 0x0 DUP1 PUSH1 0x0 SWAP1 SLOAD SWAP1 PUSH2 0x100 EXP SWAP1 DIV PUSH20 0xFFFFFFFFFFFFFFFFFFFFFFFFFFFFFFFFFFFFFFFF AND SWAP1 POP DUP2 PUSH1 0x0 DUP1 PUSH2 0x100 EXP DUP2 SLOAD DUP2 PUSH20 0xFFFFFFFFFFFFFFFFFFFFFFFFFFFFFFFFFFFFFFFF MUL NOT AND SWAP1 DUP4 PUSH20 0xFFFFFFFFFFFFFFFFFFFFFFFFFFFFFFFFFFFFFFFF AND MUL OR SWAP1 SSTORE POP DUP2 PUSH20 0xFFFFFFFFFFFFFFFFFFFFFFFFFFFFFFFFFFFFFFFF AND DUP2 PUSH20 0xFFFFFFFFFFFFFFFFFFFFFFFFFFFFFFFFFFFFFFFF AND PUSH32 0x8BE0079C531659141344CD1FD0A4F28419497F9722A3DAAFE3B4186F6B6457E0 PUSH1 0x40 MLOAD PUSH1 0x40 MLOAD DUP1 SWAP2 SUB SWAP1 LOG3 POP POP JUMP JUMPDEST PUSH1 0x0 CALLER SWAP1 POP SWAP1 JUMP JUMPDEST PUSH1 0x0 DUP2 SWAP1 POP SWAP2 SWAP1 POP JUMP JUMPDEST PUSH2 0x12B5 DUP2 PUSH2 0x12A2 JUMP JUMPDEST DUP3 MSTORE POP POP JUMP JUMPDEST PUSH1 0x0 PUSH1 0x20 DUP3 ADD SWAP1 POP PUSH2 0x12D0 PUSH1 0x0 DUP4 ADD DUP5 PUSH2 0x12AC JUMP JUMPDEST SWAP3 SWAP2 POP POP JUMP JUMPDEST PUSH1 0x0 PUSH1 0x40 MLOAD SWAP1 POP SWAP1 JUMP JUMPDEST PUSH1 0x0 DUP1 REVERT JUMPDEST PUSH1 0x0 DUP1 REVERT JUMPDEST PUSH1 0x0 DUP1 REVERT JUMPDEST PUSH1 0x0 DUP1 REVERT JUMPDEST PUSH1 0x0 DUP1 REVERT JUMPDEST PUSH1 0x0 DUP1 DUP4 PUSH1 0x1F DUP5 ADD SLT PUSH2 0x130F JUMPI PUSH2 0x130E PUSH2 0x12EA JUMP JUMPDEST JUMPDEST DUP3 CALLDATALOAD SWAP1 POP PUSH8 0xFFFFFFFFFFFFFFFF DUP2 GT ISZERO PUSH2 0x132C JUMPI PUSH2 0x132B PUSH2 0x12EF JUMP JUMPDEST JUMPDEST PUSH1 0x20 DUP4 ADD SWAP2 POP DUP4 PUSH1 0x20 DUP3 MUL DUP4 ADD GT ISZERO PUSH2 0x1348 JUMPI PUSH2 0x1347 PUSH2 0x12F4 JUMP JUMPDEST JUMPDEST SWAP3 POP SWAP3 SWAP1 POP JUMP JUMPDEST PUSH1 0x0 DUP1 DUP4 PUSH1 0x1F DUP5 ADD SLT PUSH2 0x1365 JUMPI PUSH2 0x1364 PUSH2 0x12EA JUMP JUMPDEST JUMPDEST DUP3 CALLDATALOAD SWAP1 POP PUSH8 0xFFFFFFFFFFFFFFFF DUP2 GT ISZERO PUSH2 0x1382 JUMPI PUSH2 0x1381 PUSH2 0x12EF JUMP JUMPDEST JUMPDEST PUSH1 0x20 DUP4 ADD SWAP2 POP DUP4 PUSH1 0x20 DUP3 MUL DUP4 ADD GT ISZERO PUSH2 0x139E JUMPI PUSH2 0x139D PUSH2 0x12F4 JUMP JUMPDEST JUMPDEST SWAP3 POP SWAP3 SWAP1 POP JUMP JUMPDEST PUSH1 0x0 DUP1 DUP4 PUSH1 0x1F DUP5 ADD SLT PUSH2 0x13BB JUMPI PUSH2 0x13BA PUSH2 0x12EA JUMP JUMPDEST JUMPDEST DUP3 CALLDATALOAD SWAP1 POP PUSH8 0xFFFFFFFFFFFFFFFF DUP2 GT ISZERO PUSH2 0x13D8 JUMPI PUSH2 0x13D7 PUSH2 0x12EF JUMP JUMPDEST JUMPDEST PUSH1 0x20 DUP4 ADD SWAP2 POP DUP4 PUSH1 0x20 DUP3 MUL DUP4 ADD GT ISZERO PUSH2 0x13F4 JUMPI PUSH2 0x13F3 PUSH2 0x12F4 JUMP JUMPDEST JUMPDEST SWAP3 POP SWAP3 SWAP1 POP JUMP JUMPDEST PUSH1 0x0 DUP1 DUP4 PUSH1 0x1F DUP5 ADD SLT PUSH2 0x1411 JUMPI PUSH2 0x1410 PUSH2 0x12EA JUMP JUMPDEST JUMPDEST DUP3 CALLDATALOAD SWAP1 POP PUSH8 0xFFFFFFFFFFFFFFFF DUP2 GT ISZERO PUSH2 0x142E JUMPI PUSH2 0x142D PUSH2 0x12EF JUMP JUMPDEST JUMPDEST PUSH1 0x20 DUP4 ADD SWAP2 POP DUP4 PUSH1 0x20 DUP3 MUL DUP4 ADD GT ISZERO PUSH2 0x144A JUMPI PUSH2 0x1449 PUSH2 0x12F4 JUMP JUMPDEST JUMPDEST SWAP3 POP SWAP3 SWAP1 POP JUMP JUMPDEST PUSH1 0x0 PUSH1 0x1F NOT PUSH1 0x1F DUP4 ADD AND SWAP1 POP SWAP2 SWAP1 POP JUMP JUMPDEST PUSH32 0x4E487B7100000000000000000000000000000000000000000000000000000000 PUSH1 0x0 MSTORE PUSH1 0x41 PUSH1 0x4 MSTORE PUSH1 0x24 PUSH1 0x0 REVERT JUMPDEST PUSH2 0x149A DUP3 PUSH2 0x1451 JUMP JUMPDEST DUP2 ADD DUP2 DUP2 LT PUSH8 0xFFFFFFFFFFFFFFFF DUP3 GT OR ISZERO PUSH2 0x14B9 JUMPI PUSH2 0x14B8 PUSH2 0x1462 JUMP JUMPDEST JUMPDEST DUP1 PUSH1 0x40 MSTORE POP POP POP JUMP JUMPDEST PUSH1 0x0 PUSH2 0x14CC PUSH2 0x12D6 JUMP JUMPDEST SWAP1 POP PUSH2 0x14D8 DUP3 DUP3 PUSH2 0x1491 JUMP JUMPDEST SWAP2 SWAP1 POP JUMP JUMPDEST PUSH1 0x0 PUSH8 0xFFFFFFFFFFFFFFFF DUP3 GT ISZERO PUSH2 0x14F8 JUMPI PUSH2 0x14F7 PUSH2 0x1462 JUMP JUMPDEST JUMPDEST PUSH1 0x20 DUP3 MUL SWAP1 POP PUSH1 0x20 DUP2 ADD SWAP1 POP SWAP2 SWAP1 POP JUMP JUMPDEST PUSH2 0x1512 DUP2 PUSH2 0x12A2 JUMP JUMPDEST DUP2 EQ PUSH2 0x151D JUMPI PUSH1 0x0 DUP1 REVERT JUMPDEST POP JUMP JUMPDEST PUSH1 0x0 DUP2 CALLDATALOAD SWAP1 POP PUSH2 0x152F DUP2 PUSH2 0x1509 JUMP JUMPDEST SWAP3 SWAP2 POP POP JUMP JUMPDEST PUSH1 0x0 PUSH2 0x1548 PUSH2 0x1543 DUP5 PUSH2 0x14DD JUMP JUMPDEST PUSH2 0x14C2 JUMP JUMPDEST SWAP1 POP DUP1 DUP4 DUP3 MSTORE PUSH1 0x20 DUP3 ADD SWAP1 POP PUSH1 0x20 DUP5 MUL DUP4 ADD DUP6 DUP2 GT ISZERO PUSH2 0x156B JUMPI PUSH2 0x156A PUSH2 0x12F4 JUMP JUMPDEST JUMPDEST DUP4 JUMPDEST DUP2 DUP2 LT ISZERO PUSH2 0x1594 JUMPI DUP1 PUSH2 0x1580 DUP9 DUP3 PUSH2 0x1520 JUMP JUMPDEST DUP5 MSTORE PUSH1 0x20 DUP5 ADD SWAP4 POP POP PUSH1 0x20 DUP2 ADD SWAP1 POP PUSH2 0x156D JUMP JUMPDEST POP POP POP SWAP4 SWAP3 POP POP POP JUMP JUMPDEST PUSH1 0x0 DUP3 PUSH1 0x1F DUP4 ADD SLT PUSH2 0x15B3 JUMPI PUSH2 0x15B2 PUSH2 0x12EA JUMP JUMPDEST JUMPDEST DUP2 CALLDATALOAD PUSH2 0x15C3 DUP5 DUP3 PUSH1 0x20 DUP7 ADD PUSH2 0x1535 JUMP JUMPDEST SWAP2 POP POP SWAP3 SWAP2 POP POP JUMP JUMPDEST PUSH1 0x0 DUP1 PUSH1 0x0 DUP1 PUSH1 0x0 DUP1 PUSH1 0x0 DUP1 PUSH1 0x0 DUP1 PUSH1 0x0 PUSH1 0xC0 DUP13 DUP15 SUB SLT ISZERO PUSH2 0x15F1 JUMPI PUSH2 0x15F0 PUSH2 0x12E0 JUMP JUMPDEST JUMPDEST PUSH1 0x0 DUP13 ADD CALLDATALOAD PUSH8 0xFFFFFFFFFFFFFFFF DUP2 GT ISZERO PUSH2 0x160F JUMPI PUSH2 0x160E PUSH2 0x12E5 JUMP JUMPDEST JUMPDEST PUSH2 0x161B DUP15 DUP3 DUP16 ADD PUSH2 0x12F9 JUMP JUMPDEST SWAP12 POP SWAP12 POP POP PUSH1 0x20 DUP13 ADD CALLDATALOAD PUSH8 0xFFFFFFFFFFFFFFFF DUP2 GT ISZERO PUSH2 0x163E JUMPI PUSH2 0x163D PUSH2 0x12E5 JUMP JUMPDEST JUMPDEST PUSH2 0x164A DUP15 DUP3 DUP16 ADD PUSH2 0x12F9 JUMP JUMPDEST SWAP10 POP SWAP10 POP POP PUSH1 0x40 DUP13 ADD CALLDATALOAD PUSH8 0xFFFFFFFFFFFFFFFF DUP2 GT ISZERO PUSH2 0x166D JUMPI PUSH2 0x166C PUSH2 0x12E5 JUMP JUMPDEST JUMPDEST PUSH2 0x1679 DUP15 DUP3 DUP16 ADD PUSH2 0x134F JUMP JUMPDEST SWAP8 POP SWAP8 POP POP PUSH1 0x60 DUP13 ADD CALLDATALOAD PUSH8 0xFFFFFFFFFFFFFFFF DUP2 GT ISZERO PUSH2 0x169C JUMPI PUSH2 0x169B PUSH2 0x12E5 JUMP JUMPDEST JUMPDEST PUSH2 0x16A8 DUP15 DUP3 DUP16 ADD PUSH2 0x13A5 JUMP JUMPDEST SWAP6 POP SWAP6 POP POP PUSH1 0x80 DUP13 ADD CALLDATALOAD PUSH8 0xFFFFFFFFFFFFFFFF DUP2 GT ISZERO PUSH2 0x16CB JUMPI PUSH2 0x16CA PUSH2 0x12E5 JUMP JUMPDEST JUMPDEST PUSH2 0x16D7 DUP15 DUP3 DUP16 ADD PUSH2 0x13FB JUMP JUMPDEST SWAP4 POP SWAP4 POP POP PUSH1 0xA0 DUP13 ADD CALLDATALOAD PUSH8 0xFFFFFFFFFFFFFFFF DUP2 GT ISZERO PUSH2 0x16FA JUMPI PUSH2 0x16F9 PUSH2 0x12E5 JUMP JUMPDEST JUMPDEST PUSH2 0x1706 DUP15 DUP3 DUP16 ADD PUSH2 0x159E JUMP JUMPDEST SWAP2 POP POP SWAP3 SWAP6 SWAP9 SWAP12 POP SWAP3 SWAP6 SWAP9 SWAP12 SWAP1 SWAP4 SWAP7 SWAP10 POP JUMP JUMPDEST PUSH1 0x0 PUSH1 0x20 DUP3 DUP5 SUB SLT ISZERO PUSH2 0x172F JUMPI PUSH2 0x172E PUSH2 0x12E0 JUMP JUMPDEST JUMPDEST PUSH1 0x0 PUSH2 0x173D DUP5 DUP3 DUP6 ADD PUSH2 0x1520 JUMP JUMPDEST SWAP2 POP POP SWAP3 SWAP2 POP POP JUMP JUMPDEST PUSH1 0x0 PUSH20 0xFFFFFFFFFFFFFFFFFFFFFFFFFFFFFFFFFFFFFFFF DUP3 AND SWAP1 POP SWAP2 SWAP1 POP JUMP JUMPDEST PUSH1 0x0 PUSH2 0x1771 DUP3 PUSH2 0x1746 JUMP JUMPDEST SWAP1 POP SWAP2 SWAP1 POP JUMP JUMPDEST PUSH2 0x1781 DUP2 PUSH2 0x1766 JUMP JUMPDEST DUP3 MSTORE POP POP JUMP JUMPDEST PUSH1 0x0 PUSH1 0x20 DUP3 ADD SWAP1 POP PUSH2 0x179C PUSH1 0x0 DUP4 ADD DUP5 PUSH2 0x1778 JUMP JUMPDEST SWAP3 SWAP2 POP POP JUMP JUMPDEST PUSH1 0x0 PUSH2 0x17AD DUP3 PUSH2 0x1766 JUMP JUMPDEST SWAP1 POP SWAP2 SWAP1 POP JUMP JUMPDEST PUSH2 0x17BD DUP2 PUSH2 0x17A2 JUMP JUMPDEST DUP2 EQ PUSH2 0x17C8 JUMPI PUSH1 0x0 DUP1 REVERT JUMPDEST POP JUMP JUMPDEST PUSH1 0x0 DUP2 CALLDATALOAD SWAP1 POP PUSH2 0x17DA DUP2 PUSH2 0x17B4 JUMP JUMPDEST SWAP3 SWAP2 POP POP JUMP JUMPDEST PUSH2 0x17E9 DUP2 PUSH2 0x1766 JUMP JUMPDEST DUP2 EQ PUSH2 0x17F4 JUMPI PUSH1 0x0 DUP1 REVERT JUMPDEST POP JUMP JUMPDEST PUSH1 0x0 DUP2 CALLDATALOAD SWAP1 POP PUSH2 0x1806 DUP2 PUSH2 0x17E0 JUMP JUMPDEST SWAP3 SWAP2 POP POP JUMP JUMPDEST PUSH1 0x0 PUSH2 0x1817 DUP3 PUSH2 0x1746 JUMP JUMPDEST SWAP1 POP SWAP2 SWAP1 POP JUMP JUMPDEST PUSH2 0x1827 DUP2 PUSH2 0x180C JUMP JUMPDEST DUP2 EQ PUSH2 0x1832 JUMPI PUSH1 0x0 DUP1 REVERT JUMPDEST POP JUMP JUMPDEST PUSH1 0x0 DUP2 CALLDATALOAD SWAP1 POP PUSH2 0x1844 DUP2 PUSH2 0x181E JUMP JUMPDEST SWAP3 SWAP2 POP POP JUMP JUMPDEST PUSH1 0x0 DUP1 DUP4 PUSH1 0x1F DUP5 ADD SLT PUSH2 0x1860 JUMPI PUSH2 0x185F PUSH2 0x12EA JUMP JUMPDEST JUMPDEST DUP3 CALLDATALOAD SWAP1 POP PUSH8 0xFFFFFFFFFFFFFFFF DUP2 GT ISZERO PUSH2 0x187D JUMPI PUSH2 0x187C PUSH2 0x12EF JUMP JUMPDEST JUMPDEST PUSH1 0x20 DUP4 ADD SWAP2 POP DUP4 PUSH1 0x1 DUP3 MUL DUP4 ADD GT ISZERO PUSH2 0x1899 JUMPI PUSH2 0x1898 PUSH2 0x12F4 JUMP JUMPDEST JUMPDEST SWAP3 POP SWAP3 SWAP1 POP JUMP JUMPDEST PUSH1 0x0 DUP1 PUSH1 0x0 DUP1 PUSH1 0x0 DUP1 PUSH1 0xA0 DUP8 DUP10 SUB SLT ISZERO PUSH2 0x18BD JUMPI PUSH2 0x18BC PUSH2 0x12E0 JUMP JUMPDEST JUMPDEST PUSH1 0x0 PUSH2 0x18CB DUP10 DUP3 DUP11 ADD PUSH2 0x17CB JUMP JUMPDEST SWAP7 POP POP PUSH1 0x20 PUSH2 0x18DC DUP10 DUP3 DUP11 ADD PUSH2 0x17CB JUMP JUMPDEST SWAP6 POP POP PUSH1 0x40 PUSH2 0x18ED DUP10 DUP3 DUP11 ADD PUSH2 0x17F7 JUMP JUMPDEST SWAP5 POP POP PUSH1 0x60 PUSH2 0x18FE DUP10 DUP3 DUP11 ADD PUSH2 0x1835 JUMP JUMPDEST SWAP4 POP POP PUSH1 0x80 DUP8 ADD CALLDATALOAD PUSH8 0xFFFFFFFFFFFFFFFF DUP2 GT ISZERO PUSH2 0x191F JUMPI PUSH2 0x191E PUSH2 0x12E5 JUMP JUMPDEST JUMPDEST PUSH2 0x192B DUP10 DUP3 DUP11 ADD PUSH2 0x184A JUMP JUMPDEST SWAP3 POP SWAP3 POP POP SWAP3 SWAP6 POP SWAP3 SWAP6 POP SWAP3 SWAP6 JUMP JUMPDEST PUSH1 0x0 DUP2 SWAP1 POP SWAP2 SWAP1 POP JUMP JUMPDEST PUSH1 0x0 PUSH2 0x195F PUSH2 0x195A PUSH2 0x1955 DUP5 PUSH2 0x1746 JUMP JUMPDEST PUSH2 0x193A JUMP JUMPDEST PUSH2 0x1746 JUMP JUMPDEST SWAP1 POP SWAP2 SWAP1 POP JUMP JUMPDEST PUSH1 0x0 PUSH2 0x1971 DUP3 PUSH2 0x1944 JUMP JUMPDEST SWAP1 POP SWAP2 SWAP1 POP JUMP JUMPDEST PUSH1 0x0 PUSH2 0x1983 DUP3 PUSH2 0x1966 JUMP JUMPDEST SWAP1 POP SWAP2 SWAP1 POP JUMP JUMPDEST PUSH2 0x1993 DUP2 PUSH2 0x1978 JUMP JUMPDEST DUP3 MSTORE POP POP JUMP JUMPDEST PUSH1 0x0 PUSH1 0x20 DUP3 ADD SWAP1 POP PUSH2 0x19AE PUSH1 0x0 DUP4 ADD DUP5 PUSH2 0x198A JUMP JUMPDEST SWAP3 SWAP2 POP POP JUMP JUMPDEST PUSH1 0x0 PUSH1 0x20 DUP3 DUP5 SUB SLT ISZERO PUSH2 0x19CA JUMPI PUSH2 0x19C9 PUSH2 0x12E0 JUMP JUMPDEST JUMPDEST PUSH1 0x0 PUSH2 0x19D8 DUP5 DUP3 DUP6 ADD PUSH2 0x17F7 JUMP JUMPDEST SWAP2 POP POP SWAP3 SWAP2 POP POP JUMP JUMPDEST PUSH1 0x0 DUP3 DUP3 MSTORE PUSH1 0x20 DUP3 ADD SWAP1 POP SWAP3 SWAP2 POP POP JUMP JUMPDEST PUSH32 0x506C656173652070726F766964652076616C6964206461746100000000000000 PUSH1 0x0 DUP3 ADD MSTORE POP JUMP JUMPDEST PUSH1 0x0 PUSH2 0x1A28 PUSH1 0x19 DUP4 PUSH2 0x19E1 JUMP JUMPDEST SWAP2 POP PUSH2 0x1A33 DUP3 PUSH2 0x19F2 JUMP JUMPDEST PUSH1 0x20 DUP3 ADD SWAP1 POP SWAP2 SWAP1 POP JUMP JUMPDEST PUSH1 0x0 PUSH1 0x20 DUP3 ADD SWAP1 POP DUP2 DUP2 SUB PUSH1 0x0 DUP4 ADD MSTORE PUSH2 0x1A57 DUP2 PUSH2 0x1A1B JUMP JUMPDEST SWAP1 POP SWAP2 SWAP1 POP JUMP JUMPDEST PUSH32 0x4E487B7100000000000000000000000000000000000000000000000000000000 PUSH1 0x0 MSTORE PUSH1 0x32 PUSH1 0x4 MSTORE PUSH1 0x24 PUSH1 0x0 REVERT JUMPDEST PUSH1 0x0 PUSH1 0x40 DUP3 ADD SWAP1 POP PUSH2 0x1AA2 PUSH1 0x0 DUP4 ADD DUP6 PUSH2 0x12AC JUMP JUMPDEST PUSH2 0x1AAF PUSH1 0x20 DUP4 ADD DUP5 PUSH2 0x12AC JUMP JUMPDEST SWAP4 SWAP3 POP POP POP JUMP JUMPDEST PUSH32 0x4E487B7100000000000000000000000000000000000000000000000000000000 PUSH1 0x0 MSTORE PUSH1 0x11 PUSH1 0x4 MSTORE PUSH1 0x24 PUSH1 0x0 REVERT JUMPDEST PUSH1 0x0 PUSH2 0x1AF0 DUP3 PUSH2 0x12A2 JUMP JUMPDEST SWAP2 POP PUSH2 0x1AFB DUP4 PUSH2 0x12A2 JUMP JUMPDEST SWAP3 POP DUP3 DUP3 LT ISZERO PUSH2 0x1B0E JUMPI PUSH2 0x1B0D PUSH2 0x1AB6 JUMP JUMPDEST JUMPDEST DUP3 DUP3 SUB SWAP1 POP SWAP3 SWAP2 POP POP JUMP JUMPDEST PUSH1 0x0 PUSH1 0x20 DUP3 DUP5 SUB SLT ISZERO PUSH2 0x1B2F JUMPI PUSH2 0x1B2E PUSH2 0x12E0 JUMP JUMPDEST JUMPDEST PUSH1 0x0 PUSH2 0x1B3D DUP5 DUP3 DUP6 ADD PUSH2 0x17CB JUMP JUMPDEST SWAP2 POP POP SWAP3 SWAP2 POP POP JUMP JUMPDEST PUSH1 0x0 PUSH2 0x1B51 DUP3 PUSH2 0x12A2 JUMP JUMPDEST SWAP2 POP PUSH2 0x1B5C DUP4 PUSH2 0x12A2 JUMP JUMPDEST SWAP3 POP DUP3 PUSH32 0xFFFFFFFFFFFFFFFFFFFFFFFFFFFFFFFFFFFFFFFFFFFFFFFFFFFFFFFFFFFFFFFF SUB DUP3 GT ISZERO PUSH2 0x1B91 JUMPI PUSH2 0x1B90 PUSH2 0x1AB6 JUMP JUMPDEST JUMPDEST DUP3 DUP3 ADD SWAP1 POP SWAP3 SWAP2 POP POP JUMP JUMPDEST PUSH1 0x0 PUSH1 0x20 DUP3 DUP5 SUB SLT ISZERO PUSH2 0x1BB2 JUMPI PUSH2 0x1BB1 PUSH2 0x12E0 JUMP JUMPDEST JUMPDEST PUSH1 0x0 PUSH2 0x1BC0 DUP5 DUP3 DUP6 ADD PUSH2 0x1835 JUMP JUMPDEST SWAP2 POP POP SWAP3 SWAP2 POP POP JUMP JUMPDEST PUSH1 0x0 DUP1 REVERT JUMPDEST PUSH1 0x0 DUP1 REVERT JUMPDEST PUSH1 0x0 DUP1 REVERT JUMPDEST PUSH1 0x0 DUP1 DUP4 CALLDATALOAD PUSH1 0x1 PUSH1 0x20 SUB DUP5 CALLDATASIZE SUB SUB DUP2 SLT PUSH2 0x1BF5 JUMPI PUSH2 0x1BF4 PUSH2 0x1BC9 JUMP JUMPDEST JUMPDEST DUP1 DUP5 ADD SWAP3 POP DUP3 CALLDATALOAD SWAP2 POP PUSH8 0xFFFFFFFFFFFFFFFF DUP3 GT ISZERO PUSH2 0x1C17 JUMPI PUSH2 0x1C16 PUSH2 0x1BCE JUMP JUMPDEST JUMPDEST PUSH1 0x20 DUP4 ADD SWAP3 POP PUSH1 0x1 DUP3 MUL CALLDATASIZE SUB DUP4 SGT ISZERO PUSH2 0x1C33 JUMPI PUSH2 0x1C32 PUSH2 0x1BD3 JUMP JUMPDEST JUMPDEST POP SWAP3 POP SWAP3 SWAP1 POP JUMP JUMPDEST PUSH1 0x0 PUSH2 0x1C46 DUP3 PUSH2 0x1966 JUMP JUMPDEST SWAP1 POP SWAP2 SWAP1 POP JUMP JUMPDEST PUSH2 0x1C56 DUP2 PUSH2 0x1C3B JUMP JUMPDEST DUP3 MSTORE POP POP JUMP JUMPDEST PUSH1 0x0 PUSH1 0x40 DUP3 ADD SWAP1 POP PUSH2 0x1C71 PUSH1 0x0 DUP4 ADD DUP6 PUSH2 0x1C4D JUMP JUMPDEST PUSH2 0x1C7E PUSH1 0x20 DUP4 ADD DUP5 PUSH2 0x12AC JUMP JUMPDEST SWAP4 SWAP3 POP POP POP JUMP JUMPDEST PUSH1 0x0 PUSH2 0x1C90 DUP3 PUSH2 0x12A2 JUMP JUMPDEST SWAP2 POP PUSH32 0xFFFFFFFFFFFFFFFFFFFFFFFFFFFFFFFFFFFFFFFFFFFFFFFFFFFFFFFFFFFFFFFF DUP3 EQ ISZERO PUSH2 0x1CC3 JUMPI PUSH2 0x1CC2 PUSH2 0x1AB6 JUMP JUMPDEST JUMPDEST PUSH1 0x1 DUP3 ADD SWAP1 POP SWAP2 SWAP1 POP JUMP JUMPDEST PUSH1 0x0 DUP2 SWAP1 POP SWAP2 SWAP1 POP JUMP JUMPDEST PUSH1 0x0 PUSH2 0x1CF3 PUSH2 0x1CEE PUSH2 0x1CE9 DUP5 PUSH2 0x1CCE JUMP JUMPDEST PUSH2 0x193A JUMP JUMPDEST PUSH2 0x12A2 JUMP JUMPDEST SWAP1 POP SWAP2 SWAP1 POP JUMP JUMPDEST PUSH2 0x1D03 DUP2 PUSH2 0x1CD8 JUMP JUMPDEST DUP3 MSTORE POP POP JUMP JUMPDEST PUSH1 0x0 PUSH1 0x20 DUP3 ADD SWAP1 POP PUSH2 0x1D1E PUSH1 0x0 DUP4 ADD DUP5 PUSH2 0x1CFA JUMP JUMPDEST SWAP3 SWAP2 POP POP JUMP JUMPDEST PUSH32 0x506C656173652070726F7669646520612076616C696420616464726573730000 PUSH1 0x0 DUP3 ADD MSTORE POP JUMP JUMPDEST PUSH1 0x0 PUSH2 0x1D5A PUSH1 0x1E DUP4 PUSH2 0x19E1 JUMP JUMPDEST SWAP2 POP PUSH2 0x1D65 DUP3 PUSH2 0x1D24 JUMP JUMPDEST PUSH1 0x20 DUP3 ADD SWAP1 POP SWAP2 SWAP1 POP JUMP JUMPDEST PUSH1 0x0 PUSH1 0x20 DUP3 ADD SWAP1 POP DUP2 DUP2 SUB PUSH1 0x0 DUP4 ADD MSTORE PUSH2 0x1D89 DUP2 PUSH2 0x1D4D JUMP JUMPDEST SWAP1 POP SWAP2 SWAP1 POP JUMP JUMPDEST PUSH1 0x0 DUP2 MLOAD SWAP1 POP PUSH2 0x1D9F DUP2 PUSH2 0x1509 JUMP JUMPDEST SWAP3 SWAP2 POP POP JUMP JUMPDEST PUSH1 0x0 PUSH1 0x20 DUP3 DUP5 SUB SLT ISZERO PUSH2 0x1DBB JUMPI PUSH2 0x1DBA PUSH2 0x12E0 JUMP JUMPDEST JUMPDEST PUSH1 0x0 PUSH2 0x1DC9 DUP5 DUP3 DUP6 ADD PUSH2 0x1D90 JUMP JUMPDEST SWAP2 POP POP SWAP3 SWAP2 POP POP JUMP JUMPDEST PUSH1 0x0 PUSH16 0xFFFFFFFFFFFFFFFFFFFFFFFFFFFFFFFF DUP3 AND SWAP1 POP SWAP2 SWAP1 POP JUMP JUMPDEST PUSH1 0x0 PUSH2 0x1E09 PUSH2 0x1E04 PUSH2 0x1DFF DUP5 PUSH2 0x1DD2 JUMP JUMPDEST PUSH2 0x193A JUMP JUMPDEST PUSH2 0x12A2 JUMP JUMPDEST SWAP1 POP SWAP2 SWAP1 POP JUMP JUMPDEST PUSH2 0x1E19 DUP2 PUSH2 0x1DEE JUMP JUMPDEST DUP3 MSTORE POP POP JUMP JUMPDEST PUSH1 0x0 PUSH1 0x40 DUP3 ADD SWAP1 POP PUSH2 0x1E34 PUSH1 0x0 DUP4 ADD DUP6 PUSH2 0x1778 JUMP JUMPDEST PUSH2 0x1E41 PUSH1 0x20 DUP4 ADD DUP5 PUSH2 0x1E10 JUMP JUMPDEST SWAP4 SWAP3 POP POP POP JUMP JUMPDEST PUSH1 0x0 DUP2 ISZERO ISZERO SWAP1 POP SWAP2 SWAP1 POP JUMP JUMPDEST PUSH2 0x1E5D DUP2 PUSH2 0x1E48 JUMP JUMPDEST DUP2 EQ PUSH2 0x1E68 JUMPI PUSH1 0x0 DUP1 REVERT JUMPDEST POP JUMP JUMPDEST PUSH1 0x0 DUP2 MLOAD SWAP1 POP PUSH2 0x1E7A DUP2 PUSH2 0x1E54 JUMP JUMPDEST SWAP3 SWAP2 POP POP JUMP JUMPDEST PUSH1 0x0 PUSH1 0x20 DUP3 DUP5 SUB SLT ISZERO PUSH2 0x1E96 JUMPI PUSH2 0x1E95 PUSH2 0x12E0 JUMP JUMPDEST JUMPDEST PUSH1 0x0 PUSH2 0x1EA4 DUP5 DUP3 DUP6 ADD PUSH2 0x1E6B JUMP JUMPDEST SWAP2 POP POP SWAP3 SWAP2 POP POP JUMP JUMPDEST PUSH1 0x0 DUP2 SWAP1 POP SWAP3 SWAP2 POP POP JUMP JUMPDEST DUP3 DUP2 DUP4 CALLDATACOPY PUSH1 0x0 DUP4 DUP4 ADD MSTORE POP POP POP JUMP JUMPDEST PUSH1 0x0 PUSH2 0x1ED3 DUP4 DUP6 PUSH2 0x1EAD JUMP JUMPDEST SWAP4 POP PUSH2 0x1EE0 DUP4 DUP6 DUP5 PUSH2 0x1EB8 JUMP JUMPDEST DUP3 DUP5 ADD SWAP1 POP SWAP4 SWAP3 POP POP POP JUMP JUMPDEST PUSH1 0x0 PUSH2 0x1EF9 DUP3 DUP5 DUP7 PUSH2 0x1EC7 JUMP JUMPDEST SWAP2 POP DUP2 SWAP1 POP SWAP4 SWAP3 POP POP POP JUMP JUMPDEST PUSH2 0x1F0E DUP2 PUSH2 0x1E48 JUMP JUMPDEST DUP3 MSTORE POP POP JUMP JUMPDEST PUSH1 0x0 PUSH1 0x40 DUP3 ADD SWAP1 POP PUSH2 0x1F29 PUSH1 0x0 DUP4 ADD DUP6 PUSH2 0x1F05 JUMP JUMPDEST PUSH2 0x1F36 PUSH1 0x20 DUP4 ADD DUP5 PUSH2 0x12AC JUMP JUMPDEST SWAP4 SWAP3 POP POP POP JUMP JUMPDEST PUSH32 0x535741505F43414C4C5F4641494C454400000000000000000000000000000000 PUSH1 0x0 DUP3 ADD MSTORE POP JUMP JUMPDEST PUSH1 0x0 PUSH2 0x1F73 PUSH1 0x10 DUP4 PUSH2 0x19E1 JUMP JUMPDEST SWAP2 POP PUSH2 0x1F7E DUP3 PUSH2 0x1F3D JUMP JUMPDEST PUSH1 0x20 DUP3 ADD SWAP1 POP SWAP2 SWAP1 POP JUMP JUMPDEST PUSH1 0x0 PUSH1 0x20 DUP3 ADD SWAP1 POP DUP2 DUP2 SUB PUSH1 0x0 DUP4 ADD MSTORE PUSH2 0x1FA2 DUP2 PUSH2 0x1F66 JUMP JUMPDEST SWAP1 POP SWAP2 SWAP1 POP JUMP JUMPDEST PUSH32 0x4F776E61626C653A206E6577206F776E657220697320746865207A65726F2061 PUSH1 0x0 DUP3 ADD MSTORE PUSH32 0x6464726573730000000000000000000000000000000000000000000000000000 PUSH1 0x20 DUP3 ADD MSTORE POP JUMP JUMPDEST PUSH1 0x0 PUSH2 0x2005 PUSH1 0x26 DUP4 PUSH2 0x19E1 JUMP JUMPDEST SWAP2 POP PUSH2 0x2010 DUP3 PUSH2 0x1FA9 JUMP JUMPDEST PUSH1 0x40 DUP3 ADD SWAP1 POP SWAP2 SWAP1 POP JUMP JUMPDEST PUSH1 0x0 PUSH1 0x20 DUP3 ADD SWAP1 POP DUP2 DUP2 SUB PUSH1 0x0 DUP4 ADD MSTORE PUSH2 0x2034 DUP2 PUSH2 0x1FF8 JUMP JUMPDEST SWAP1 POP SWAP2 SWAP1 POP JUMP JUMPDEST PUSH1 0x0 PUSH1 0x60 DUP3 ADD SWAP1 POP PUSH2 0x2050 PUSH1 0x0 DUP4 ADD DUP7 PUSH2 0x1778 JUMP JUMPDEST PUSH2 0x205D PUSH1 0x20 DUP4 ADD DUP6 PUSH2 0x1778 JUMP JUMPDEST PUSH2 0x206A PUSH1 0x40 DUP4 ADD DUP5 PUSH2 0x12AC JUMP JUMPDEST SWAP5 SWAP4 POP POP POP POP JUMP JUMPDEST PUSH1 0x0 PUSH1 0x40 DUP3 ADD SWAP1 POP PUSH2 0x2087 PUSH1 0x0 DUP4 ADD DUP6 PUSH2 0x1778 JUMP JUMPDEST PUSH2 0x2094 PUSH1 0x20 DUP4 ADD DUP5 PUSH2 0x12AC JUMP JUMPDEST SWAP4 SWAP3 POP POP POP JUMP JUMPDEST PUSH32 0x4F776E61626C653A2063616C6C6572206973206E6F7420746865206F776E6572 PUSH1 0x0 DUP3 ADD MSTORE POP JUMP JUMPDEST PUSH1 0x0 PUSH2 0x20D1 PUSH1 0x20 DUP4 PUSH2 0x19E1 JUMP JUMPDEST SWAP2 POP PUSH2 0x20DC DUP3 PUSH2 0x209B JUMP JUMPDEST PUSH1 0x20 DUP3 ADD SWAP1 POP SWAP2 SWAP1 POP JUMP JUMPDEST PUSH1 0x0 PUSH1 0x20 DUP3 ADD SWAP1 POP DUP2 DUP2 SUB PUSH1 0x0 DUP4 ADD MSTORE PUSH2 0x2100 DUP2 PUSH2 0x20C4 JUMP JUMPDEST SWAP1 POP SWAP2 SWAP1 POP JUMP INVALID LOG2 PUSH5 0x6970667358 0x22 SLT KECCAK256 PC 0x24 0x29 PUSH29 0xF8DDCBF04039310ABA27966A8E8F43438AC4BF515CE14FB7D524CB1064 PUSH20 0x6F6C634300080800330000000000000000000000 "},"gasEstimates":{"creation":{"codeDepositCost":"1701800","executionCost":"infinite","totalCost":"infinite"},"external":{"":"174","WETH()":"infinite","fillQuote(address,address,address,address,bytes)":"infinite","maxTransactions()":"2430","multiSwap(address[],address[],address[],address[],bytes[],uint256[])":"infinite","owner()":"2522","renounceOwnership()":"30443","setMaxTransactionLimit(uint256)":"infinite","transferOwnership(address)":"30835","withdrawETH(uint256)":"infinite"},"internal":{"depositToken(contract IERC20,uint256)":"infinite","setDestination()":"22","transferEth(uint256,address)":"infinite","withdrawToken(contract IERC20,uint256)":"infinite"}},"methodIdentifiers":{"WETH()":"ad5c4648","fillQuote(address,address,address,address,bytes)":"ab971612","maxTransactions()":"24e1c18d","multiSwap(address[],address[],address[],address[],bytes[],uint256[])":"6ca591a7","owner()":"8da5cb5b","renounceOwnership()":"715018a6","setMaxTransactionLimit(uint256)":"7a9d7c14","transferOwnership(address)":"f2fde38b","withdrawETH(uint256)":"f14210a6"}},"storageLayout":{"storage":[{"astId":7,"contract":"contracts/AlphaVault.sol:AlphaVaultSwap","label":"_owner","offset":0,"slot":"0","type":"t_address"},{"astId":274,"contract":"contracts/AlphaVault.sol:AlphaVaultSwap","label":"maxTransactions","offset":0,"slot":"1","type":"t_uint256"}],"types":{"t_address":{"encoding":"inplace","label":"address","numberOfBytes":"20"},"t_uint256":{"encoding":"inplace","label":"uint256","numberOfBytes":"32"}}},"userdoc":{"kind":"user","methods":{},"version":1}}}}